{
  "_format": "hh-sol-artifact-1",
  "contractName": "CollectorChain",
  "sourceName": "contracts/CollectorChain.sol",
  "abi": [
    {
      "inputs": [],
      "stateMutability": "nonpayable",
      "type": "constructor"
    },
    {
      "anonymous": false,
      "inputs": [
        {
          "indexed": true,
          "internalType": "address",
          "name": "account",
          "type": "address"
        },
        {
          "indexed": true,
          "internalType": "address",
          "name": "operator",
          "type": "address"
        },
        {
          "indexed": false,
          "internalType": "bool",
          "name": "approved",
          "type": "bool"
        }
      ],
      "name": "ApprovalForAll",
      "type": "event"
    },
    {
      "anonymous": false,
      "inputs": [
        {
          "indexed": true,
          "internalType": "address",
          "name": "previousOwner",
          "type": "address"
        },
        {
          "indexed": true,
          "internalType": "address",
          "name": "newOwner",
          "type": "address"
        }
      ],
      "name": "OwnershipTransferred",
      "type": "event"
    },
    {
      "anonymous": false,
      "inputs": [
        {
          "indexed": true,
          "internalType": "address",
          "name": "operator",
          "type": "address"
        },
        {
          "indexed": true,
          "internalType": "address",
          "name": "from",
          "type": "address"
        },
        {
          "indexed": true,
          "internalType": "address",
          "name": "to",
          "type": "address"
        },
        {
          "indexed": false,
          "internalType": "uint256[]",
          "name": "ids",
          "type": "uint256[]"
        },
        {
          "indexed": false,
          "internalType": "uint256[]",
          "name": "values",
          "type": "uint256[]"
        }
      ],
      "name": "TransferBatch",
      "type": "event"
    },
    {
      "anonymous": false,
      "inputs": [
        {
          "indexed": true,
          "internalType": "address",
          "name": "operator",
          "type": "address"
        },
        {
          "indexed": true,
          "internalType": "address",
          "name": "from",
          "type": "address"
        },
        {
          "indexed": true,
          "internalType": "address",
          "name": "to",
          "type": "address"
        },
        {
          "indexed": false,
          "internalType": "uint256",
          "name": "id",
          "type": "uint256"
        },
        {
          "indexed": false,
          "internalType": "uint256",
          "name": "value",
          "type": "uint256"
        }
      ],
      "name": "TransferSingle",
      "type": "event"
    },
    {
      "anonymous": false,
      "inputs": [
        {
          "indexed": false,
          "internalType": "string",
          "name": "value",
          "type": "string"
        },
        {
          "indexed": true,
          "internalType": "uint256",
          "name": "id",
          "type": "uint256"
        }
      ],
      "name": "URI",
      "type": "event"
    },
    {
      "anonymous": false,
      "inputs": [
        {
          "indexed": false,
          "internalType": "uint256",
          "name": "mintProposalId",
          "type": "uint256"
        }
      ],
      "name": "mintProposalCreationEvent",
      "type": "event"
    },
    {
      "anonymous": false,
      "inputs": [
        {
          "indexed": false,
          "internalType": "uint256",
          "name": "mintProposalId",
          "type": "uint256"
        },
        {
          "indexed": false,
          "internalType": "uint8",
          "name": "status",
          "type": "uint8"
        }
      ],
      "name": "mintProposalStatusUpdateEvent",
      "type": "event"
    },
    {
      "anonymous": false,
      "inputs": [
        {
          "indexed": false,
          "internalType": "uint256",
          "name": "stockerId",
          "type": "uint256"
        }
      ],
      "name": "stockerCreationEvent",
      "type": "event"
    },
    {
      "inputs": [],
      "name": "_baseFeeNumerator",
      "outputs": [
        {
          "internalType": "uint96",
          "name": "",
          "type": "uint96"
        }
      ],
      "stateMutability": "view",
      "type": "function"
    },
    {
      "inputs": [],
      "name": "_nftIdCounter",
      "outputs": [
        {
          "internalType": "uint256",
          "name": "",
          "type": "uint256"
        }
      ],
      "stateMutability": "view",
      "type": "function"
    },
    {
      "inputs": [],
      "name": "_stockerIdCounter",
      "outputs": [
        {
          "internalType": "uint256",
          "name": "",
          "type": "uint256"
        }
      ],
      "stateMutability": "view",
      "type": "function"
    },
    {
      "inputs": [
        {
          "internalType": "address",
          "name": "account",
          "type": "address"
        },
        {
          "internalType": "uint256",
          "name": "id",
          "type": "uint256"
        }
      ],
      "name": "balanceOf",
      "outputs": [
        {
          "internalType": "uint256",
          "name": "",
          "type": "uint256"
        }
      ],
      "stateMutability": "view",
      "type": "function"
    },
    {
      "inputs": [
        {
          "internalType": "address[]",
          "name": "accounts",
          "type": "address[]"
        },
        {
          "internalType": "uint256[]",
          "name": "ids",
          "type": "uint256[]"
        }
      ],
      "name": "balanceOfBatch",
      "outputs": [
        {
          "internalType": "uint256[]",
          "name": "",
          "type": "uint256[]"
        }
      ],
      "stateMutability": "view",
      "type": "function"
    },
    {
      "inputs": [],
      "name": "contractMetaDataURI",
      "outputs": [
        {
          "internalType": "string",
          "name": "",
          "type": "string"
        }
      ],
      "stateMutability": "view",
      "type": "function"
    },
    {
      "inputs": [],
      "name": "contractURI",
      "outputs": [
        {
          "internalType": "string",
          "name": "",
          "type": "string"
        }
      ],
      "stateMutability": "view",
      "type": "function"
    },
    {
      "inputs": [
        {
          "internalType": "string",
          "name": "_nftName",
          "type": "string"
        },
        {
          "internalType": "uint256",
          "name": "_stockerId",
          "type": "uint256"
        },
        {
          "internalType": "string",
          "name": "_imageURL",
          "type": "string"
        },
        {
          "internalType": "uint256",
          "name": "_sharesQty",
          "type": "uint256"
        }
      ],
      "name": "createMintProposal",
      "outputs": [],
      "stateMutability": "nonpayable",
      "type": "function"
    },
    {
      "inputs": [
        {
          "internalType": "address",
          "name": "account",
          "type": "address"
        },
        {
          "internalType": "address",
          "name": "operator",
          "type": "address"
        }
      ],
      "name": "isApprovedForAll",
      "outputs": [
        {
          "internalType": "bool",
          "name": "",
          "type": "bool"
        }
      ],
      "stateMutability": "view",
      "type": "function"
    },
    {
      "inputs": [
        {
          "internalType": "uint256",
          "name": "",
          "type": "uint256"
        }
      ],
      "name": "isNftExist",
      "outputs": [
        {
          "internalType": "bool",
          "name": "",
          "type": "bool"
        }
      ],
      "stateMutability": "view",
      "type": "function"
    },
    {
      "inputs": [
        {
          "internalType": "uint256",
          "name": "_nftId",
          "type": "uint256"
        },
        {
          "internalType": "string",
          "name": "_nftURI",
          "type": "string"
        }
      ],
      "name": "mintNft",
      "outputs": [],
      "stateMutability": "nonpayable",
      "type": "function"
    },
    {
      "inputs": [
        {
          "internalType": "uint256",
          "name": "",
          "type": "uint256"
        }
      ],
      "name": "nftList",
      "outputs": [
        {
          "internalType": "uint256",
          "name": "nftId",
          "type": "uint256"
        },
        {
          "internalType": "address",
          "name": "minter",
          "type": "address"
        },
        {
          "internalType": "string",
          "name": "nftName",
          "type": "string"
        },
        {
          "internalType": "uint256",
          "name": "stockerId",
          "type": "uint256"
        },
        {
          "internalType": "enum CollectorChain.Status",
          "name": "status",
          "type": "uint8"
        },
        {
          "internalType": "string",
          "name": "imageURL",
          "type": "string"
        },
        {
          "internalType": "uint256",
          "name": "sharesQty",
          "type": "uint256"
        }
      ],
      "stateMutability": "view",
      "type": "function"
    },
    {
      "inputs": [],
      "name": "owner",
      "outputs": [
        {
          "internalType": "address",
          "name": "",
          "type": "address"
        }
      ],
      "stateMutability": "view",
      "type": "function"
    },
    {
      "inputs": [],
      "name": "renounceOwnership",
      "outputs": [],
      "stateMutability": "nonpayable",
      "type": "function"
    },
    {
      "inputs": [
        {
          "internalType": "uint256",
          "name": "_tokenId",
          "type": "uint256"
        },
        {
          "internalType": "uint256",
          "name": "_salePrice",
          "type": "uint256"
        }
      ],
      "name": "royaltyInfo",
      "outputs": [
        {
          "internalType": "address",
          "name": "",
          "type": "address"
        },
        {
          "internalType": "uint256",
          "name": "",
          "type": "uint256"
        }
      ],
      "stateMutability": "view",
      "type": "function"
    },
    {
      "inputs": [
        {
          "internalType": "address",
          "name": "from",
          "type": "address"
        },
        {
          "internalType": "address",
          "name": "to",
          "type": "address"
        },
        {
          "internalType": "uint256[]",
          "name": "ids",
          "type": "uint256[]"
        },
        {
          "internalType": "uint256[]",
          "name": "amounts",
          "type": "uint256[]"
        },
        {
          "internalType": "bytes",
          "name": "data",
          "type": "bytes"
        }
      ],
      "name": "safeBatchTransferFrom",
      "outputs": [],
      "stateMutability": "nonpayable",
      "type": "function"
    },
    {
      "inputs": [
        {
          "internalType": "address",
          "name": "from",
          "type": "address"
        },
        {
          "internalType": "address",
          "name": "to",
          "type": "address"
        },
        {
          "internalType": "uint256",
          "name": "id",
          "type": "uint256"
        },
        {
          "internalType": "uint256",
          "name": "amount",
          "type": "uint256"
        },
        {
          "internalType": "bytes",
          "name": "data",
          "type": "bytes"
        }
      ],
      "name": "safeTransferFrom",
      "outputs": [],
      "stateMutability": "nonpayable",
      "type": "function"
    },
    {
      "inputs": [
        {
          "internalType": "address",
          "name": "operator",
          "type": "address"
        },
        {
          "internalType": "bool",
          "name": "approved",
          "type": "bool"
        }
      ],
      "name": "setApprovalForAll",
      "outputs": [],
      "stateMutability": "nonpayable",
      "type": "function"
    },
    {
      "inputs": [
        {
          "internalType": "uint96",
          "name": "_fee",
          "type": "uint96"
        }
      ],
      "name": "setBaseFee",
      "outputs": [],
      "stateMutability": "nonpayable",
      "type": "function"
    },
    {
      "inputs": [
        {
          "internalType": "string",
          "name": "_contractURI",
          "type": "string"
        }
      ],
      "name": "setContractURI",
      "outputs": [],
      "stateMutability": "nonpayable",
      "type": "function"
    },
    {
      "inputs": [
        {
          "internalType": "bool",
          "name": "_vote",
          "type": "bool"
        },
        {
          "internalType": "uint256",
          "name": "_nftId",
          "type": "uint256"
        }
      ],
      "name": "setMintProposalStatus",
      "outputs": [],
      "stateMutability": "nonpayable",
      "type": "function"
    },
    {
      "inputs": [
        {
          "internalType": "address",
          "name": "_stockerAddr",
          "type": "address"
        },
        {
          "internalType": "string",
          "name": "_stockerName",
          "type": "string"
        }
      ],
      "name": "stockerCreation",
      "outputs": [],
      "stateMutability": "nonpayable",
      "type": "function"
    },
    {
      "inputs": [
        {
          "internalType": "uint256",
          "name": "",
          "type": "uint256"
        }
      ],
      "name": "stockerList",
      "outputs": [
        {
          "internalType": "address",
          "name": "stockerAddr",
          "type": "address"
        },
        {
          "internalType": "string",
          "name": "stockerName",
          "type": "string"
        }
      ],
      "stateMutability": "view",
      "type": "function"
    },
    {
      "inputs": [
        {
          "internalType": "bytes4",
          "name": "interfaceId",
          "type": "bytes4"
        }
      ],
      "name": "supportsInterface",
      "outputs": [
        {
          "internalType": "bool",
          "name": "",
          "type": "bool"
        }
      ],
      "stateMutability": "view",
      "type": "function"
    },
    {
      "inputs": [
        {
          "internalType": "address",
          "name": "newOwner",
          "type": "address"
        }
      ],
      "name": "transferOwnership",
      "outputs": [],
      "stateMutability": "nonpayable",
      "type": "function"
    },
    {
      "inputs": [
        {
          "internalType": "uint256",
          "name": "tokenId",
          "type": "uint256"
        }
      ],
      "name": "uri",
      "outputs": [
        {
          "internalType": "string",
          "name": "",
          "type": "string"
        }
      ],
      "stateMutability": "view",
      "type": "function"
    }
  ],
  "bytecode": "0x6080604052604051806020016040528060008152506003908162000024919062000452565b506101f4600a60006101000a8154816bffffffffffffffffffffffff02191690836bffffffffffffffffffffffff1602179055506040518060400160405280600681526020017f636f75636f750000000000000000000000000000000000000000000000000000815250600b90816200009e919062000452565b50348015620000ac57600080fd5b5060405180602001604052806000815250620000ce81620000f560201b60201c565b50620000ef620000e36200010a60201b60201c565b6200011260201b60201c565b62000539565b806002908162000106919062000452565b5050565b600033905090565b6000600760009054906101000a900473ffffffffffffffffffffffffffffffffffffffff16905081600760006101000a81548173ffffffffffffffffffffffffffffffffffffffff021916908373ffffffffffffffffffffffffffffffffffffffff1602179055508173ffffffffffffffffffffffffffffffffffffffff168173ffffffffffffffffffffffffffffffffffffffff167f8be0079c531659141344cd1fd0a4f28419497f9722a3daafe3b4186f6b6457e060405160405180910390a35050565b600081519050919050565b7f4e487b7100000000000000000000000000000000000000000000000000000000600052604160045260246000fd5b7f4e487b7100000000000000000000000000000000000000000000000000000000600052602260045260246000fd5b600060028204905060018216806200025a57607f821691505b60208210810362000270576200026f62000212565b5b50919050565b60008190508160005260206000209050919050565b60006020601f8301049050919050565b600082821b905092915050565b600060088302620002da7fffffffffffffffffffffffffffffffffffffffffffffffffffffffffffffffff826200029b565b620002e686836200029b565b95508019841693508086168417925050509392505050565b6000819050919050565b6000819050919050565b6000620003336200032d6200032784620002fe565b62000308565b620002fe565b9050919050565b6000819050919050565b6200034f8362000312565b620003676200035e826200033a565b848454620002a8565b825550505050565b600090565b6200037e6200036f565b6200038b81848462000344565b505050565b5b81811015620003b357620003a760008262000374565b60018101905062000391565b5050565b601f8211156200040257620003cc8162000276565b620003d7846200028b565b81016020851015620003e7578190505b620003ff620003f6856200028b565b83018262000390565b50505b505050565b600082821c905092915050565b6000620004276000198460080262000407565b1980831691505092915050565b600062000442838362000414565b9150826002028217905092915050565b6200045d82620001d8565b67ffffffffffffffff811115620004795762000478620001e3565b5b62000485825462000241565b62000492828285620003b7565b600060209050601f831160018114620004ca5760008415620004b5578287015190505b620004c1858262000434565b86555062000531565b601f198416620004da8662000276565b60005b828110156200050457848901518255600182019150602085019450602081019050620004dd565b8683101562000524578489015162000520601f89168262000414565b8355505b6001600288020188555050505b505050505050565b614d3580620005496000396000f3fe608060405234801561001057600080fd5b506004361061018d5760003560e01c806377131db7116100de578063be4f00cd11610097578063e985e9c511610071578063e985e9c514610488578063f242432a146104b8578063f2fde38b146104d4578063f612c0de146104f05761018d565b8063be4f00cd14610432578063c53816181461044e578063e8a3d4851461046a5761018d565b806377131db71461036f578063891e3d70146103a05780638da5cb5b146103be578063938e3d7b146103dc578063a22cb465146103f8578063b5fd169c146104145761018d565b80632eb2c2d61161014b57806368f99bd81161012557806368f99bd8146102f5578063715018a61461031357806375bea1661461031d57806376052e04146103535761018d565b80632eb2c2d61461028d578063308a9cb6146102a95780634e1273f4146102c55761018d565b8062fdd58e1461019257806301ffc9a7146101c25780630e89341c146101f257806322e73a5d1461022257806329a7670a1461023e5780632a55205a1461025c575b600080fd5b6101ac60048036038101906101a79190612c6e565b610520565b6040516101b99190612cbd565b60405180910390f35b6101dc60048036038101906101d79190612d30565b6105e8565b6040516101e99190612d78565b60405180910390f35b61020c60048036038101906102079190612d93565b6105fa565b6040516102199190612e50565b60405180910390f35b61023c60048036038101906102379190612e9e565b6106df565b005b6102466108d3565b6040516102539190612e50565b60405180910390f35b61027660048036038101906102719190612ede565b610961565b604051610284929190612f2d565b60405180910390f35b6102a760048036038101906102a29190613153565b610b4b565b005b6102c360048036038101906102be919061327d565b610bec565b005b6102df60048036038101906102da91906133e7565b610e3a565b6040516102ec919061351d565b60405180910390f35b6102fd610f53565b60405161030a9190613566565b60405180910390f35b61031b610f71565b005b61033760048036038101906103329190612d93565b610f85565b60405161034a97969594939291906135f8565b60405180910390f35b61036d60048036038101906103689190613675565b611104565b005b61038960048036038101906103849190612d93565b61135a565b6040516103979291906136d5565b60405180910390f35b6103a8611426565b6040516103b59190612cbd565b60405180910390f35b6103c661142c565b6040516103d39190613705565b60405180910390f35b6103f660048036038101906103f19190613720565b611456565b005b610412600480360381019061040d919061376d565b611474565b005b61041c61148a565b6040516104299190612cbd565b60405180910390f35b61044c600480360381019061044791906137d9565b611490565b005b61046860048036038101906104639190613806565b61151f565b005b61047261166d565b60405161047f9190612e50565b60405180910390f35b6104a2600480360381019061049d9190613866565b6116ff565b6040516104af9190612d78565b60405180910390f35b6104d260048036038101906104cd91906138a6565b611793565b005b6104ee60048036038101906104e9919061393d565b611834565b005b61050a60048036038101906105059190612d93565b6118b7565b6040516105179190612d78565b60405180910390f35b60008073ffffffffffffffffffffffffffffffffffffffff168373ffffffffffffffffffffffffffffffffffffffff1603610590576040517f08c379a0000000000000000000000000000000000000000000000000000000008152600401610587906139dc565b60405180910390fd5b60008083815260200190815260200160002060008473ffffffffffffffffffffffffffffffffffffffff1673ffffffffffffffffffffffffffffffffffffffff16815260200190815260200160002054905092915050565b60006105f3826118d7565b9050919050565b6060600060046000848152602001908152602001600020805461061c90613a2b565b80601f016020809104026020016040519081016040528092919081815260200182805461064890613a2b565b80156106955780601f1061066a57610100808354040283529160200191610695565b820191906000526020600020905b81548152906001019060200180831161067857829003601f168201915b5050505050905060008151116106b3576106ae83611951565b6106d7565b6003816040516020016106c7929190613b30565b6040516020818303038152906040525b915050919050565b6106e76119e5565b600d600082815260200190815260200160002060009054906101000a900460ff16610747576040517f08c379a000000000000000000000000000000000000000000000000000000000815260040161073e90613ba0565b60405180910390fd5b6000600481111561075b5761075a613581565b5b600c600083815260200190815260200160002060040160009054906101000a900460ff16600481111561079157610790613581565b5b146107d1576040517f08c379a00000000000000000000000000000000000000000000000000000000081526004016107c890613c0c565b60405180910390fd5b8115610855576001600c600083815260200190815260200160002060040160006101000a81548160ff0219169083600481111561081157610810613581565b5b02179055507f3d3ee96f2bb6e9f1ae3eb4b2e70560b1afb5d141055e91707a654773659ffd79816001604051610848929190613c7e565b60405180910390a16108cf565b6002600c600083815260200190815260200160002060040160006101000a81548160ff0219169083600481111561088f5761088e613581565b5b02179055507f3d3ee96f2bb6e9f1ae3eb4b2e70560b1afb5d141055e91707a654773659ffd798160026040516108c6929190613ce2565b60405180910390a15b5050565b600b80546108e090613a2b565b80601f016020809104026020016040519081016040528092919081815260200182805461090c90613a2b565b80156109595780601f1061092e57610100808354040283529160200191610959565b820191906000526020600020905b81548152906001019060200180831161093c57829003601f168201915b505050505081565b6000806000600660008681526020019081526020016000206040518060400160405290816000820160009054906101000a900473ffffffffffffffffffffffffffffffffffffffff1673ffffffffffffffffffffffffffffffffffffffff1673ffffffffffffffffffffffffffffffffffffffff1681526020016000820160149054906101000a90046bffffffffffffffffffffffff166bffffffffffffffffffffffff166bffffffffffffffffffffffff16815250509050600073ffffffffffffffffffffffffffffffffffffffff16816000015173ffffffffffffffffffffffffffffffffffffffff1603610af65760056040518060400160405290816000820160009054906101000a900473ffffffffffffffffffffffffffffffffffffffff1673ffffffffffffffffffffffffffffffffffffffff1673ffffffffffffffffffffffffffffffffffffffff1681526020016000820160149054906101000a90046bffffffffffffffffffffffff166bffffffffffffffffffffffff166bffffffffffffffffffffffff168152505090505b6000610b00611a63565b6bffffffffffffffffffffffff1682602001516bffffffffffffffffffffffff1686610b2c9190613d3a565b610b369190613dab565b90508160000151819350935050509250929050565b610b53611a6d565b73ffffffffffffffffffffffffffffffffffffffff168573ffffffffffffffffffffffffffffffffffffffff161480610b995750610b9885610b93611a6d565b6116ff565b5b610bd8576040517f08c379a0000000000000000000000000000000000000000000000000000000008152600401610bcf90613e4e565b60405180910390fd5b610be58585858585611a75565b5050505050565b6000600854905060006040518060e001604052808381526020013373ffffffffffffffffffffffffffffffffffffffff16815260200189898080601f016020809104026020016040519081016040528093929190818152602001838380828437600081840152601f19601f82011690508083019250505050505050815260200187815260200160006004811115610c8657610c85613581565b5b815260200186868080601f016020809104026020016040519081016040528093929190818152602001838380828437600081840152601f19601f82011690508083019250505050505050815260200184815250905080600c60008481526020019081526020016000206000820151816000015560208201518160010160006101000a81548173ffffffffffffffffffffffffffffffffffffffff021916908373ffffffffffffffffffffffffffffffffffffffff1602179055506040820151816002019081610d559190613ffb565b506060820151816003015560808201518160040160006101000a81548160ff02191690836004811115610d8b57610d8a613581565b5b021790555060a0820151816005019081610da59190613ffb565b5060c082015181600601559050506001600d600084815260200190815260200160002060006101000a81548160ff0219169083151502179055507fa34cb97999ecd0f8226bfafb1308337aa1070792f2ffe98893ca3cd24aeb86d4600854604051610e109190612cbd565b60405180910390a160086000815480929190610e2b906140cd565b91905055505050505050505050565b60608151835114610e80576040517f08c379a0000000000000000000000000000000000000000000000000000000008152600401610e7790614187565b60405180910390fd5b6000835167ffffffffffffffff811115610e9d57610e9c612f5b565b5b604051908082528060200260200182016040528015610ecb5781602001602082028036833780820191505090505b50905060005b8451811015610f4857610f18858281518110610ef057610eef6141a7565b5b6020026020010151858381518110610f0b57610f0a6141a7565b5b6020026020010151610520565b828281518110610f2b57610f2a6141a7565b5b60200260200101818152505080610f41906140cd565b9050610ed1565b508091505092915050565b600a60009054906101000a90046bffffffffffffffffffffffff1681565b610f796119e5565b610f836000611d96565b565b600c6020528060005260406000206000915090508060000154908060010160009054906101000a900473ffffffffffffffffffffffffffffffffffffffff1690806002018054610fd490613a2b565b80601f016020809104026020016040519081016040528092919081815260200182805461100090613a2b565b801561104d5780601f106110225761010080835404028352916020019161104d565b820191906000526020600020905b81548152906001019060200180831161103057829003601f168201915b5050505050908060030154908060040160009054906101000a900460ff169080600501805461107b90613a2b565b80601f01602080910402602001604051908101604052809291908181526020018280546110a790613a2b565b80156110f45780601f106110c9576101008083540402835291602001916110f4565b820191906000526020600020905b8154815290600101906020018083116110d757829003601f168201915b5050505050908060060154905087565b6001600481111561111857611117613581565b5b600c600085815260200190815260200160002060040160009054906101000a900460ff16600481111561114e5761114d613581565b5b1461118e576040517f08c379a000000000000000000000000000000000000000000000000000000000815260040161118590614222565b60405180910390fd5b600c600084815260200190815260200160002060010160009054906101000a900473ffffffffffffffffffffffffffffffffffffffff1673ffffffffffffffffffffffffffffffffffffffff163373ffffffffffffffffffffffffffffffffffffffff1614611232576040517f08c379a00000000000000000000000000000000000000000000000000000000081526004016112299061428e565b60405180910390fd5b6000600c600085815260200190815260200160002060060154905061126833858360405180602001604052806000815250611e5c565b6112b68484848080601f016020809104026020016040519081016040528093929190818152602001838380828437600081840152601f19601f8201169050808301925050505050505061200c565b6112db8433600a60009054906101000a90046bffffffffffffffffffffffff16612071565b6003600c600086815260200190815260200160002060040160006101000a81548160ff0219169083600481111561131557611314613581565b5b02179055507f3d3ee96f2bb6e9f1ae3eb4b2e70560b1afb5d141055e91707a654773659ffd7984600360405161134c9291906142e9565b60405180910390a150505050565b600e6020528060005260406000206000915090508060000160009054906101000a900473ffffffffffffffffffffffffffffffffffffffff16908060010180546113a390613a2b565b80601f01602080910402602001604051908101604052809291908181526020018280546113cf90613a2b565b801561141c5780601f106113f15761010080835404028352916020019161141c565b820191906000526020600020905b8154815290600101906020018083116113ff57829003601f168201915b5050505050905082565b60095481565b6000600760009054906101000a900473ffffffffffffffffffffffffffffffffffffffff16905090565b61145e6119e5565b8181600b918261146f92919061431d565b505050565b61148661147f611a6d565b8383612218565b5050565b60085481565b6114986119e5565b612710816bffffffffffffffffffffffff1611156114eb576040517f08c379a00000000000000000000000000000000000000000000000000000000081526004016114e290614439565b60405180910390fd5b80600a60006101000a8154816bffffffffffffffffffffffff02191690836bffffffffffffffffffffffff16021790555050565b6115276119e5565b60006009549050600060405180604001604052808673ffffffffffffffffffffffffffffffffffffffff16815260200185858080601f016020809104026020016040519081016040528093929190818152602001838380828437600081840152601f19601f82011690508083019250505050505050815250905080600e600084815260200190815260200160002060008201518160000160006101000a81548173ffffffffffffffffffffffffffffffffffffffff021916908373ffffffffffffffffffffffffffffffffffffffff16021790555060208201518160010190816116119190613ffb565b509050507fb6cfc24a1bcf9eec9d98d2d98d44747953e0c034be77874f5ed1d86ede43e9556009546040516116469190612cbd565b60405180910390a160096000815480929190611661906140cd565b91905055505050505050565b6060600b805461167c90613a2b565b80601f01602080910402602001604051908101604052809291908181526020018280546116a890613a2b565b80156116f55780601f106116ca576101008083540402835291602001916116f5565b820191906000526020600020905b8154815290600101906020018083116116d857829003601f168201915b5050505050905090565b6000600160008473ffffffffffffffffffffffffffffffffffffffff1673ffffffffffffffffffffffffffffffffffffffff16815260200190815260200160002060008373ffffffffffffffffffffffffffffffffffffffff1673ffffffffffffffffffffffffffffffffffffffff16815260200190815260200160002060009054906101000a900460ff16905092915050565b61179b611a6d565b73ffffffffffffffffffffffffffffffffffffffff168573ffffffffffffffffffffffffffffffffffffffff1614806117e157506117e0856117db611a6d565b6116ff565b5b611820576040517f08c379a000000000000000000000000000000000000000000000000000000000815260040161181790613e4e565b60405180910390fd5b61182d8585858585612384565b5050505050565b61183c6119e5565b600073ffffffffffffffffffffffffffffffffffffffff168173ffffffffffffffffffffffffffffffffffffffff16036118ab576040517f08c379a00000000000000000000000000000000000000000000000000000000081526004016118a2906144cb565b60405180910390fd5b6118b481611d96565b50565b600d6020528060005260406000206000915054906101000a900460ff1681565b60007f2a55205a000000000000000000000000000000000000000000000000000000007bffffffffffffffffffffffffffffffffffffffffffffffffffffffff1916827bffffffffffffffffffffffffffffffffffffffffffffffffffffffff1916148061194a57506119498261261f565b5b9050919050565b60606002805461196090613a2b565b80601f016020809104026020016040519081016040528092919081815260200182805461198c90613a2b565b80156119d95780601f106119ae576101008083540402835291602001916119d9565b820191906000526020600020905b8154815290600101906020018083116119bc57829003601f168201915b50505050509050919050565b6119ed611a6d565b73ffffffffffffffffffffffffffffffffffffffff16611a0b61142c565b73ffffffffffffffffffffffffffffffffffffffff1614611a61576040517f08c379a0000000000000000000000000000000000000000000000000000000008152600401611a5890614537565b60405180910390fd5b565b6000612710905090565b600033905090565b8151835114611ab9576040517f08c379a0000000000000000000000000000000000000000000000000000000008152600401611ab0906145c9565b60405180910390fd5b600073ffffffffffffffffffffffffffffffffffffffff168473ffffffffffffffffffffffffffffffffffffffff1603611b28576040517f08c379a0000000000000000000000000000000000000000000000000000000008152600401611b1f9061465b565b60405180910390fd5b6000611b32611a6d565b9050611b42818787878787612701565b60005b8451811015611cf3576000858281518110611b6357611b626141a7565b5b602002602001015190506000858381518110611b8257611b816141a7565b5b60200260200101519050600080600084815260200190815260200160002060008b73ffffffffffffffffffffffffffffffffffffffff1673ffffffffffffffffffffffffffffffffffffffff16815260200190815260200160002054905081811015611c23576040517f08c379a0000000000000000000000000000000000000000000000000000000008152600401611c1a906146ed565b60405180910390fd5b81810360008085815260200190815260200160002060008c73ffffffffffffffffffffffffffffffffffffffff1673ffffffffffffffffffffffffffffffffffffffff168152602001908152602001600020819055508160008085815260200190815260200160002060008b73ffffffffffffffffffffffffffffffffffffffff1673ffffffffffffffffffffffffffffffffffffffff1681526020019081526020016000206000828254611cd8919061470d565b9250508190555050505080611cec906140cd565b9050611b45565b508473ffffffffffffffffffffffffffffffffffffffff168673ffffffffffffffffffffffffffffffffffffffff168273ffffffffffffffffffffffffffffffffffffffff167f4a39dc06d4c0dbc64b70af90fd698a233a518aa5d07e595d983b8c0526c8f7fb8787604051611d6a929190614741565b60405180910390a4611d80818787878787612709565b611d8e818787878787612711565b505050505050565b6000600760009054906101000a900473ffffffffffffffffffffffffffffffffffffffff16905081600760006101000a81548173ffffffffffffffffffffffffffffffffffffffff021916908373ffffffffffffffffffffffffffffffffffffffff1602179055508173ffffffffffffffffffffffffffffffffffffffff168173ffffffffffffffffffffffffffffffffffffffff167f8be0079c531659141344cd1fd0a4f28419497f9722a3daafe3b4186f6b6457e060405160405180910390a35050565b600073ffffffffffffffffffffffffffffffffffffffff168473ffffffffffffffffffffffffffffffffffffffff1603611ecb576040517f08c379a0000000000000000000000000000000000000000000000000000000008152600401611ec2906147ea565b60405180910390fd5b6000611ed5611a6d565b90506000611ee2856128e8565b90506000611eef856128e8565b9050611f0083600089858589612701565b8460008088815260200190815260200160002060008973ffffffffffffffffffffffffffffffffffffffff1673ffffffffffffffffffffffffffffffffffffffff1681526020019081526020016000206000828254611f5f919061470d565b925050819055508673ffffffffffffffffffffffffffffffffffffffff16600073ffffffffffffffffffffffffffffffffffffffff168473ffffffffffffffffffffffffffffffffffffffff167fc3d58168c5ae7397731d063d5bbf3d657854427343f4c083240f7aacaa2d0f628989604051611fdd92919061480a565b60405180910390a4611ff483600089858589612709565b61200383600089898989612962565b50505050505050565b8060046000848152602001908152602001600020908161202c9190613ffb565b50817f6bb7ff708619ba0610cba295a58592e0451dee2622938c8755667688daf3529b612058846105fa565b6040516120659190612e50565b60405180910390a25050565b612079611a63565b6bffffffffffffffffffffffff16816bffffffffffffffffffffffff1611156120d7576040517f08c379a00000000000000000000000000000000000000000000000000000000081526004016120ce906148a5565b60405180910390fd5b600073ffffffffffffffffffffffffffffffffffffffff168273ffffffffffffffffffffffffffffffffffffffff1603612146576040517f08c379a000000000000000000000000000000000000000000000000000000000815260040161213d90614911565b60405180910390fd5b60405180604001604052808373ffffffffffffffffffffffffffffffffffffffff168152602001826bffffffffffffffffffffffff168152506006600085815260200190815260200160002060008201518160000160006101000a81548173ffffffffffffffffffffffffffffffffffffffff021916908373ffffffffffffffffffffffffffffffffffffffff16021790555060208201518160000160146101000a8154816bffffffffffffffffffffffff02191690836bffffffffffffffffffffffff160217905550905050505050565b8173ffffffffffffffffffffffffffffffffffffffff168373ffffffffffffffffffffffffffffffffffffffff1603612286576040517f08c379a000000000000000000000000000000000000000000000000000000000815260040161227d906149a3565b60405180910390fd5b80600160008573ffffffffffffffffffffffffffffffffffffffff1673ffffffffffffffffffffffffffffffffffffffff16815260200190815260200160002060008473ffffffffffffffffffffffffffffffffffffffff1673ffffffffffffffffffffffffffffffffffffffff16815260200190815260200160002060006101000a81548160ff0219169083151502179055508173ffffffffffffffffffffffffffffffffffffffff168373ffffffffffffffffffffffffffffffffffffffff167f17307eab39ab6107e8899845ad3d59bd9653f200f220920489ca2b5937696c31836040516123779190612d78565b60405180910390a3505050565b600073ffffffffffffffffffffffffffffffffffffffff168473ffffffffffffffffffffffffffffffffffffffff16036123f3576040517f08c379a00000000000000000000000000000000000000000000000000000000081526004016123ea9061465b565b60405180910390fd5b60006123fd611a6d565b9050600061240a856128e8565b90506000612417856128e8565b9050612427838989858589612701565b600080600088815260200190815260200160002060008a73ffffffffffffffffffffffffffffffffffffffff1673ffffffffffffffffffffffffffffffffffffffff168152602001908152602001600020549050858110156124be576040517f08c379a00000000000000000000000000000000000000000000000000000000081526004016124b5906146ed565b60405180910390fd5b85810360008089815260200190815260200160002060008b73ffffffffffffffffffffffffffffffffffffffff1673ffffffffffffffffffffffffffffffffffffffff168152602001908152602001600020819055508560008089815260200190815260200160002060008a73ffffffffffffffffffffffffffffffffffffffff1673ffffffffffffffffffffffffffffffffffffffff1681526020019081526020016000206000828254612573919061470d565b925050819055508773ffffffffffffffffffffffffffffffffffffffff168973ffffffffffffffffffffffffffffffffffffffff168573ffffffffffffffffffffffffffffffffffffffff167fc3d58168c5ae7397731d063d5bbf3d657854427343f4c083240f7aacaa2d0f628a8a6040516125f092919061480a565b60405180910390a4612606848a8a86868a612709565b612614848a8a8a8a8a612962565b505050505050505050565b60007fd9b67a26000000000000000000000000000000000000000000000000000000007bffffffffffffffffffffffffffffffffffffffffffffffffffffffff1916827bffffffffffffffffffffffffffffffffffffffffffffffffffffffff191614806126ea57507f0e89341c000000000000000000000000000000000000000000000000000000007bffffffffffffffffffffffffffffffffffffffffffffffffffffffff1916827bffffffffffffffffffffffffffffffffffffffffffffffffffffffff1916145b806126fa57506126f982612b39565b5b9050919050565b505050505050565b505050505050565b6127308473ffffffffffffffffffffffffffffffffffffffff16612ba3565b156128e0578373ffffffffffffffffffffffffffffffffffffffff1663bc197c8187878686866040518663ffffffff1660e01b8152600401612776959493929190614a18565b6020604051808303816000875af19250505080156127b257506040513d601f19601f820116820180604052508101906127af9190614a95565b60015b612857576127be614acf565b806308c379a00361281a57506127d2614af1565b806127dd575061281c565b806040517f08c379a00000000000000000000000000000000000000000000000000000000081526004016128119190612e50565b60405180910390fd5b505b6040517f08c379a000000000000000000000000000000000000000000000000000000000815260040161284e90614bf3565b60405180910390fd5b63bc197c8160e01b7bffffffffffffffffffffffffffffffffffffffffffffffffffffffff1916817bffffffffffffffffffffffffffffffffffffffffffffffffffffffff1916146128de576040517f08c379a00000000000000000000000000000000000000000000000000000000081526004016128d590614c85565b60405180910390fd5b505b505050505050565b60606000600167ffffffffffffffff81111561290757612906612f5b565b5b6040519080825280602002602001820160405280156129355781602001602082028036833780820191505090505b509050828160008151811061294d5761294c6141a7565b5b60200260200101818152505080915050919050565b6129818473ffffffffffffffffffffffffffffffffffffffff16612ba3565b15612b31578373ffffffffffffffffffffffffffffffffffffffff1663f23a6e6187878686866040518663ffffffff1660e01b81526004016129c7959493929190614ca5565b6020604051808303816000875af1925050508015612a0357506040513d601f19601f82011682018060405250810190612a009190614a95565b60015b612aa857612a0f614acf565b806308c379a003612a6b5750612a23614af1565b80612a2e5750612a6d565b806040517f08c379a0000000000000000000000000000000000000000000000000000000008152600401612a629190612e50565b60405180910390fd5b505b6040517f08c379a0000000000000000000000000000000000000000000000000000000008152600401612a9f90614bf3565b60405180910390fd5b63f23a6e6160e01b7bffffffffffffffffffffffffffffffffffffffffffffffffffffffff1916817bffffffffffffffffffffffffffffffffffffffffffffffffffffffff191614612b2f576040517f08c379a0000000000000000000000000000000000000000000000000000000008152600401612b2690614c85565b60405180910390fd5b505b505050505050565b60007f01ffc9a7000000000000000000000000000000000000000000000000000000007bffffffffffffffffffffffffffffffffffffffffffffffffffffffff1916827bffffffffffffffffffffffffffffffffffffffffffffffffffffffff1916149050919050565b6000808273ffffffffffffffffffffffffffffffffffffffff163b119050919050565b6000604051905090565b600080fd5b600080fd5b600073ffffffffffffffffffffffffffffffffffffffff82169050919050565b6000612c0582612bda565b9050919050565b612c1581612bfa565b8114612c2057600080fd5b50565b600081359050612c3281612c0c565b92915050565b6000819050919050565b612c4b81612c38565b8114612c5657600080fd5b50565b600081359050612c6881612c42565b92915050565b60008060408385031215612c8557612c84612bd0565b5b6000612c9385828601612c23565b9250506020612ca485828601612c59565b9150509250929050565b612cb781612c38565b82525050565b6000602082019050612cd26000830184612cae565b92915050565b60007fffffffff0000000000000000000000000000000000000000000000000000000082169050919050565b612d0d81612cd8565b8114612d1857600080fd5b50565b600081359050612d2a81612d04565b92915050565b600060208284031215612d4657612d45612bd0565b5b6000612d5484828501612d1b565b91505092915050565b60008115159050919050565b612d7281612d5d565b82525050565b6000602082019050612d8d6000830184612d69565b92915050565b600060208284031215612da957612da8612bd0565b5b6000612db784828501612c59565b91505092915050565b600081519050919050565b600082825260208201905092915050565b60005b83811015612dfa578082015181840152602081019050612ddf565b60008484015250505050565b6000601f19601f8301169050919050565b6000612e2282612dc0565b612e2c8185612dcb565b9350612e3c818560208601612ddc565b612e4581612e06565b840191505092915050565b60006020820190508181036000830152612e6a8184612e17565b905092915050565b612e7b81612d5d565b8114612e8657600080fd5b50565b600081359050612e9881612e72565b92915050565b60008060408385031215612eb557612eb4612bd0565b5b6000612ec385828601612e89565b9250506020612ed485828601612c59565b9150509250929050565b60008060408385031215612ef557612ef4612bd0565b5b6000612f0385828601612c59565b9250506020612f1485828601612c59565b9150509250929050565b612f2781612bfa565b82525050565b6000604082019050612f426000830185612f1e565b612f4f6020830184612cae565b9392505050565b600080fd5b7f4e487b7100000000000000000000000000000000000000000000000000000000600052604160045260246000fd5b612f9382612e06565b810181811067ffffffffffffffff82111715612fb257612fb1612f5b565b5b80604052505050565b6000612fc5612bc6565b9050612fd18282612f8a565b919050565b600067ffffffffffffffff821115612ff157612ff0612f5b565b5b602082029050602081019050919050565b600080fd5b600061301a61301584612fd6565b612fbb565b9050808382526020820190506020840283018581111561303d5761303c613002565b5b835b8181101561306657806130528882612c59565b84526020840193505060208101905061303f565b5050509392505050565b600082601f83011261308557613084612f56565b5b8135613095848260208601613007565b91505092915050565b600080fd5b600067ffffffffffffffff8211156130be576130bd612f5b565b5b6130c782612e06565b9050602081019050919050565b82818337600083830152505050565b60006130f66130f1846130a3565b612fbb565b9050828152602081018484840111156131125761311161309e565b5b61311d8482856130d4565b509392505050565b600082601f83011261313a57613139612f56565b5b813561314a8482602086016130e3565b91505092915050565b600080600080600060a0868803121561316f5761316e612bd0565b5b600061317d88828901612c23565b955050602061318e88828901612c23565b945050604086013567ffffffffffffffff8111156131af576131ae612bd5565b5b6131bb88828901613070565b935050606086013567ffffffffffffffff8111156131dc576131db612bd5565b5b6131e888828901613070565b925050608086013567ffffffffffffffff81111561320957613208612bd5565b5b61321588828901613125565b9150509295509295909350565b600080fd5b60008083601f84011261323d5761323c612f56565b5b8235905067ffffffffffffffff81111561325a57613259613222565b5b60208301915083600182028301111561327657613275613002565b5b9250929050565b6000806000806000806080878903121561329a57613299612bd0565b5b600087013567ffffffffffffffff8111156132b8576132b7612bd5565b5b6132c489828a01613227565b965096505060206132d789828a01612c59565b945050604087013567ffffffffffffffff8111156132f8576132f7612bd5565b5b61330489828a01613227565b9350935050606061331789828a01612c59565b9150509295509295509295565b600067ffffffffffffffff82111561333f5761333e612f5b565b5b602082029050602081019050919050565b600061336361335e84613324565b612fbb565b9050808382526020820190506020840283018581111561338657613385613002565b5b835b818110156133af578061339b8882612c23565b845260208401935050602081019050613388565b5050509392505050565b600082601f8301126133ce576133cd612f56565b5b81356133de848260208601613350565b91505092915050565b600080604083850312156133fe576133fd612bd0565b5b600083013567ffffffffffffffff81111561341c5761341b612bd5565b5b613428858286016133b9565b925050602083013567ffffffffffffffff81111561344957613448612bd5565b5b61345585828601613070565b9150509250929050565b600081519050919050565b600082825260208201905092915050565b6000819050602082019050919050565b61349481612c38565b82525050565b60006134a6838361348b565b60208301905092915050565b6000602082019050919050565b60006134ca8261345f565b6134d4818561346a565b93506134df8361347b565b8060005b838110156135105781516134f7888261349a565b9750613502836134b2565b9250506001810190506134e3565b5085935050505092915050565b6000602082019050818103600083015261353781846134bf565b905092915050565b60006bffffffffffffffffffffffff82169050919050565b6135608161353f565b82525050565b600060208201905061357b6000830184613557565b92915050565b7f4e487b7100000000000000000000000000000000000000000000000000000000600052602160045260246000fd5b600581106135c1576135c0613581565b5b50565b60008190506135d2826135b0565b919050565b60006135e2826135c4565b9050919050565b6135f2816135d7565b82525050565b600060e08201905061360d600083018a612cae565b61361a6020830189612f1e565b818103604083015261362c8188612e17565b905061363b6060830187612cae565b61364860808301866135e9565b81810360a083015261365a8185612e17565b905061366960c0830184612cae565b98975050505050505050565b60008060006040848603121561368e5761368d612bd0565b5b600061369c86828701612c59565b935050602084013567ffffffffffffffff8111156136bd576136bc612bd5565b5b6136c986828701613227565b92509250509250925092565b60006040820190506136ea6000830185612f1e565b81810360208301526136fc8184612e17565b90509392505050565b600060208201905061371a6000830184612f1e565b92915050565b6000806020838503121561373757613736612bd0565b5b600083013567ffffffffffffffff81111561375557613754612bd5565b5b61376185828601613227565b92509250509250929050565b6000806040838503121561378457613783612bd0565b5b600061379285828601612c23565b92505060206137a385828601612e89565b9150509250929050565b6137b68161353f565b81146137c157600080fd5b50565b6000813590506137d3816137ad565b92915050565b6000602082840312156137ef576137ee612bd0565b5b60006137fd848285016137c4565b91505092915050565b60008060006040848603121561381f5761381e612bd0565b5b600061382d86828701612c23565b935050602084013567ffffffffffffffff81111561384e5761384d612bd5565b5b61385a86828701613227565b92509250509250925092565b6000806040838503121561387d5761387c612bd0565b5b600061388b85828601612c23565b925050602061389c85828601612c23565b9150509250929050565b600080600080600060a086880312156138c2576138c1612bd0565b5b60006138d088828901612c23565b95505060206138e188828901612c23565b94505060406138f288828901612c59565b935050606061390388828901612c59565b925050608086013567ffffffffffffffff81111561392457613923612bd5565b5b61393088828901613125565b9150509295509295909350565b60006020828403121561395357613952612bd0565b5b600061396184828501612c23565b91505092915050565b7f455243313135353a2061646472657373207a65726f206973206e6f742061207660008201527f616c6964206f776e657200000000000000000000000000000000000000000000602082015250565b60006139c6602a83612dcb565b91506139d18261396a565b604082019050919050565b600060208201905081810360008301526139f5816139b9565b9050919050565b7f4e487b7100000000000000000000000000000000000000000000000000000000600052602260045260246000fd5b60006002820490506001821680613a4357607f821691505b602082108103613a5657613a556139fc565b5b50919050565b600081905092915050565b60008190508160005260206000209050919050565b60008154613a8981613a2b565b613a938186613a5c565b94506001821660008114613aae5760018114613ac357613af6565b60ff1983168652811515820286019350613af6565b613acc85613a67565b60005b83811015613aee57815481890152600182019150602081019050613acf565b838801955050505b50505092915050565b6000613b0a82612dc0565b613b148185613a5c565b9350613b24818560208601612ddc565b80840191505092915050565b6000613b3c8285613a7c565b9150613b488284613aff565b91508190509392505050565b7f6e667420646f65736e2774206578697374000000000000000000000000000000600082015250565b6000613b8a601183612dcb565b9150613b9582613b54565b602082019050919050565b60006020820190508181036000830152613bb981613b7d565b9050919050565b7f4e465420737461747573206973206e6f742070726f706f736564000000000000600082015250565b6000613bf6601a83612dcb565b9150613c0182613bc0565b602082019050919050565b60006020820190508181036000830152613c2581613be9565b9050919050565b6000819050919050565b600060ff82169050919050565b6000819050919050565b6000613c68613c63613c5e84613c2c565b613c43565b613c36565b9050919050565b613c7881613c4d565b82525050565b6000604082019050613c936000830185612cae565b613ca06020830184613c6f565b9392505050565b6000819050919050565b6000613ccc613cc7613cc284613ca7565b613c43565b613c36565b9050919050565b613cdc81613cb1565b82525050565b6000604082019050613cf76000830185612cae565b613d046020830184613cd3565b9392505050565b7f4e487b7100000000000000000000000000000000000000000000000000000000600052601160045260246000fd5b6000613d4582612c38565b9150613d5083612c38565b9250828202613d5e81612c38565b91508282048414831517613d7557613d74613d0b565b5b5092915050565b7f4e487b7100000000000000000000000000000000000000000000000000000000600052601260045260246000fd5b6000613db682612c38565b9150613dc183612c38565b925082613dd157613dd0613d7c565b5b828204905092915050565b7f455243313135353a2063616c6c6572206973206e6f7420746f6b656e206f776e60008201527f6572206f7220617070726f766564000000000000000000000000000000000000602082015250565b6000613e38602e83612dcb565b9150613e4382613ddc565b604082019050919050565b60006020820190508181036000830152613e6781613e2b565b9050919050565b60006020601f8301049050919050565b600082821b905092915050565b600060088302613ebb7fffffffffffffffffffffffffffffffffffffffffffffffffffffffffffffffff82613e7e565b613ec58683613e7e565b95508019841693508086168417925050509392505050565b6000613ef8613ef3613eee84612c38565b613c43565b612c38565b9050919050565b6000819050919050565b613f1283613edd565b613f26613f1e82613eff565b848454613e8b565b825550505050565b600090565b613f3b613f2e565b613f46818484613f09565b505050565b5b81811015613f6a57613f5f600082613f33565b600181019050613f4c565b5050565b601f821115613faf57613f8081613a67565b613f8984613e6e565b81016020851015613f98578190505b613fac613fa485613e6e565b830182613f4b565b50505b505050565b600082821c905092915050565b6000613fd260001984600802613fb4565b1980831691505092915050565b6000613feb8383613fc1565b9150826002028217905092915050565b61400482612dc0565b67ffffffffffffffff81111561401d5761401c612f5b565b5b6140278254613a2b565b614032828285613f6e565b600060209050601f8311600181146140655760008415614053578287015190505b61405d8582613fdf565b8655506140c5565b601f19841661407386613a67565b60005b8281101561409b57848901518255600182019150602085019450602081019050614076565b868310156140b857848901516140b4601f891682613fc1565b8355505b6001600288020188555050505b505050505050565b60006140d882612c38565b91507fffffffffffffffffffffffffffffffffffffffffffffffffffffffffffffffff820361410a57614109613d0b565b5b600182019050919050565b7f455243313135353a206163636f756e747320616e6420696473206c656e67746860008201527f206d69736d617463680000000000000000000000000000000000000000000000602082015250565b6000614171602983612dcb565b915061417c82614115565b604082019050919050565b600060208201905081810360008301526141a081614164565b9050919050565b7f4e487b7100000000000000000000000000000000000000000000000000000000600052603260045260246000fd5b7f6e6674207374617475732069736e277420616363657074656400000000000000600082015250565b600061420c601983612dcb565b9150614217826141d6565b602082019050919050565b6000602082019050818103600083015261423b816141ff565b9050919050565b7f6e6f7420746865206e66742070726f706f736572000000000000000000000000600082015250565b6000614278601483612dcb565b915061428382614242565b602082019050919050565b600060208201905081810360008301526142a78161426b565b9050919050565b6000819050919050565b60006142d36142ce6142c9846142ae565b613c43565b613c36565b9050919050565b6142e3816142b8565b82525050565b60006040820190506142fe6000830185612cae565b61430b60208301846142da565b9392505050565b600082905092915050565b6143278383614312565b67ffffffffffffffff8111156143405761433f612f5b565b5b61434a8254613a2b565b614355828285613f6e565b6000601f8311600181146143845760008415614372578287013590505b61437c8582613fdf565b8655506143e4565b601f19841661439286613a67565b60005b828110156143ba57848901358255600182019150602085019450602081019050614395565b868310156143d757848901356143d3601f891682613fc1565b8355505b6001600288020188555050505b50505050505050565b7f66656520746f6f20686967680000000000000000000000000000000000000000600082015250565b6000614423600c83612dcb565b915061442e826143ed565b602082019050919050565b6000602082019050818103600083015261445281614416565b9050919050565b7f4f776e61626c653a206e6577206f776e657220697320746865207a65726f206160008201527f6464726573730000000000000000000000000000000000000000000000000000602082015250565b60006144b5602683612dcb565b91506144c082614459565b604082019050919050565b600060208201905081810360008301526144e4816144a8565b9050919050565b7f4f776e61626c653a2063616c6c6572206973206e6f7420746865206f776e6572600082015250565b6000614521602083612dcb565b915061452c826144eb565b602082019050919050565b6000602082019050818103600083015261455081614514565b9050919050565b7f455243313135353a2069647320616e6420616d6f756e7473206c656e6774682060008201527f6d69736d61746368000000000000000000000000000000000000000000000000602082015250565b60006145b3602883612dcb565b91506145be82614557565b604082019050919050565b600060208201905081810360008301526145e2816145a6565b9050919050565b7f455243313135353a207472616e7366657220746f20746865207a65726f20616460008201527f6472657373000000000000000000000000000000000000000000000000000000602082015250565b6000614645602583612dcb565b9150614650826145e9565b604082019050919050565b6000602082019050818103600083015261467481614638565b9050919050565b7f455243313135353a20696e73756666696369656e742062616c616e636520666f60008201527f72207472616e7366657200000000000000000000000000000000000000000000602082015250565b60006146d7602a83612dcb565b91506146e28261467b565b604082019050919050565b60006020820190508181036000830152614706816146ca565b9050919050565b600061471882612c38565b915061472383612c38565b925082820190508082111561473b5761473a613d0b565b5b92915050565b6000604082019050818103600083015261475b81856134bf565b9050818103602083015261476f81846134bf565b90509392505050565b7f455243313135353a206d696e7420746f20746865207a65726f2061646472657360008201527f7300000000000000000000000000000000000000000000000000000000000000602082015250565b60006147d4602183612dcb565b91506147df82614778565b604082019050919050565b60006020820190508181036000830152614803816147c7565b9050919050565b600060408201905061481f6000830185612cae565b61482c6020830184612cae565b9392505050565b7f455243323938313a20726f79616c7479206665652077696c6c2065786365656460008201527f2073616c65507269636500000000000000000000000000000000000000000000602082015250565b600061488f602a83612dcb565b915061489a82614833565b604082019050919050565b600060208201905081810360008301526148be81614882565b9050919050565b7f455243323938313a20496e76616c696420706172616d65746572730000000000600082015250565b60006148fb601b83612dcb565b9150614906826148c5565b602082019050919050565b6000602082019050818103600083015261492a816148ee565b9050919050565b7f455243313135353a2073657474696e6720617070726f76616c2073746174757360008201527f20666f722073656c660000000000000000000000000000000000000000000000602082015250565b600061498d602983612dcb565b915061499882614931565b604082019050919050565b600060208201905081810360008301526149bc81614980565b9050919050565b600081519050919050565b600082825260208201905092915050565b60006149ea826149c3565b6149f481856149ce565b9350614a04818560208601612ddc565b614a0d81612e06565b840191505092915050565b600060a082019050614a2d6000830188612f1e565b614a3a6020830187612f1e565b8181036040830152614a4c81866134bf565b90508181036060830152614a6081856134bf565b90508181036080830152614a7481846149df565b90509695505050505050565b600081519050614a8f81612d04565b92915050565b600060208284031215614aab57614aaa612bd0565b5b6000614ab984828501614a80565b91505092915050565b60008160e01c9050919050565b600060033d1115614aee5760046000803e614aeb600051614ac2565b90505b90565b600060443d10614b7e57614b03612bc6565b60043d036004823e80513d602482011167ffffffffffffffff82111715614b2b575050614b7e565b808201805167ffffffffffffffff811115614b495750505050614b7e565b80602083010160043d038501811115614b66575050505050614b7e565b614b7582602001850186612f8a565b82955050505050505b90565b7f455243313135353a207472616e7366657220746f206e6f6e2d4552433131353560008201527f526563656976657220696d706c656d656e746572000000000000000000000000602082015250565b6000614bdd603483612dcb565b9150614be882614b81565b604082019050919050565b60006020820190508181036000830152614c0c81614bd0565b9050919050565b7f455243313135353a204552433131353552656365697665722072656a6563746560008201527f6420746f6b656e73000000000000000000000000000000000000000000000000602082015250565b6000614c6f602883612dcb565b9150614c7a82614c13565b604082019050919050565b60006020820190508181036000830152614c9e81614c62565b9050919050565b600060a082019050614cba6000830188612f1e565b614cc76020830187612f1e565b614cd46040830186612cae565b614ce16060830185612cae565b8181036080830152614cf381846149df565b9050969550505050505056fea26469706673582212200e753af7ba8d0eb91ce10d58f149cc93027c9c105309f9ef4faacf6b45f0a4db64736f6c63430008110033",
  "linkReferences": {},
  "deployedLinkReferences": {}
}