{
  "_format": "hh-sol-artifact-1",
  "contractName": "CollectorChain",
  "sourceName": "contracts/CollectorChain.sol",
  "abi": [
    {
      "inputs": [],
      "stateMutability": "nonpayable",
      "type": "constructor"
    },
    {
      "anonymous": false,
      "inputs": [
        {
          "indexed": true,
          "internalType": "address",
          "name": "account",
          "type": "address"
        },
        {
          "indexed": true,
          "internalType": "address",
          "name": "operator",
          "type": "address"
        },
        {
          "indexed": false,
          "internalType": "bool",
          "name": "approved",
          "type": "bool"
        }
      ],
      "name": "ApprovalForAll",
      "type": "event"
    },
    {
      "anonymous": false,
      "inputs": [
        {
          "indexed": true,
          "internalType": "address",
          "name": "previousOwner",
          "type": "address"
        },
        {
          "indexed": true,
          "internalType": "address",
          "name": "newOwner",
          "type": "address"
        }
      ],
      "name": "OwnershipTransferred",
      "type": "event"
    },
    {
      "anonymous": false,
      "inputs": [
        {
          "indexed": true,
          "internalType": "address",
          "name": "operator",
          "type": "address"
        },
        {
          "indexed": true,
          "internalType": "address",
          "name": "from",
          "type": "address"
        },
        {
          "indexed": true,
          "internalType": "address",
          "name": "to",
          "type": "address"
        },
        {
          "indexed": false,
          "internalType": "uint256[]",
          "name": "ids",
          "type": "uint256[]"
        },
        {
          "indexed": false,
          "internalType": "uint256[]",
          "name": "values",
          "type": "uint256[]"
        }
      ],
      "name": "TransferBatch",
      "type": "event"
    },
    {
      "anonymous": false,
      "inputs": [
        {
          "indexed": true,
          "internalType": "address",
          "name": "operator",
          "type": "address"
        },
        {
          "indexed": true,
          "internalType": "address",
          "name": "from",
          "type": "address"
        },
        {
          "indexed": true,
          "internalType": "address",
          "name": "to",
          "type": "address"
        },
        {
          "indexed": false,
          "internalType": "uint256",
          "name": "id",
          "type": "uint256"
        },
        {
          "indexed": false,
          "internalType": "uint256",
          "name": "value",
          "type": "uint256"
        }
      ],
      "name": "TransferSingle",
      "type": "event"
    },
    {
      "anonymous": false,
      "inputs": [
        {
          "indexed": false,
          "internalType": "string",
          "name": "value",
          "type": "string"
        },
        {
          "indexed": true,
          "internalType": "uint256",
          "name": "id",
          "type": "uint256"
        }
      ],
      "name": "URI",
      "type": "event"
    },
    {
      "anonymous": false,
      "inputs": [
        {
          "indexed": false,
          "internalType": "uint256",
          "name": "mintProposalId",
          "type": "uint256"
        }
      ],
      "name": "mintProposalCreationEvent",
      "type": "event"
    },
    {
      "anonymous": false,
      "inputs": [
        {
          "indexed": false,
          "internalType": "uint256",
          "name": "mintProposalId",
          "type": "uint256"
        },
        {
          "indexed": false,
          "internalType": "uint8",
          "name": "status",
          "type": "uint8"
        }
      ],
      "name": "mintProposalStatusUpdateEvent",
      "type": "event"
    },
    {
      "inputs": [],
      "name": "_baseFeeNumerator",
      "outputs": [
        {
          "internalType": "uint96",
          "name": "",
          "type": "uint96"
        }
      ],
      "stateMutability": "view",
      "type": "function"
    },
    {
      "inputs": [],
      "name": "_nftIdCounter",
      "outputs": [
        {
          "internalType": "uint256",
          "name": "",
          "type": "uint256"
        }
      ],
      "stateMutability": "view",
      "type": "function"
    },
    {
      "inputs": [],
      "name": "_stockerIdCounter",
      "outputs": [
        {
          "internalType": "uint256",
          "name": "",
          "type": "uint256"
        }
      ],
      "stateMutability": "view",
      "type": "function"
    },
    {
      "inputs": [
        {
          "internalType": "address",
          "name": "account",
          "type": "address"
        },
        {
          "internalType": "uint256",
          "name": "id",
          "type": "uint256"
        }
      ],
      "name": "balanceOf",
      "outputs": [
        {
          "internalType": "uint256",
          "name": "",
          "type": "uint256"
        }
      ],
      "stateMutability": "view",
      "type": "function"
    },
    {
      "inputs": [
        {
          "internalType": "address[]",
          "name": "accounts",
          "type": "address[]"
        },
        {
          "internalType": "uint256[]",
          "name": "ids",
          "type": "uint256[]"
        }
      ],
      "name": "balanceOfBatch",
      "outputs": [
        {
          "internalType": "uint256[]",
          "name": "",
          "type": "uint256[]"
        }
      ],
      "stateMutability": "view",
      "type": "function"
    },
    {
      "inputs": [],
      "name": "contractMetaDataURI",
      "outputs": [
        {
          "internalType": "string",
          "name": "",
          "type": "string"
        }
      ],
      "stateMutability": "view",
      "type": "function"
    },
    {
      "inputs": [],
      "name": "contractURI",
      "outputs": [
        {
          "internalType": "string",
          "name": "",
          "type": "string"
        }
      ],
      "stateMutability": "view",
      "type": "function"
    },
    {
      "inputs": [
        {
          "internalType": "string",
          "name": "_nftName",
          "type": "string"
        },
        {
          "internalType": "string",
          "name": "_objectImageURL",
          "type": "string"
        },
        {
          "internalType": "string",
          "name": "_authImageURL",
          "type": "string"
        },
        {
          "internalType": "string",
          "name": "_storageImageURL",
          "type": "string"
        },
        {
          "internalType": "uint256",
          "name": "_sharesQty",
          "type": "uint256"
        }
      ],
      "name": "createMintProposal",
      "outputs": [],
      "stateMutability": "nonpayable",
      "type": "function"
    },
    {
      "inputs": [
        {
          "internalType": "address",
          "name": "account",
          "type": "address"
        },
        {
          "internalType": "address",
          "name": "operator",
          "type": "address"
        }
      ],
      "name": "isApprovedForAll",
      "outputs": [
        {
          "internalType": "bool",
          "name": "",
          "type": "bool"
        }
      ],
      "stateMutability": "view",
      "type": "function"
    },
    {
      "inputs": [
        {
          "internalType": "uint256",
          "name": "",
          "type": "uint256"
        }
      ],
      "name": "isNftExist",
      "outputs": [
        {
          "internalType": "bool",
          "name": "",
          "type": "bool"
        }
      ],
      "stateMutability": "view",
      "type": "function"
    },
    {
      "inputs": [
        {
          "internalType": "uint256",
          "name": "_nftId",
          "type": "uint256"
        },
        {
          "internalType": "string",
          "name": "_nftURI",
          "type": "string"
        }
      ],
      "name": "mintNft",
      "outputs": [],
      "stateMutability": "nonpayable",
      "type": "function"
    },
    {
      "inputs": [
        {
          "internalType": "uint256",
          "name": "",
          "type": "uint256"
        }
      ],
      "name": "nftList",
      "outputs": [
        {
          "internalType": "uint256",
          "name": "nftId",
          "type": "uint256"
        },
        {
          "internalType": "address",
          "name": "minter",
          "type": "address"
        },
        {
          "internalType": "string",
          "name": "nftName",
          "type": "string"
        },
        {
          "internalType": "string",
          "name": "objectImageURL",
          "type": "string"
        },
        {
          "internalType": "string",
          "name": "authImageURL",
          "type": "string"
        },
        {
          "internalType": "string",
          "name": "storageImageURL",
          "type": "string"
        },
        {
          "internalType": "uint256",
          "name": "sharesQty",
          "type": "uint256"
        },
        {
          "internalType": "enum CollectorChain.Status",
          "name": "status",
          "type": "uint8"
        }
      ],
      "stateMutability": "view",
      "type": "function"
    },
    {
      "inputs": [],
      "name": "owner",
      "outputs": [
        {
          "internalType": "address",
          "name": "",
          "type": "address"
        }
      ],
      "stateMutability": "view",
      "type": "function"
    },
    {
      "inputs": [],
      "name": "renounceOwnership",
      "outputs": [],
      "stateMutability": "nonpayable",
      "type": "function"
    },
    {
      "inputs": [
        {
          "internalType": "uint256",
          "name": "_tokenId",
          "type": "uint256"
        },
        {
          "internalType": "uint256",
          "name": "_salePrice",
          "type": "uint256"
        }
      ],
      "name": "royaltyInfo",
      "outputs": [
        {
          "internalType": "address",
          "name": "",
          "type": "address"
        },
        {
          "internalType": "uint256",
          "name": "",
          "type": "uint256"
        }
      ],
      "stateMutability": "view",
      "type": "function"
    },
    {
      "inputs": [
        {
          "internalType": "address",
          "name": "from",
          "type": "address"
        },
        {
          "internalType": "address",
          "name": "to",
          "type": "address"
        },
        {
          "internalType": "uint256[]",
          "name": "ids",
          "type": "uint256[]"
        },
        {
          "internalType": "uint256[]",
          "name": "amounts",
          "type": "uint256[]"
        },
        {
          "internalType": "bytes",
          "name": "data",
          "type": "bytes"
        }
      ],
      "name": "safeBatchTransferFrom",
      "outputs": [],
      "stateMutability": "nonpayable",
      "type": "function"
    },
    {
      "inputs": [
        {
          "internalType": "address",
          "name": "from",
          "type": "address"
        },
        {
          "internalType": "address",
          "name": "to",
          "type": "address"
        },
        {
          "internalType": "uint256",
          "name": "id",
          "type": "uint256"
        },
        {
          "internalType": "uint256",
          "name": "amount",
          "type": "uint256"
        },
        {
          "internalType": "bytes",
          "name": "data",
          "type": "bytes"
        }
      ],
      "name": "safeTransferFrom",
      "outputs": [],
      "stateMutability": "nonpayable",
      "type": "function"
    },
    {
      "inputs": [
        {
          "internalType": "address",
          "name": "operator",
          "type": "address"
        },
        {
          "internalType": "bool",
          "name": "approved",
          "type": "bool"
        }
      ],
      "name": "setApprovalForAll",
      "outputs": [],
      "stateMutability": "nonpayable",
      "type": "function"
    },
    {
      "inputs": [
        {
          "internalType": "uint96",
          "name": "_fee",
          "type": "uint96"
        }
      ],
      "name": "setBaseFee",
      "outputs": [],
      "stateMutability": "nonpayable",
      "type": "function"
    },
    {
      "inputs": [
        {
          "internalType": "string",
          "name": "_contractURI",
          "type": "string"
        }
      ],
      "name": "setContractURI",
      "outputs": [],
      "stateMutability": "nonpayable",
      "type": "function"
    },
    {
      "inputs": [
        {
          "internalType": "bool",
          "name": "_vote",
          "type": "bool"
        },
        {
          "internalType": "uint256",
          "name": "_nftId",
          "type": "uint256"
        }
      ],
      "name": "setMintProposalStatus",
      "outputs": [],
      "stateMutability": "nonpayable",
      "type": "function"
    },
    {
      "inputs": [
        {
          "internalType": "bytes4",
          "name": "interfaceId",
          "type": "bytes4"
        }
      ],
      "name": "supportsInterface",
      "outputs": [
        {
          "internalType": "bool",
          "name": "",
          "type": "bool"
        }
      ],
      "stateMutability": "view",
      "type": "function"
    },
    {
      "inputs": [
        {
          "internalType": "address",
          "name": "newOwner",
          "type": "address"
        }
      ],
      "name": "transferOwnership",
      "outputs": [],
      "stateMutability": "nonpayable",
      "type": "function"
    },
    {
      "inputs": [
        {
          "internalType": "uint256",
          "name": "tokenId",
          "type": "uint256"
        }
      ],
      "name": "uri",
      "outputs": [
        {
          "internalType": "string",
          "name": "",
          "type": "string"
        }
      ],
      "stateMutability": "view",
      "type": "function"
    }
  ],
  "bytecode": "0x6080604052604051806020016040528060008152506003908162000024919062000452565b506101f4600a60006101000a8154816bffffffffffffffffffffffff02191690836bffffffffffffffffffffffff1602179055506040518060400160405280600681526020017f636f75636f750000000000000000000000000000000000000000000000000000815250600b90816200009e919062000452565b50348015620000ac57600080fd5b5060405180602001604052806000815250620000ce81620000f560201b60201c565b50620000ef620000e36200010a60201b60201c565b6200011260201b60201c565b62000539565b806002908162000106919062000452565b5050565b600033905090565b6000600760009054906101000a900473ffffffffffffffffffffffffffffffffffffffff16905081600760006101000a81548173ffffffffffffffffffffffffffffffffffffffff021916908373ffffffffffffffffffffffffffffffffffffffff1602179055508173ffffffffffffffffffffffffffffffffffffffff168173ffffffffffffffffffffffffffffffffffffffff167f8be0079c531659141344cd1fd0a4f28419497f9722a3daafe3b4186f6b6457e060405160405180910390a35050565b600081519050919050565b7f4e487b7100000000000000000000000000000000000000000000000000000000600052604160045260246000fd5b7f4e487b7100000000000000000000000000000000000000000000000000000000600052602260045260246000fd5b600060028204905060018216806200025a57607f821691505b60208210810362000270576200026f62000212565b5b50919050565b60008190508160005260206000209050919050565b60006020601f8301049050919050565b600082821b905092915050565b600060088302620002da7fffffffffffffffffffffffffffffffffffffffffffffffffffffffffffffffff826200029b565b620002e686836200029b565b95508019841693508086168417925050509392505050565b6000819050919050565b6000819050919050565b6000620003336200032d6200032784620002fe565b62000308565b620002fe565b9050919050565b6000819050919050565b6200034f8362000312565b620003676200035e826200033a565b848454620002a8565b825550505050565b600090565b6200037e6200036f565b6200038b81848462000344565b505050565b5b81811015620003b357620003a760008262000374565b60018101905062000391565b5050565b601f8211156200040257620003cc8162000276565b620003d7846200028b565b81016020851015620003e7578190505b620003ff620003f6856200028b565b83018262000390565b50505b505050565b600082821c905092915050565b6000620004276000198460080262000407565b1980831691505092915050565b600062000442838362000414565b9150826002028217905092915050565b6200045d82620001d8565b67ffffffffffffffff811115620004795762000478620001e3565b5b62000485825462000241565b62000492828285620003b7565b600060209050601f831160018114620004ca5760008415620004b5578287015190505b620004c1858262000434565b86555062000531565b601f198416620004da8662000276565b60005b828110156200050457848901518255600182019150602085019450602081019050620004dd565b8683101562000524578489015162000520601f89168262000414565b8355505b6001600288020188555050505b505050505050565b614ba980620005496000396000f3fe608060405234801561001057600080fd5b50600436106101575760003560e01c806376052e04116100c3578063be4f00cd1161007c578063be4f00cd146103cc578063e8a3d485146103e8578063e985e9c514610406578063f242432a14610436578063f2fde38b14610452578063f612c0de1461046e57610157565b806376052e041461031e578063891e3d701461033a5780638da5cb5b14610358578063938e3d7b14610376578063a22cb46514610392578063b5fd169c146103ae57610157565b80632eb2c2d6116101155780632eb2c2d6146102575780633ec98553146102735780634e1273f41461028f57806368f99bd8146102bf578063715018a6146102dd57806375bea166146102e757610157565b8062fdd58e1461015c57806301ffc9a71461018c5780630e89341c146101bc57806322e73a5d146101ec57806329a7670a146102085780632a55205a14610226575b600080fd5b61017660048036038101906101719190612b6c565b61049e565b6040516101839190612bbb565b60405180910390f35b6101a660048036038101906101a19190612c2e565b610566565b6040516101b39190612c76565b60405180910390f35b6101d660048036038101906101d19190612c91565b610578565b6040516101e39190612d4e565b60405180910390f35b61020660048036038101906102019190612d9c565b61065d565b005b610210610851565b60405161021d9190612d4e565b60405180910390f35b610240600480360381019061023b9190612ddc565b6108df565b60405161024e929190612e2b565b60405180910390f35b610271600480360381019061026c9190613051565b610ac9565b005b61028d6004803603810190610288919061317b565b610b6a565b005b6102a960048036038101906102a4919061333a565b610e6c565b6040516102b69190613470565b60405180910390f35b6102c7610f85565b6040516102d491906134b9565b60405180910390f35b6102e5610fa3565b005b61030160048036038101906102fc9190612c91565b610fb7565b60405161031598979695949392919061354b565b60405180910390f35b610338600480360381019061033391906135e5565b61124c565b005b610342611472565b60405161034f9190612bbb565b60405180910390f35b610360611478565b60405161036d9190613645565b60405180910390f35b610390600480360381019061038b9190613660565b6114a2565b005b6103ac60048036038101906103a791906136ad565b6114c0565b005b6103b66114d6565b6040516103c39190612bbb565b60405180910390f35b6103e660048036038101906103e19190613719565b6114dc565b005b6103f061156b565b6040516103fd9190612d4e565b60405180910390f35b610420600480360381019061041b9190613746565b6115fd565b60405161042d9190612c76565b60405180910390f35b610450600480360381019061044b9190613786565b611691565b005b61046c6004803603810190610467919061381d565b611732565b005b61048860048036038101906104839190612c91565b6117b5565b6040516104959190612c76565b60405180910390f35b60008073ffffffffffffffffffffffffffffffffffffffff168373ffffffffffffffffffffffffffffffffffffffff160361050e576040517f08c379a0000000000000000000000000000000000000000000000000000000008152600401610505906138bc565b60405180910390fd5b60008083815260200190815260200160002060008473ffffffffffffffffffffffffffffffffffffffff1673ffffffffffffffffffffffffffffffffffffffff16815260200190815260200160002054905092915050565b6000610571826117d5565b9050919050565b6060600060046000848152602001908152602001600020805461059a9061390b565b80601f01602080910402602001604051908101604052809291908181526020018280546105c69061390b565b80156106135780601f106105e857610100808354040283529160200191610613565b820191906000526020600020905b8154815290600101906020018083116105f657829003601f168201915b5050505050905060008151116106315761062c8361184f565b610655565b600381604051602001610645929190613a10565b6040516020818303038152906040525b915050919050565b6106656118e3565b600d600082815260200190815260200160002060009054906101000a900460ff166106c5576040517f08c379a00000000000000000000000000000000000000000000000000000000081526004016106bc90613a80565b60405180910390fd5b600060048111156106d9576106d86134d4565b5b600c600083815260200190815260200160002060070160009054906101000a900460ff16600481111561070f5761070e6134d4565b5b1461074f576040517f08c379a000000000000000000000000000000000000000000000000000000000815260040161074690613aec565b60405180910390fd5b81156107d3576001600c600083815260200190815260200160002060070160006101000a81548160ff0219169083600481111561078f5761078e6134d4565b5b02179055507f3d3ee96f2bb6e9f1ae3eb4b2e70560b1afb5d141055e91707a654773659ffd798160016040516107c6929190613b5e565b60405180910390a161084d565b6002600c600083815260200190815260200160002060070160006101000a81548160ff0219169083600481111561080d5761080c6134d4565b5b02179055507f3d3ee96f2bb6e9f1ae3eb4b2e70560b1afb5d141055e91707a654773659ffd79816002604051610844929190613bc2565b60405180910390a15b5050565b600b805461085e9061390b565b80601f016020809104026020016040519081016040528092919081815260200182805461088a9061390b565b80156108d75780601f106108ac576101008083540402835291602001916108d7565b820191906000526020600020905b8154815290600101906020018083116108ba57829003601f168201915b505050505081565b6000806000600660008681526020019081526020016000206040518060400160405290816000820160009054906101000a900473ffffffffffffffffffffffffffffffffffffffff1673ffffffffffffffffffffffffffffffffffffffff1673ffffffffffffffffffffffffffffffffffffffff1681526020016000820160149054906101000a90046bffffffffffffffffffffffff166bffffffffffffffffffffffff166bffffffffffffffffffffffff16815250509050600073ffffffffffffffffffffffffffffffffffffffff16816000015173ffffffffffffffffffffffffffffffffffffffff1603610a745760056040518060400160405290816000820160009054906101000a900473ffffffffffffffffffffffffffffffffffffffff1673ffffffffffffffffffffffffffffffffffffffff1673ffffffffffffffffffffffffffffffffffffffff1681526020016000820160149054906101000a90046bffffffffffffffffffffffff166bffffffffffffffffffffffff166bffffffffffffffffffffffff168152505090505b6000610a7e611961565b6bffffffffffffffffffffffff1682602001516bffffffffffffffffffffffff1686610aaa9190613c1a565b610ab49190613c8b565b90508160000151819350935050509250929050565b610ad161196b565b73ffffffffffffffffffffffffffffffffffffffff168573ffffffffffffffffffffffffffffffffffffffff161480610b175750610b1685610b1161196b565b6115fd565b5b610b56576040517f08c379a0000000000000000000000000000000000000000000000000000000008152600401610b4d90613d2e565b60405180910390fd5b610b638585858585611973565b5050505050565b6000600854905060006040518061010001604052808381526020013373ffffffffffffffffffffffffffffffffffffffff1681526020018c8c8080601f016020809104026020016040519081016040528093929190818152602001838380828437600081840152601f19601f8201169050808301925050505050505081526020018a8a8080601f016020809104026020016040519081016040528093929190818152602001838380828437600081840152601f19601f82011690508083019250505050505050815260200188888080601f016020809104026020016040519081016040528093929190818152602001838380828437600081840152601f19601f82011690508083019250505050505050815260200186868080601f016020809104026020016040519081016040528093929190818152602001838380828437600081840152601f19601f82011690508083019250505050505050815260200184815260200160006004811115610ce357610ce26134d4565b5b815250905080600c60008481526020019081526020016000206000820151816000015560208201518160010160006101000a81548173ffffffffffffffffffffffffffffffffffffffff021916908373ffffffffffffffffffffffffffffffffffffffff1602179055506040820151816002019081610d629190613edb565b506060820151816003019081610d789190613edb565b506080820151816004019081610d8e9190613edb565b5060a0820151816005019081610da49190613edb565b5060c0820151816006015560e08201518160070160006101000a81548160ff02191690836004811115610dda57610dd96134d4565b5b02179055509050506001600d600084815260200190815260200160002060006101000a81548160ff0219169083151502179055507fa34cb97999ecd0f8226bfafb1308337aa1070792f2ffe98893ca3cd24aeb86d4600854604051610e3f9190612bbb565b60405180910390a160086000815480929190610e5a90613fad565b91905055505050505050505050505050565b60608151835114610eb2576040517f08c379a0000000000000000000000000000000000000000000000000000000008152600401610ea990614067565b60405180910390fd5b6000835167ffffffffffffffff811115610ecf57610ece612e59565b5b604051908082528060200260200182016040528015610efd5781602001602082028036833780820191505090505b50905060005b8451811015610f7a57610f4a858281518110610f2257610f21614087565b5b6020026020010151858381518110610f3d57610f3c614087565b5b602002602001015161049e565b828281518110610f5d57610f5c614087565b5b60200260200101818152505080610f7390613fad565b9050610f03565b508091505092915050565b600a60009054906101000a90046bffffffffffffffffffffffff1681565b610fab6118e3565b610fb56000611c94565b565b600c6020528060005260406000206000915090508060000154908060010160009054906101000a900473ffffffffffffffffffffffffffffffffffffffff16908060020180546110069061390b565b80601f01602080910402602001604051908101604052809291908181526020018280546110329061390b565b801561107f5780601f106110545761010080835404028352916020019161107f565b820191906000526020600020905b81548152906001019060200180831161106257829003601f168201915b5050505050908060030180546110949061390b565b80601f01602080910402602001604051908101604052809291908181526020018280546110c09061390b565b801561110d5780601f106110e25761010080835404028352916020019161110d565b820191906000526020600020905b8154815290600101906020018083116110f057829003601f168201915b5050505050908060040180546111229061390b565b80601f016020809104026020016040519081016040528092919081815260200182805461114e9061390b565b801561119b5780601f106111705761010080835404028352916020019161119b565b820191906000526020600020905b81548152906001019060200180831161117e57829003601f168201915b5050505050908060050180546111b09061390b565b80601f01602080910402602001604051908101604052809291908181526020018280546111dc9061390b565b80156112295780601f106111fe57610100808354040283529160200191611229565b820191906000526020600020905b81548152906001019060200180831161120c57829003601f168201915b5050505050908060060154908060070160009054906101000a900460ff16905088565b6112546118e3565b60016004811115611268576112676134d4565b5b600c600085815260200190815260200160002060070160009054906101000a900460ff16600481111561129e5761129d6134d4565b5b146112de576040517f08c379a00000000000000000000000000000000000000000000000000000000081526004016112d590614102565b60405180910390fd5b6000600c600085815260200190815260200160002060060154905061134a600c600086815260200190815260200160002060010160009054906101000a900473ffffffffffffffffffffffffffffffffffffffff16858360405180602001604052806000815250611d5a565b6113988484848080601f016020809104026020016040519081016040528093929190818152602001838380828437600081840152601f19601f82011690508083019250505050505050611f0a565b6113f384600c600087815260200190815260200160002060010160009054906101000a900473ffffffffffffffffffffffffffffffffffffffff16600a60009054906101000a90046bffffffffffffffffffffffff16611f6f565b6003600c600086815260200190815260200160002060070160006101000a81548160ff0219169083600481111561142d5761142c6134d4565b5b02179055507f3d3ee96f2bb6e9f1ae3eb4b2e70560b1afb5d141055e91707a654773659ffd7984600360405161146492919061415d565b60405180910390a150505050565b60095481565b6000600760009054906101000a900473ffffffffffffffffffffffffffffffffffffffff16905090565b6114aa6118e3565b8181600b91826114bb929190614191565b505050565b6114d26114cb61196b565b8383612116565b5050565b60085481565b6114e46118e3565b612710816bffffffffffffffffffffffff161115611537576040517f08c379a000000000000000000000000000000000000000000000000000000000815260040161152e906142ad565b60405180910390fd5b80600a60006101000a8154816bffffffffffffffffffffffff02191690836bffffffffffffffffffffffff16021790555050565b6060600b805461157a9061390b565b80601f01602080910402602001604051908101604052809291908181526020018280546115a69061390b565b80156115f35780601f106115c8576101008083540402835291602001916115f3565b820191906000526020600020905b8154815290600101906020018083116115d657829003601f168201915b5050505050905090565b6000600160008473ffffffffffffffffffffffffffffffffffffffff1673ffffffffffffffffffffffffffffffffffffffff16815260200190815260200160002060008373ffffffffffffffffffffffffffffffffffffffff1673ffffffffffffffffffffffffffffffffffffffff16815260200190815260200160002060009054906101000a900460ff16905092915050565b61169961196b565b73ffffffffffffffffffffffffffffffffffffffff168573ffffffffffffffffffffffffffffffffffffffff1614806116df57506116de856116d961196b565b6115fd565b5b61171e576040517f08c379a000000000000000000000000000000000000000000000000000000000815260040161171590613d2e565b60405180910390fd5b61172b8585858585612282565b5050505050565b61173a6118e3565b600073ffffffffffffffffffffffffffffffffffffffff168173ffffffffffffffffffffffffffffffffffffffff16036117a9576040517f08c379a00000000000000000000000000000000000000000000000000000000081526004016117a09061433f565b60405180910390fd5b6117b281611c94565b50565b600d6020528060005260406000206000915054906101000a900460ff1681565b60007f2a55205a000000000000000000000000000000000000000000000000000000007bffffffffffffffffffffffffffffffffffffffffffffffffffffffff1916827bffffffffffffffffffffffffffffffffffffffffffffffffffffffff1916148061184857506118478261251d565b5b9050919050565b60606002805461185e9061390b565b80601f016020809104026020016040519081016040528092919081815260200182805461188a9061390b565b80156118d75780601f106118ac576101008083540402835291602001916118d7565b820191906000526020600020905b8154815290600101906020018083116118ba57829003601f168201915b50505050509050919050565b6118eb61196b565b73ffffffffffffffffffffffffffffffffffffffff16611909611478565b73ffffffffffffffffffffffffffffffffffffffff161461195f576040517f08c379a0000000000000000000000000000000000000000000000000000000008152600401611956906143ab565b60405180910390fd5b565b6000612710905090565b600033905090565b81518351146119b7576040517f08c379a00000000000000000000000000000000000000000000000000000000081526004016119ae9061443d565b60405180910390fd5b600073ffffffffffffffffffffffffffffffffffffffff168473ffffffffffffffffffffffffffffffffffffffff1603611a26576040517f08c379a0000000000000000000000000000000000000000000000000000000008152600401611a1d906144cf565b60405180910390fd5b6000611a3061196b565b9050611a408187878787876125ff565b60005b8451811015611bf1576000858281518110611a6157611a60614087565b5b602002602001015190506000858381518110611a8057611a7f614087565b5b60200260200101519050600080600084815260200190815260200160002060008b73ffffffffffffffffffffffffffffffffffffffff1673ffffffffffffffffffffffffffffffffffffffff16815260200190815260200160002054905081811015611b21576040517f08c379a0000000000000000000000000000000000000000000000000000000008152600401611b1890614561565b60405180910390fd5b81810360008085815260200190815260200160002060008c73ffffffffffffffffffffffffffffffffffffffff1673ffffffffffffffffffffffffffffffffffffffff168152602001908152602001600020819055508160008085815260200190815260200160002060008b73ffffffffffffffffffffffffffffffffffffffff1673ffffffffffffffffffffffffffffffffffffffff1681526020019081526020016000206000828254611bd69190614581565b9250508190555050505080611bea90613fad565b9050611a43565b508473ffffffffffffffffffffffffffffffffffffffff168673ffffffffffffffffffffffffffffffffffffffff168273ffffffffffffffffffffffffffffffffffffffff167f4a39dc06d4c0dbc64b70af90fd698a233a518aa5d07e595d983b8c0526c8f7fb8787604051611c689291906145b5565b60405180910390a4611c7e818787878787612607565b611c8c81878787878761260f565b505050505050565b6000600760009054906101000a900473ffffffffffffffffffffffffffffffffffffffff16905081600760006101000a81548173ffffffffffffffffffffffffffffffffffffffff021916908373ffffffffffffffffffffffffffffffffffffffff1602179055508173ffffffffffffffffffffffffffffffffffffffff168173ffffffffffffffffffffffffffffffffffffffff167f8be0079c531659141344cd1fd0a4f28419497f9722a3daafe3b4186f6b6457e060405160405180910390a35050565b600073ffffffffffffffffffffffffffffffffffffffff168473ffffffffffffffffffffffffffffffffffffffff1603611dc9576040517f08c379a0000000000000000000000000000000000000000000000000000000008152600401611dc09061465e565b60405180910390fd5b6000611dd361196b565b90506000611de0856127e6565b90506000611ded856127e6565b9050611dfe836000898585896125ff565b8460008088815260200190815260200160002060008973ffffffffffffffffffffffffffffffffffffffff1673ffffffffffffffffffffffffffffffffffffffff1681526020019081526020016000206000828254611e5d9190614581565b925050819055508673ffffffffffffffffffffffffffffffffffffffff16600073ffffffffffffffffffffffffffffffffffffffff168473ffffffffffffffffffffffffffffffffffffffff167fc3d58168c5ae7397731d063d5bbf3d657854427343f4c083240f7aacaa2d0f628989604051611edb92919061467e565b60405180910390a4611ef283600089858589612607565b611f0183600089898989612860565b50505050505050565b80600460008481526020019081526020016000209081611f2a9190613edb565b50817f6bb7ff708619ba0610cba295a58592e0451dee2622938c8755667688daf3529b611f5684610578565b604051611f639190612d4e565b60405180910390a25050565b611f77611961565b6bffffffffffffffffffffffff16816bffffffffffffffffffffffff161115611fd5576040517f08c379a0000000000000000000000000000000000000000000000000000000008152600401611fcc90614719565b60405180910390fd5b600073ffffffffffffffffffffffffffffffffffffffff168273ffffffffffffffffffffffffffffffffffffffff1603612044576040517f08c379a000000000000000000000000000000000000000000000000000000000815260040161203b90614785565b60405180910390fd5b60405180604001604052808373ffffffffffffffffffffffffffffffffffffffff168152602001826bffffffffffffffffffffffff168152506006600085815260200190815260200160002060008201518160000160006101000a81548173ffffffffffffffffffffffffffffffffffffffff021916908373ffffffffffffffffffffffffffffffffffffffff16021790555060208201518160000160146101000a8154816bffffffffffffffffffffffff02191690836bffffffffffffffffffffffff160217905550905050505050565b8173ffffffffffffffffffffffffffffffffffffffff168373ffffffffffffffffffffffffffffffffffffffff1603612184576040517f08c379a000000000000000000000000000000000000000000000000000000000815260040161217b90614817565b60405180910390fd5b80600160008573ffffffffffffffffffffffffffffffffffffffff1673ffffffffffffffffffffffffffffffffffffffff16815260200190815260200160002060008473ffffffffffffffffffffffffffffffffffffffff1673ffffffffffffffffffffffffffffffffffffffff16815260200190815260200160002060006101000a81548160ff0219169083151502179055508173ffffffffffffffffffffffffffffffffffffffff168373ffffffffffffffffffffffffffffffffffffffff167f17307eab39ab6107e8899845ad3d59bd9653f200f220920489ca2b5937696c31836040516122759190612c76565b60405180910390a3505050565b600073ffffffffffffffffffffffffffffffffffffffff168473ffffffffffffffffffffffffffffffffffffffff16036122f1576040517f08c379a00000000000000000000000000000000000000000000000000000000081526004016122e8906144cf565b60405180910390fd5b60006122fb61196b565b90506000612308856127e6565b90506000612315856127e6565b90506123258389898585896125ff565b600080600088815260200190815260200160002060008a73ffffffffffffffffffffffffffffffffffffffff1673ffffffffffffffffffffffffffffffffffffffff168152602001908152602001600020549050858110156123bc576040517f08c379a00000000000000000000000000000000000000000000000000000000081526004016123b390614561565b60405180910390fd5b85810360008089815260200190815260200160002060008b73ffffffffffffffffffffffffffffffffffffffff1673ffffffffffffffffffffffffffffffffffffffff168152602001908152602001600020819055508560008089815260200190815260200160002060008a73ffffffffffffffffffffffffffffffffffffffff1673ffffffffffffffffffffffffffffffffffffffff16815260200190815260200160002060008282546124719190614581565b925050819055508773ffffffffffffffffffffffffffffffffffffffff168973ffffffffffffffffffffffffffffffffffffffff168573ffffffffffffffffffffffffffffffffffffffff167fc3d58168c5ae7397731d063d5bbf3d657854427343f4c083240f7aacaa2d0f628a8a6040516124ee92919061467e565b60405180910390a4612504848a8a86868a612607565b612512848a8a8a8a8a612860565b505050505050505050565b60007fd9b67a26000000000000000000000000000000000000000000000000000000007bffffffffffffffffffffffffffffffffffffffffffffffffffffffff1916827bffffffffffffffffffffffffffffffffffffffffffffffffffffffff191614806125e857507f0e89341c000000000000000000000000000000000000000000000000000000007bffffffffffffffffffffffffffffffffffffffffffffffffffffffff1916827bffffffffffffffffffffffffffffffffffffffffffffffffffffffff1916145b806125f857506125f782612a37565b5b9050919050565b505050505050565b505050505050565b61262e8473ffffffffffffffffffffffffffffffffffffffff16612aa1565b156127de578373ffffffffffffffffffffffffffffffffffffffff1663bc197c8187878686866040518663ffffffff1660e01b815260040161267495949392919061488c565b6020604051808303816000875af19250505080156126b057506040513d601f19601f820116820180604052508101906126ad9190614909565b60015b612755576126bc614943565b806308c379a00361271857506126d0614965565b806126db575061271a565b806040517f08c379a000000000000000000000000000000000000000000000000000000000815260040161270f9190612d4e565b60405180910390fd5b505b6040517f08c379a000000000000000000000000000000000000000000000000000000000815260040161274c90614a67565b60405180910390fd5b63bc197c8160e01b7bffffffffffffffffffffffffffffffffffffffffffffffffffffffff1916817bffffffffffffffffffffffffffffffffffffffffffffffffffffffff1916146127dc576040517f08c379a00000000000000000000000000000000000000000000000000000000081526004016127d390614af9565b60405180910390fd5b505b505050505050565b60606000600167ffffffffffffffff81111561280557612804612e59565b5b6040519080825280602002602001820160405280156128335781602001602082028036833780820191505090505b509050828160008151811061284b5761284a614087565b5b60200260200101818152505080915050919050565b61287f8473ffffffffffffffffffffffffffffffffffffffff16612aa1565b15612a2f578373ffffffffffffffffffffffffffffffffffffffff1663f23a6e6187878686866040518663ffffffff1660e01b81526004016128c5959493929190614b19565b6020604051808303816000875af192505050801561290157506040513d601f19601f820116820180604052508101906128fe9190614909565b60015b6129a65761290d614943565b806308c379a0036129695750612921614965565b8061292c575061296b565b806040517f08c379a00000000000000000000000000000000000000000000000000000000081526004016129609190612d4e565b60405180910390fd5b505b6040517f08c379a000000000000000000000000000000000000000000000000000000000815260040161299d90614a67565b60405180910390fd5b63f23a6e6160e01b7bffffffffffffffffffffffffffffffffffffffffffffffffffffffff1916817bffffffffffffffffffffffffffffffffffffffffffffffffffffffff191614612a2d576040517f08c379a0000000000000000000000000000000000000000000000000000000008152600401612a2490614af9565b60405180910390fd5b505b505050505050565b60007f01ffc9a7000000000000000000000000000000000000000000000000000000007bffffffffffffffffffffffffffffffffffffffffffffffffffffffff1916827bffffffffffffffffffffffffffffffffffffffffffffffffffffffff1916149050919050565b6000808273ffffffffffffffffffffffffffffffffffffffff163b119050919050565b6000604051905090565b600080fd5b600080fd5b600073ffffffffffffffffffffffffffffffffffffffff82169050919050565b6000612b0382612ad8565b9050919050565b612b1381612af8565b8114612b1e57600080fd5b50565b600081359050612b3081612b0a565b92915050565b6000819050919050565b612b4981612b36565b8114612b5457600080fd5b50565b600081359050612b6681612b40565b92915050565b60008060408385031215612b8357612b82612ace565b5b6000612b9185828601612b21565b9250506020612ba285828601612b57565b9150509250929050565b612bb581612b36565b82525050565b6000602082019050612bd06000830184612bac565b92915050565b60007fffffffff0000000000000000000000000000000000000000000000000000000082169050919050565b612c0b81612bd6565b8114612c1657600080fd5b50565b600081359050612c2881612c02565b92915050565b600060208284031215612c4457612c43612ace565b5b6000612c5284828501612c19565b91505092915050565b60008115159050919050565b612c7081612c5b565b82525050565b6000602082019050612c8b6000830184612c67565b92915050565b600060208284031215612ca757612ca6612ace565b5b6000612cb584828501612b57565b91505092915050565b600081519050919050565b600082825260208201905092915050565b60005b83811015612cf8578082015181840152602081019050612cdd565b60008484015250505050565b6000601f19601f8301169050919050565b6000612d2082612cbe565b612d2a8185612cc9565b9350612d3a818560208601612cda565b612d4381612d04565b840191505092915050565b60006020820190508181036000830152612d688184612d15565b905092915050565b612d7981612c5b565b8114612d8457600080fd5b50565b600081359050612d9681612d70565b92915050565b60008060408385031215612db357612db2612ace565b5b6000612dc185828601612d87565b9250506020612dd285828601612b57565b9150509250929050565b60008060408385031215612df357612df2612ace565b5b6000612e0185828601612b57565b9250506020612e1285828601612b57565b9150509250929050565b612e2581612af8565b82525050565b6000604082019050612e406000830185612e1c565b612e4d6020830184612bac565b9392505050565b600080fd5b7f4e487b7100000000000000000000000000000000000000000000000000000000600052604160045260246000fd5b612e9182612d04565b810181811067ffffffffffffffff82111715612eb057612eaf612e59565b5b80604052505050565b6000612ec3612ac4565b9050612ecf8282612e88565b919050565b600067ffffffffffffffff821115612eef57612eee612e59565b5b602082029050602081019050919050565b600080fd5b6000612f18612f1384612ed4565b612eb9565b90508083825260208201905060208402830185811115612f3b57612f3a612f00565b5b835b81811015612f645780612f508882612b57565b845260208401935050602081019050612f3d565b5050509392505050565b600082601f830112612f8357612f82612e54565b5b8135612f93848260208601612f05565b91505092915050565b600080fd5b600067ffffffffffffffff821115612fbc57612fbb612e59565b5b612fc582612d04565b9050602081019050919050565b82818337600083830152505050565b6000612ff4612fef84612fa1565b612eb9565b9050828152602081018484840111156130105761300f612f9c565b5b61301b848285612fd2565b509392505050565b600082601f83011261303857613037612e54565b5b8135613048848260208601612fe1565b91505092915050565b600080600080600060a0868803121561306d5761306c612ace565b5b600061307b88828901612b21565b955050602061308c88828901612b21565b945050604086013567ffffffffffffffff8111156130ad576130ac612ad3565b5b6130b988828901612f6e565b935050606086013567ffffffffffffffff8111156130da576130d9612ad3565b5b6130e688828901612f6e565b925050608086013567ffffffffffffffff81111561310757613106612ad3565b5b61311388828901613023565b9150509295509295909350565b600080fd5b60008083601f84011261313b5761313a612e54565b5b8235905067ffffffffffffffff81111561315857613157613120565b5b60208301915083600182028301111561317457613173612f00565b5b9250929050565b600080600080600080600080600060a08a8c03121561319d5761319c612ace565b5b60008a013567ffffffffffffffff8111156131bb576131ba612ad3565b5b6131c78c828d01613125565b995099505060208a013567ffffffffffffffff8111156131ea576131e9612ad3565b5b6131f68c828d01613125565b975097505060408a013567ffffffffffffffff81111561321957613218612ad3565b5b6132258c828d01613125565b955095505060608a013567ffffffffffffffff81111561324857613247612ad3565b5b6132548c828d01613125565b935093505060806132678c828d01612b57565b9150509295985092959850929598565b600067ffffffffffffffff82111561329257613291612e59565b5b602082029050602081019050919050565b60006132b66132b184613277565b612eb9565b905080838252602082019050602084028301858111156132d9576132d8612f00565b5b835b8181101561330257806132ee8882612b21565b8452602084019350506020810190506132db565b5050509392505050565b600082601f83011261332157613320612e54565b5b81356133318482602086016132a3565b91505092915050565b6000806040838503121561335157613350612ace565b5b600083013567ffffffffffffffff81111561336f5761336e612ad3565b5b61337b8582860161330c565b925050602083013567ffffffffffffffff81111561339c5761339b612ad3565b5b6133a885828601612f6e565b9150509250929050565b600081519050919050565b600082825260208201905092915050565b6000819050602082019050919050565b6133e781612b36565b82525050565b60006133f983836133de565b60208301905092915050565b6000602082019050919050565b600061341d826133b2565b61342781856133bd565b9350613432836133ce565b8060005b8381101561346357815161344a88826133ed565b975061345583613405565b925050600181019050613436565b5085935050505092915050565b6000602082019050818103600083015261348a8184613412565b905092915050565b60006bffffffffffffffffffffffff82169050919050565b6134b381613492565b82525050565b60006020820190506134ce60008301846134aa565b92915050565b7f4e487b7100000000000000000000000000000000000000000000000000000000600052602160045260246000fd5b60058110613514576135136134d4565b5b50565b600081905061352582613503565b919050565b600061353582613517565b9050919050565b6135458161352a565b82525050565b600061010082019050613561600083018b612bac565b61356e602083018a612e1c565b81810360408301526135808189612d15565b905081810360608301526135948188612d15565b905081810360808301526135a88187612d15565b905081810360a08301526135bc8186612d15565b90506135cb60c0830185612bac565b6135d860e083018461353c565b9998505050505050505050565b6000806000604084860312156135fe576135fd612ace565b5b600061360c86828701612b57565b935050602084013567ffffffffffffffff81111561362d5761362c612ad3565b5b61363986828701613125565b92509250509250925092565b600060208201905061365a6000830184612e1c565b92915050565b6000806020838503121561367757613676612ace565b5b600083013567ffffffffffffffff81111561369557613694612ad3565b5b6136a185828601613125565b92509250509250929050565b600080604083850312156136c4576136c3612ace565b5b60006136d285828601612b21565b92505060206136e385828601612d87565b9150509250929050565b6136f681613492565b811461370157600080fd5b50565b600081359050613713816136ed565b92915050565b60006020828403121561372f5761372e612ace565b5b600061373d84828501613704565b91505092915050565b6000806040838503121561375d5761375c612ace565b5b600061376b85828601612b21565b925050602061377c85828601612b21565b9150509250929050565b600080600080600060a086880312156137a2576137a1612ace565b5b60006137b088828901612b21565b95505060206137c188828901612b21565b94505060406137d288828901612b57565b93505060606137e388828901612b57565b925050608086013567ffffffffffffffff81111561380457613803612ad3565b5b61381088828901613023565b9150509295509295909350565b60006020828403121561383357613832612ace565b5b600061384184828501612b21565b91505092915050565b7f455243313135353a2061646472657373207a65726f206973206e6f742061207660008201527f616c6964206f776e657200000000000000000000000000000000000000000000602082015250565b60006138a6602a83612cc9565b91506138b18261384a565b604082019050919050565b600060208201905081810360008301526138d581613899565b9050919050565b7f4e487b7100000000000000000000000000000000000000000000000000000000600052602260045260246000fd5b6000600282049050600182168061392357607f821691505b602082108103613936576139356138dc565b5b50919050565b600081905092915050565b60008190508160005260206000209050919050565b600081546139698161390b565b613973818661393c565b9450600182166000811461398e57600181146139a3576139d6565b60ff19831686528115158202860193506139d6565b6139ac85613947565b60005b838110156139ce578154818901526001820191506020810190506139af565b838801955050505b50505092915050565b60006139ea82612cbe565b6139f4818561393c565b9350613a04818560208601612cda565b80840191505092915050565b6000613a1c828561395c565b9150613a2882846139df565b91508190509392505050565b7f6e667420646f65736e2774206578697374000000000000000000000000000000600082015250565b6000613a6a601183612cc9565b9150613a7582613a34565b602082019050919050565b60006020820190508181036000830152613a9981613a5d565b9050919050565b7f4e465420737461747573206973206e6f742070726f706f736564000000000000600082015250565b6000613ad6601a83612cc9565b9150613ae182613aa0565b602082019050919050565b60006020820190508181036000830152613b0581613ac9565b9050919050565b6000819050919050565b600060ff82169050919050565b6000819050919050565b6000613b48613b43613b3e84613b0c565b613b23565b613b16565b9050919050565b613b5881613b2d565b82525050565b6000604082019050613b736000830185612bac565b613b806020830184613b4f565b9392505050565b6000819050919050565b6000613bac613ba7613ba284613b87565b613b23565b613b16565b9050919050565b613bbc81613b91565b82525050565b6000604082019050613bd76000830185612bac565b613be46020830184613bb3565b9392505050565b7f4e487b7100000000000000000000000000000000000000000000000000000000600052601160045260246000fd5b6000613c2582612b36565b9150613c3083612b36565b9250828202613c3e81612b36565b91508282048414831517613c5557613c54613beb565b5b5092915050565b7f4e487b7100000000000000000000000000000000000000000000000000000000600052601260045260246000fd5b6000613c9682612b36565b9150613ca183612b36565b925082613cb157613cb0613c5c565b5b828204905092915050565b7f455243313135353a2063616c6c6572206973206e6f7420746f6b656e206f776e60008201527f6572206f7220617070726f766564000000000000000000000000000000000000602082015250565b6000613d18602e83612cc9565b9150613d2382613cbc565b604082019050919050565b60006020820190508181036000830152613d4781613d0b565b9050919050565b60006020601f8301049050919050565b600082821b905092915050565b600060088302613d9b7fffffffffffffffffffffffffffffffffffffffffffffffffffffffffffffffff82613d5e565b613da58683613d5e565b95508019841693508086168417925050509392505050565b6000613dd8613dd3613dce84612b36565b613b23565b612b36565b9050919050565b6000819050919050565b613df283613dbd565b613e06613dfe82613ddf565b848454613d6b565b825550505050565b600090565b613e1b613e0e565b613e26818484613de9565b505050565b5b81811015613e4a57613e3f600082613e13565b600181019050613e2c565b5050565b601f821115613e8f57613e6081613947565b613e6984613d4e565b81016020851015613e78578190505b613e8c613e8485613d4e565b830182613e2b565b50505b505050565b600082821c905092915050565b6000613eb260001984600802613e94565b1980831691505092915050565b6000613ecb8383613ea1565b9150826002028217905092915050565b613ee482612cbe565b67ffffffffffffffff811115613efd57613efc612e59565b5b613f07825461390b565b613f12828285613e4e565b600060209050601f831160018114613f455760008415613f33578287015190505b613f3d8582613ebf565b865550613fa5565b601f198416613f5386613947565b60005b82811015613f7b57848901518255600182019150602085019450602081019050613f56565b86831015613f985784890151613f94601f891682613ea1565b8355505b6001600288020188555050505b505050505050565b6000613fb882612b36565b91507fffffffffffffffffffffffffffffffffffffffffffffffffffffffffffffffff8203613fea57613fe9613beb565b5b600182019050919050565b7f455243313135353a206163636f756e747320616e6420696473206c656e67746860008201527f206d69736d617463680000000000000000000000000000000000000000000000602082015250565b6000614051602983612cc9565b915061405c82613ff5565b604082019050919050565b6000602082019050818103600083015261408081614044565b9050919050565b7f4e487b7100000000000000000000000000000000000000000000000000000000600052603260045260246000fd5b7f6e6674207374617475732069736e277420616363657074656400000000000000600082015250565b60006140ec601983612cc9565b91506140f7826140b6565b602082019050919050565b6000602082019050818103600083015261411b816140df565b9050919050565b6000819050919050565b600061414761414261413d84614122565b613b23565b613b16565b9050919050565b6141578161412c565b82525050565b60006040820190506141726000830185612bac565b61417f602083018461414e565b9392505050565b600082905092915050565b61419b8383614186565b67ffffffffffffffff8111156141b4576141b3612e59565b5b6141be825461390b565b6141c9828285613e4e565b6000601f8311600181146141f857600084156141e6578287013590505b6141f08582613ebf565b865550614258565b601f19841661420686613947565b60005b8281101561422e57848901358255600182019150602085019450602081019050614209565b8683101561424b5784890135614247601f891682613ea1565b8355505b6001600288020188555050505b50505050505050565b7f66656520746f6f20686967680000000000000000000000000000000000000000600082015250565b6000614297600c83612cc9565b91506142a282614261565b602082019050919050565b600060208201905081810360008301526142c68161428a565b9050919050565b7f4f776e61626c653a206e6577206f776e657220697320746865207a65726f206160008201527f6464726573730000000000000000000000000000000000000000000000000000602082015250565b6000614329602683612cc9565b9150614334826142cd565b604082019050919050565b600060208201905081810360008301526143588161431c565b9050919050565b7f4f776e61626c653a2063616c6c6572206973206e6f7420746865206f776e6572600082015250565b6000614395602083612cc9565b91506143a08261435f565b602082019050919050565b600060208201905081810360008301526143c481614388565b9050919050565b7f455243313135353a2069647320616e6420616d6f756e7473206c656e6774682060008201527f6d69736d61746368000000000000000000000000000000000000000000000000602082015250565b6000614427602883612cc9565b9150614432826143cb565b604082019050919050565b600060208201905081810360008301526144568161441a565b9050919050565b7f455243313135353a207472616e7366657220746f20746865207a65726f20616460008201527f6472657373000000000000000000000000000000000000000000000000000000602082015250565b60006144b9602583612cc9565b91506144c48261445d565b604082019050919050565b600060208201905081810360008301526144e8816144ac565b9050919050565b7f455243313135353a20696e73756666696369656e742062616c616e636520666f60008201527f72207472616e7366657200000000000000000000000000000000000000000000602082015250565b600061454b602a83612cc9565b9150614556826144ef565b604082019050919050565b6000602082019050818103600083015261457a8161453e565b9050919050565b600061458c82612b36565b915061459783612b36565b92508282019050808211156145af576145ae613beb565b5b92915050565b600060408201905081810360008301526145cf8185613412565b905081810360208301526145e38184613412565b90509392505050565b7f455243313135353a206d696e7420746f20746865207a65726f2061646472657360008201527f7300000000000000000000000000000000000000000000000000000000000000602082015250565b6000614648602183612cc9565b9150614653826145ec565b604082019050919050565b600060208201905081810360008301526146778161463b565b9050919050565b60006040820190506146936000830185612bac565b6146a06020830184612bac565b9392505050565b7f455243323938313a20726f79616c7479206665652077696c6c2065786365656460008201527f2073616c65507269636500000000000000000000000000000000000000000000602082015250565b6000614703602a83612cc9565b915061470e826146a7565b604082019050919050565b60006020820190508181036000830152614732816146f6565b9050919050565b7f455243323938313a20496e76616c696420706172616d65746572730000000000600082015250565b600061476f601b83612cc9565b915061477a82614739565b602082019050919050565b6000602082019050818103600083015261479e81614762565b9050919050565b7f455243313135353a2073657474696e6720617070726f76616c2073746174757360008201527f20666f722073656c660000000000000000000000000000000000000000000000602082015250565b6000614801602983612cc9565b915061480c826147a5565b604082019050919050565b60006020820190508181036000830152614830816147f4565b9050919050565b600081519050919050565b600082825260208201905092915050565b600061485e82614837565b6148688185614842565b9350614878818560208601612cda565b61488181612d04565b840191505092915050565b600060a0820190506148a16000830188612e1c565b6148ae6020830187612e1c565b81810360408301526148c08186613412565b905081810360608301526148d48185613412565b905081810360808301526148e88184614853565b90509695505050505050565b60008151905061490381612c02565b92915050565b60006020828403121561491f5761491e612ace565b5b600061492d848285016148f4565b91505092915050565b60008160e01c9050919050565b600060033d11156149625760046000803e61495f600051614936565b90505b90565b600060443d106149f257614977612ac4565b60043d036004823e80513d602482011167ffffffffffffffff8211171561499f5750506149f2565b808201805167ffffffffffffffff8111156149bd57505050506149f2565b80602083010160043d0385018111156149da5750505050506149f2565b6149e982602001850186612e88565b82955050505050505b90565b7f455243313135353a207472616e7366657220746f206e6f6e2d4552433131353560008201527f526563656976657220696d706c656d656e746572000000000000000000000000602082015250565b6000614a51603483612cc9565b9150614a5c826149f5565b604082019050919050565b60006020820190508181036000830152614a8081614a44565b9050919050565b7f455243313135353a204552433131353552656365697665722072656a6563746560008201527f6420746f6b656e73000000000000000000000000000000000000000000000000602082015250565b6000614ae3602883612cc9565b9150614aee82614a87565b604082019050919050565b60006020820190508181036000830152614b1281614ad6565b9050919050565b600060a082019050614b2e6000830188612e1c565b614b3b6020830187612e1c565b614b486040830186612bac565b614b556060830185612bac565b8181036080830152614b678184614853565b9050969550505050505056fea26469706673582212205c27ce87493479854f59b53b5c34456a4f5b8f7709f72f21bd53a61532414a9f64736f6c63430008110033",
  "linkReferences": {},
  "deployedLinkReferences": {}
}