{
  "_format": "hh-sol-artifact-1",
  "contractName": "CollectorChain",
  "sourceName": "contracts/CollectorChain.sol",
  "abi": [
    {
      "inputs": [],
      "stateMutability": "nonpayable",
      "type": "constructor"
    },
    {
      "anonymous": false,
      "inputs": [
        {
          "indexed": true,
          "internalType": "address",
          "name": "account",
          "type": "address"
        },
        {
          "indexed": true,
          "internalType": "address",
          "name": "operator",
          "type": "address"
        },
        {
          "indexed": false,
          "internalType": "bool",
          "name": "approved",
          "type": "bool"
        }
      ],
      "name": "ApprovalForAll",
      "type": "event"
    },
    {
      "anonymous": false,
      "inputs": [
        {
          "indexed": true,
          "internalType": "address",
          "name": "previousOwner",
          "type": "address"
        },
        {
          "indexed": true,
          "internalType": "address",
          "name": "newOwner",
          "type": "address"
        }
      ],
      "name": "OwnershipTransferred",
      "type": "event"
    },
    {
      "anonymous": false,
      "inputs": [
        {
          "indexed": true,
          "internalType": "address",
          "name": "operator",
          "type": "address"
        },
        {
          "indexed": true,
          "internalType": "address",
          "name": "from",
          "type": "address"
        },
        {
          "indexed": true,
          "internalType": "address",
          "name": "to",
          "type": "address"
        },
        {
          "indexed": false,
          "internalType": "uint256[]",
          "name": "ids",
          "type": "uint256[]"
        },
        {
          "indexed": false,
          "internalType": "uint256[]",
          "name": "values",
          "type": "uint256[]"
        }
      ],
      "name": "TransferBatch",
      "type": "event"
    },
    {
      "anonymous": false,
      "inputs": [
        {
          "indexed": true,
          "internalType": "address",
          "name": "operator",
          "type": "address"
        },
        {
          "indexed": true,
          "internalType": "address",
          "name": "from",
          "type": "address"
        },
        {
          "indexed": true,
          "internalType": "address",
          "name": "to",
          "type": "address"
        },
        {
          "indexed": false,
          "internalType": "uint256",
          "name": "id",
          "type": "uint256"
        },
        {
          "indexed": false,
          "internalType": "uint256",
          "name": "value",
          "type": "uint256"
        }
      ],
      "name": "TransferSingle",
      "type": "event"
    },
    {
      "anonymous": false,
      "inputs": [
        {
          "indexed": false,
          "internalType": "string",
          "name": "value",
          "type": "string"
        },
        {
          "indexed": true,
          "internalType": "uint256",
          "name": "id",
          "type": "uint256"
        }
      ],
      "name": "URI",
      "type": "event"
    },
    {
      "anonymous": false,
      "inputs": [
        {
          "indexed": false,
          "internalType": "uint256",
          "name": "mintProposalId",
          "type": "uint256"
        }
      ],
      "name": "mintProposalCreationEvent",
      "type": "event"
    },
    {
      "anonymous": false,
      "inputs": [
        {
          "indexed": false,
          "internalType": "uint256",
          "name": "mintProposalId",
          "type": "uint256"
        },
        {
          "indexed": false,
          "internalType": "uint8",
          "name": "status",
          "type": "uint8"
        }
      ],
      "name": "mintProposalStatusUpdateEvent",
      "type": "event"
    },
    {
      "inputs": [],
      "name": "_baseFeeNumerator",
      "outputs": [
        {
          "internalType": "uint96",
          "name": "",
          "type": "uint96"
        }
      ],
      "stateMutability": "view",
      "type": "function"
    },
    {
      "inputs": [],
      "name": "_nftIdCounter",
      "outputs": [
        {
          "internalType": "uint256",
          "name": "",
          "type": "uint256"
        }
      ],
      "stateMutability": "view",
      "type": "function"
    },
    {
      "inputs": [],
      "name": "_stockerIdCounter",
      "outputs": [
        {
          "internalType": "uint256",
          "name": "",
          "type": "uint256"
        }
      ],
      "stateMutability": "view",
      "type": "function"
    },
    {
      "inputs": [
        {
          "internalType": "address",
          "name": "account",
          "type": "address"
        },
        {
          "internalType": "uint256",
          "name": "id",
          "type": "uint256"
        }
      ],
      "name": "balanceOf",
      "outputs": [
        {
          "internalType": "uint256",
          "name": "",
          "type": "uint256"
        }
      ],
      "stateMutability": "view",
      "type": "function"
    },
    {
      "inputs": [
        {
          "internalType": "address[]",
          "name": "accounts",
          "type": "address[]"
        },
        {
          "internalType": "uint256[]",
          "name": "ids",
          "type": "uint256[]"
        }
      ],
      "name": "balanceOfBatch",
      "outputs": [
        {
          "internalType": "uint256[]",
          "name": "",
          "type": "uint256[]"
        }
      ],
      "stateMutability": "view",
      "type": "function"
    },
    {
      "inputs": [],
      "name": "contractMetaDataURI",
      "outputs": [
        {
          "internalType": "string",
          "name": "",
          "type": "string"
        }
      ],
      "stateMutability": "view",
      "type": "function"
    },
    {
      "inputs": [],
      "name": "contractURI",
      "outputs": [
        {
          "internalType": "string",
          "name": "",
          "type": "string"
        }
      ],
      "stateMutability": "view",
      "type": "function"
    },
    {
      "inputs": [
        {
          "internalType": "string",
          "name": "_nftName",
          "type": "string"
        },
        {
          "internalType": "string",
          "name": "_objectImageURL",
          "type": "string"
        },
        {
          "internalType": "string",
          "name": "_authImageURL",
          "type": "string"
        },
        {
          "internalType": "string",
          "name": "_storageImageURL",
          "type": "string"
        },
        {
          "internalType": "uint256",
          "name": "_sharesQty",
          "type": "uint256"
        }
      ],
      "name": "createMintProposal",
      "outputs": [],
      "stateMutability": "nonpayable",
      "type": "function"
    },
    {
      "inputs": [
        {
          "internalType": "address",
          "name": "account",
          "type": "address"
        },
        {
          "internalType": "address",
          "name": "operator",
          "type": "address"
        }
      ],
      "name": "isApprovedForAll",
      "outputs": [
        {
          "internalType": "bool",
          "name": "",
          "type": "bool"
        }
      ],
      "stateMutability": "view",
      "type": "function"
    },
    {
      "inputs": [
        {
          "internalType": "uint256",
          "name": "",
          "type": "uint256"
        }
      ],
      "name": "isNftExist",
      "outputs": [
        {
          "internalType": "bool",
          "name": "",
          "type": "bool"
        }
      ],
      "stateMutability": "view",
      "type": "function"
    },
    {
      "inputs": [
        {
          "internalType": "uint256",
          "name": "_nftId",
          "type": "uint256"
        },
        {
          "internalType": "string",
          "name": "_nftURI",
          "type": "string"
        }
      ],
      "name": "mintNft",
      "outputs": [],
      "stateMutability": "nonpayable",
      "type": "function"
    },
    {
      "inputs": [
        {
          "internalType": "uint256",
          "name": "",
          "type": "uint256"
        }
      ],
      "name": "nftList",
      "outputs": [
        {
          "internalType": "uint256",
          "name": "nftId",
          "type": "uint256"
        },
        {
          "internalType": "address",
          "name": "minter",
          "type": "address"
        },
        {
          "internalType": "string",
          "name": "nftName",
          "type": "string"
        },
        {
          "internalType": "string",
          "name": "objectImageURL",
          "type": "string"
        },
        {
          "internalType": "string",
          "name": "authImageURL",
          "type": "string"
        },
        {
          "internalType": "string",
          "name": "storageImageURL",
          "type": "string"
        },
        {
          "internalType": "uint256",
          "name": "sharesQty",
          "type": "uint256"
        },
        {
          "internalType": "enum CollectorChain.Status",
          "name": "status",
          "type": "uint8"
        }
      ],
      "stateMutability": "view",
      "type": "function"
    },
    {
      "inputs": [],
      "name": "owner",
      "outputs": [
        {
          "internalType": "address",
          "name": "",
          "type": "address"
        }
      ],
      "stateMutability": "view",
      "type": "function"
    },
    {
      "inputs": [],
      "name": "renounceOwnership",
      "outputs": [],
      "stateMutability": "nonpayable",
      "type": "function"
    },
    {
      "inputs": [
        {
          "internalType": "uint256",
          "name": "_tokenId",
          "type": "uint256"
        },
        {
          "internalType": "uint256",
          "name": "_salePrice",
          "type": "uint256"
        }
      ],
      "name": "royaltyInfo",
      "outputs": [
        {
          "internalType": "address",
          "name": "",
          "type": "address"
        },
        {
          "internalType": "uint256",
          "name": "",
          "type": "uint256"
        }
      ],
      "stateMutability": "view",
      "type": "function"
    },
    {
      "inputs": [
        {
          "internalType": "address",
          "name": "from",
          "type": "address"
        },
        {
          "internalType": "address",
          "name": "to",
          "type": "address"
        },
        {
          "internalType": "uint256[]",
          "name": "ids",
          "type": "uint256[]"
        },
        {
          "internalType": "uint256[]",
          "name": "amounts",
          "type": "uint256[]"
        },
        {
          "internalType": "bytes",
          "name": "data",
          "type": "bytes"
        }
      ],
      "name": "safeBatchTransferFrom",
      "outputs": [],
      "stateMutability": "nonpayable",
      "type": "function"
    },
    {
      "inputs": [
        {
          "internalType": "address",
          "name": "from",
          "type": "address"
        },
        {
          "internalType": "address",
          "name": "to",
          "type": "address"
        },
        {
          "internalType": "uint256",
          "name": "id",
          "type": "uint256"
        },
        {
          "internalType": "uint256",
          "name": "amount",
          "type": "uint256"
        },
        {
          "internalType": "bytes",
          "name": "data",
          "type": "bytes"
        }
      ],
      "name": "safeTransferFrom",
      "outputs": [],
      "stateMutability": "nonpayable",
      "type": "function"
    },
    {
      "inputs": [
        {
          "internalType": "address",
          "name": "operator",
          "type": "address"
        },
        {
          "internalType": "bool",
          "name": "approved",
          "type": "bool"
        }
      ],
      "name": "setApprovalForAll",
      "outputs": [],
      "stateMutability": "nonpayable",
      "type": "function"
    },
    {
      "inputs": [
        {
          "internalType": "uint96",
          "name": "_fee",
          "type": "uint96"
        }
      ],
      "name": "setBaseFee",
      "outputs": [],
      "stateMutability": "nonpayable",
      "type": "function"
    },
    {
      "inputs": [
        {
          "internalType": "string",
          "name": "_contractURI",
          "type": "string"
        }
      ],
      "name": "setContractURI",
      "outputs": [],
      "stateMutability": "nonpayable",
      "type": "function"
    },
    {
      "inputs": [
        {
          "internalType": "bool",
          "name": "_vote",
          "type": "bool"
        },
        {
          "internalType": "uint256",
          "name": "_nftId",
          "type": "uint256"
        }
      ],
      "name": "setMintProposalStatus",
      "outputs": [],
      "stateMutability": "nonpayable",
      "type": "function"
    },
    {
      "inputs": [
        {
          "internalType": "bytes4",
          "name": "interfaceId",
          "type": "bytes4"
        }
      ],
      "name": "supportsInterface",
      "outputs": [
        {
          "internalType": "bool",
          "name": "",
          "type": "bool"
        }
      ],
      "stateMutability": "view",
      "type": "function"
    },
    {
      "inputs": [
        {
          "internalType": "address",
          "name": "newOwner",
          "type": "address"
        }
      ],
      "name": "transferOwnership",
      "outputs": [],
      "stateMutability": "nonpayable",
      "type": "function"
    },
    {
      "inputs": [
        {
          "internalType": "uint256",
          "name": "tokenId",
          "type": "uint256"
        }
      ],
      "name": "uri",
      "outputs": [
        {
          "internalType": "string",
          "name": "",
          "type": "string"
        }
      ],
      "stateMutability": "view",
      "type": "function"
    }
  ],
  "bytecode": "0x6080604052604051806020016040528060008152506003908162000024919062000452565b506101f4600a60006101000a8154816bffffffffffffffffffffffff02191690836bffffffffffffffffffffffff1602179055506040518060400160405280600681526020017f636f75636f750000000000000000000000000000000000000000000000000000815250600b90816200009e919062000452565b50348015620000ac57600080fd5b5060405180602001604052806000815250620000ce81620000f560201b60201c565b50620000ef620000e36200010a60201b60201c565b6200011260201b60201c565b62000539565b806002908162000106919062000452565b5050565b600033905090565b6000600760009054906101000a900473ffffffffffffffffffffffffffffffffffffffff16905081600760006101000a81548173ffffffffffffffffffffffffffffffffffffffff021916908373ffffffffffffffffffffffffffffffffffffffff1602179055508173ffffffffffffffffffffffffffffffffffffffff168173ffffffffffffffffffffffffffffffffffffffff167f8be0079c531659141344cd1fd0a4f28419497f9722a3daafe3b4186f6b6457e060405160405180910390a35050565b600081519050919050565b7f4e487b7100000000000000000000000000000000000000000000000000000000600052604160045260246000fd5b7f4e487b7100000000000000000000000000000000000000000000000000000000600052602260045260246000fd5b600060028204905060018216806200025a57607f821691505b60208210810362000270576200026f62000212565b5b50919050565b60008190508160005260206000209050919050565b60006020601f8301049050919050565b600082821b905092915050565b600060088302620002da7fffffffffffffffffffffffffffffffffffffffffffffffffffffffffffffffff826200029b565b620002e686836200029b565b95508019841693508086168417925050509392505050565b6000819050919050565b6000819050919050565b6000620003336200032d6200032784620002fe565b62000308565b620002fe565b9050919050565b6000819050919050565b6200034f8362000312565b620003676200035e826200033a565b848454620002a8565b825550505050565b600090565b6200037e6200036f565b6200038b81848462000344565b505050565b5b81811015620003b357620003a760008262000374565b60018101905062000391565b5050565b601f8211156200040257620003cc8162000276565b620003d7846200028b565b81016020851015620003e7578190505b620003ff620003f6856200028b565b83018262000390565b50505b505050565b600082821c905092915050565b6000620004276000198460080262000407565b1980831691505092915050565b600062000442838362000414565b9150826002028217905092915050565b6200045d82620001d8565b67ffffffffffffffff811115620004795762000478620001e3565b5b62000485825462000241565b62000492828285620003b7565b600060209050601f831160018114620004ca5760008415620004b5578287015190505b620004c1858262000434565b86555062000531565b601f198416620004da8662000276565b60005b828110156200050457848901518255600182019150602085019450602081019050620004dd565b8683101562000524578489015162000520601f89168262000414565b8355505b6001600288020188555050505b505050505050565b614c4580620005496000396000f3fe608060405234801561001057600080fd5b50600436106101575760003560e01c806376052e04116100c3578063be4f00cd1161007c578063be4f00cd146103cc578063e8a3d485146103e8578063e985e9c514610406578063f242432a14610436578063f2fde38b14610452578063f612c0de1461046e57610157565b806376052e041461031e578063891e3d701461033a5780638da5cb5b14610358578063938e3d7b14610376578063a22cb46514610392578063b5fd169c146103ae57610157565b80632eb2c2d6116101155780632eb2c2d6146102575780633ec98553146102735780634e1273f41461028f57806368f99bd8146102bf578063715018a6146102dd57806375bea166146102e757610157565b8062fdd58e1461015c57806301ffc9a71461018c5780630e89341c146101bc57806322e73a5d146101ec57806329a7670a146102085780632a55205a14610226575b600080fd5b61017660048036038101906101719190612b9c565b61049e565b6040516101839190612beb565b60405180910390f35b6101a660048036038101906101a19190612c5e565b610566565b6040516101b39190612ca6565b60405180910390f35b6101d660048036038101906101d19190612cc1565b610578565b6040516101e39190612d7e565b60405180910390f35b61020660048036038101906102019190612dcc565b61065d565b005b610210610851565b60405161021d9190612d7e565b60405180910390f35b610240600480360381019061023b9190612e0c565b6108df565b60405161024e929190612e5b565b60405180910390f35b610271600480360381019061026c9190613081565b610ac9565b005b61028d600480360381019061028891906131ab565b610b6a565b005b6102a960048036038101906102a4919061336a565b610e6c565b6040516102b691906134a0565b60405180910390f35b6102c7610f85565b6040516102d491906134e9565b60405180910390f35b6102e5610fa3565b005b61030160048036038101906102fc9190612cc1565b610fb7565b60405161031598979695949392919061357b565b60405180910390f35b61033860048036038101906103339190613615565b61124c565b005b6103426114a2565b60405161034f9190612beb565b60405180910390f35b6103606114a8565b60405161036d9190613675565b60405180910390f35b610390600480360381019061038b9190613690565b6114d2565b005b6103ac60048036038101906103a791906136dd565b6114f0565b005b6103b6611506565b6040516103c39190612beb565b60405180910390f35b6103e660048036038101906103e19190613749565b61150c565b005b6103f061159b565b6040516103fd9190612d7e565b60405180910390f35b610420600480360381019061041b9190613776565b61162d565b60405161042d9190612ca6565b60405180910390f35b610450600480360381019061044b91906137b6565b6116c1565b005b61046c6004803603810190610467919061384d565b611762565b005b61048860048036038101906104839190612cc1565b6117e5565b6040516104959190612ca6565b60405180910390f35b60008073ffffffffffffffffffffffffffffffffffffffff168373ffffffffffffffffffffffffffffffffffffffff160361050e576040517f08c379a0000000000000000000000000000000000000000000000000000000008152600401610505906138ec565b60405180910390fd5b60008083815260200190815260200160002060008473ffffffffffffffffffffffffffffffffffffffff1673ffffffffffffffffffffffffffffffffffffffff16815260200190815260200160002054905092915050565b600061057182611805565b9050919050565b6060600060046000848152602001908152602001600020805461059a9061393b565b80601f01602080910402602001604051908101604052809291908181526020018280546105c69061393b565b80156106135780601f106105e857610100808354040283529160200191610613565b820191906000526020600020905b8154815290600101906020018083116105f657829003601f168201915b5050505050905060008151116106315761062c8361187f565b610655565b600381604051602001610645929190613a40565b6040516020818303038152906040525b915050919050565b610665611913565b600d600082815260200190815260200160002060009054906101000a900460ff166106c5576040517f08c379a00000000000000000000000000000000000000000000000000000000081526004016106bc90613ab0565b60405180910390fd5b600060048111156106d9576106d8613504565b5b600c600083815260200190815260200160002060070160009054906101000a900460ff16600481111561070f5761070e613504565b5b1461074f576040517f08c379a000000000000000000000000000000000000000000000000000000000815260040161074690613b1c565b60405180910390fd5b81156107d3576001600c600083815260200190815260200160002060070160006101000a81548160ff0219169083600481111561078f5761078e613504565b5b02179055507f3d3ee96f2bb6e9f1ae3eb4b2e70560b1afb5d141055e91707a654773659ffd798160016040516107c6929190613b8e565b60405180910390a161084d565b6002600c600083815260200190815260200160002060070160006101000a81548160ff0219169083600481111561080d5761080c613504565b5b02179055507f3d3ee96f2bb6e9f1ae3eb4b2e70560b1afb5d141055e91707a654773659ffd79816002604051610844929190613bf2565b60405180910390a15b5050565b600b805461085e9061393b565b80601f016020809104026020016040519081016040528092919081815260200182805461088a9061393b565b80156108d75780601f106108ac576101008083540402835291602001916108d7565b820191906000526020600020905b8154815290600101906020018083116108ba57829003601f168201915b505050505081565b6000806000600660008681526020019081526020016000206040518060400160405290816000820160009054906101000a900473ffffffffffffffffffffffffffffffffffffffff1673ffffffffffffffffffffffffffffffffffffffff1673ffffffffffffffffffffffffffffffffffffffff1681526020016000820160149054906101000a90046bffffffffffffffffffffffff166bffffffffffffffffffffffff166bffffffffffffffffffffffff16815250509050600073ffffffffffffffffffffffffffffffffffffffff16816000015173ffffffffffffffffffffffffffffffffffffffff1603610a745760056040518060400160405290816000820160009054906101000a900473ffffffffffffffffffffffffffffffffffffffff1673ffffffffffffffffffffffffffffffffffffffff1673ffffffffffffffffffffffffffffffffffffffff1681526020016000820160149054906101000a90046bffffffffffffffffffffffff166bffffffffffffffffffffffff166bffffffffffffffffffffffff168152505090505b6000610a7e611991565b6bffffffffffffffffffffffff1682602001516bffffffffffffffffffffffff1686610aaa9190613c4a565b610ab49190613cbb565b90508160000151819350935050509250929050565b610ad161199b565b73ffffffffffffffffffffffffffffffffffffffff168573ffffffffffffffffffffffffffffffffffffffff161480610b175750610b1685610b1161199b565b61162d565b5b610b56576040517f08c379a0000000000000000000000000000000000000000000000000000000008152600401610b4d90613d5e565b60405180910390fd5b610b6385858585856119a3565b5050505050565b6000600854905060006040518061010001604052808381526020013373ffffffffffffffffffffffffffffffffffffffff1681526020018c8c8080601f016020809104026020016040519081016040528093929190818152602001838380828437600081840152601f19601f8201169050808301925050505050505081526020018a8a8080601f016020809104026020016040519081016040528093929190818152602001838380828437600081840152601f19601f82011690508083019250505050505050815260200188888080601f016020809104026020016040519081016040528093929190818152602001838380828437600081840152601f19601f82011690508083019250505050505050815260200186868080601f016020809104026020016040519081016040528093929190818152602001838380828437600081840152601f19601f82011690508083019250505050505050815260200184815260200160006004811115610ce357610ce2613504565b5b815250905080600c60008481526020019081526020016000206000820151816000015560208201518160010160006101000a81548173ffffffffffffffffffffffffffffffffffffffff021916908373ffffffffffffffffffffffffffffffffffffffff1602179055506040820151816002019081610d629190613f0b565b506060820151816003019081610d789190613f0b565b506080820151816004019081610d8e9190613f0b565b5060a0820151816005019081610da49190613f0b565b5060c0820151816006015560e08201518160070160006101000a81548160ff02191690836004811115610dda57610dd9613504565b5b02179055509050506001600d600084815260200190815260200160002060006101000a81548160ff0219169083151502179055507fa34cb97999ecd0f8226bfafb1308337aa1070792f2ffe98893ca3cd24aeb86d4600854604051610e3f9190612beb565b60405180910390a160086000815480929190610e5a90613fdd565b91905055505050505050505050505050565b60608151835114610eb2576040517f08c379a0000000000000000000000000000000000000000000000000000000008152600401610ea990614097565b60405180910390fd5b6000835167ffffffffffffffff811115610ecf57610ece612e89565b5b604051908082528060200260200182016040528015610efd5781602001602082028036833780820191505090505b50905060005b8451811015610f7a57610f4a858281518110610f2257610f216140b7565b5b6020026020010151858381518110610f3d57610f3c6140b7565b5b602002602001015161049e565b828281518110610f5d57610f5c6140b7565b5b60200260200101818152505080610f7390613fdd565b9050610f03565b508091505092915050565b600a60009054906101000a90046bffffffffffffffffffffffff1681565b610fab611913565b610fb56000611cc4565b565b600c6020528060005260406000206000915090508060000154908060010160009054906101000a900473ffffffffffffffffffffffffffffffffffffffff16908060020180546110069061393b565b80601f01602080910402602001604051908101604052809291908181526020018280546110329061393b565b801561107f5780601f106110545761010080835404028352916020019161107f565b820191906000526020600020905b81548152906001019060200180831161106257829003601f168201915b5050505050908060030180546110949061393b565b80601f01602080910402602001604051908101604052809291908181526020018280546110c09061393b565b801561110d5780601f106110e25761010080835404028352916020019161110d565b820191906000526020600020905b8154815290600101906020018083116110f057829003601f168201915b5050505050908060040180546111229061393b565b80601f016020809104026020016040519081016040528092919081815260200182805461114e9061393b565b801561119b5780601f106111705761010080835404028352916020019161119b565b820191906000526020600020905b81548152906001019060200180831161117e57829003601f168201915b5050505050908060050180546111b09061393b565b80601f01602080910402602001604051908101604052809291908181526020018280546111dc9061393b565b80156112295780601f106111fe57610100808354040283529160200191611229565b820191906000526020600020905b81548152906001019060200180831161120c57829003601f168201915b5050505050908060060154908060070160009054906101000a900460ff16905088565b600160048111156112605761125f613504565b5b600c600085815260200190815260200160002060070160009054906101000a900460ff16600481111561129657611295613504565b5b146112d6576040517f08c379a00000000000000000000000000000000000000000000000000000000081526004016112cd90614132565b60405180910390fd5b600c600084815260200190815260200160002060010160009054906101000a900473ffffffffffffffffffffffffffffffffffffffff1673ffffffffffffffffffffffffffffffffffffffff163373ffffffffffffffffffffffffffffffffffffffff161461137a576040517f08c379a00000000000000000000000000000000000000000000000000000000081526004016113719061419e565b60405180910390fd5b6000600c60008581526020019081526020016000206006015490506113b033858360405180602001604052806000815250611d8a565b6113fe8484848080601f016020809104026020016040519081016040528093929190818152602001838380828437600081840152601f19601f82011690508083019250505050505050611f3a565b6114238433600a60009054906101000a90046bffffffffffffffffffffffff16611f9f565b6003600c600086815260200190815260200160002060070160006101000a81548160ff0219169083600481111561145d5761145c613504565b5b02179055507f3d3ee96f2bb6e9f1ae3eb4b2e70560b1afb5d141055e91707a654773659ffd798460036040516114949291906141f9565b60405180910390a150505050565b60095481565b6000600760009054906101000a900473ffffffffffffffffffffffffffffffffffffffff16905090565b6114da611913565b8181600b91826114eb92919061422d565b505050565b6115026114fb61199b565b8383612146565b5050565b60085481565b611514611913565b612710816bffffffffffffffffffffffff161115611567576040517f08c379a000000000000000000000000000000000000000000000000000000000815260040161155e90614349565b60405180910390fd5b80600a60006101000a8154816bffffffffffffffffffffffff02191690836bffffffffffffffffffffffff16021790555050565b6060600b80546115aa9061393b565b80601f01602080910402602001604051908101604052809291908181526020018280546115d69061393b565b80156116235780601f106115f857610100808354040283529160200191611623565b820191906000526020600020905b81548152906001019060200180831161160657829003601f168201915b5050505050905090565b6000600160008473ffffffffffffffffffffffffffffffffffffffff1673ffffffffffffffffffffffffffffffffffffffff16815260200190815260200160002060008373ffffffffffffffffffffffffffffffffffffffff1673ffffffffffffffffffffffffffffffffffffffff16815260200190815260200160002060009054906101000a900460ff16905092915050565b6116c961199b565b73ffffffffffffffffffffffffffffffffffffffff168573ffffffffffffffffffffffffffffffffffffffff16148061170f575061170e8561170961199b565b61162d565b5b61174e576040517f08c379a000000000000000000000000000000000000000000000000000000000815260040161174590613d5e565b60405180910390fd5b61175b85858585856122b2565b5050505050565b61176a611913565b600073ffffffffffffffffffffffffffffffffffffffff168173ffffffffffffffffffffffffffffffffffffffff16036117d9576040517f08c379a00000000000000000000000000000000000000000000000000000000081526004016117d0906143db565b60405180910390fd5b6117e281611cc4565b50565b600d6020528060005260406000206000915054906101000a900460ff1681565b60007f2a55205a000000000000000000000000000000000000000000000000000000007bffffffffffffffffffffffffffffffffffffffffffffffffffffffff1916827bffffffffffffffffffffffffffffffffffffffffffffffffffffffff1916148061187857506118778261254d565b5b9050919050565b60606002805461188e9061393b565b80601f01602080910402602001604051908101604052809291908181526020018280546118ba9061393b565b80156119075780601f106118dc57610100808354040283529160200191611907565b820191906000526020600020905b8154815290600101906020018083116118ea57829003601f168201915b50505050509050919050565b61191b61199b565b73ffffffffffffffffffffffffffffffffffffffff166119396114a8565b73ffffffffffffffffffffffffffffffffffffffff161461198f576040517f08c379a000000000000000000000000000000000000000000000000000000000815260040161198690614447565b60405180910390fd5b565b6000612710905090565b600033905090565b81518351146119e7576040517f08c379a00000000000000000000000000000000000000000000000000000000081526004016119de906144d9565b60405180910390fd5b600073ffffffffffffffffffffffffffffffffffffffff168473ffffffffffffffffffffffffffffffffffffffff1603611a56576040517f08c379a0000000000000000000000000000000000000000000000000000000008152600401611a4d9061456b565b60405180910390fd5b6000611a6061199b565b9050611a7081878787878761262f565b60005b8451811015611c21576000858281518110611a9157611a906140b7565b5b602002602001015190506000858381518110611ab057611aaf6140b7565b5b60200260200101519050600080600084815260200190815260200160002060008b73ffffffffffffffffffffffffffffffffffffffff1673ffffffffffffffffffffffffffffffffffffffff16815260200190815260200160002054905081811015611b51576040517f08c379a0000000000000000000000000000000000000000000000000000000008152600401611b48906145fd565b60405180910390fd5b81810360008085815260200190815260200160002060008c73ffffffffffffffffffffffffffffffffffffffff1673ffffffffffffffffffffffffffffffffffffffff168152602001908152602001600020819055508160008085815260200190815260200160002060008b73ffffffffffffffffffffffffffffffffffffffff1673ffffffffffffffffffffffffffffffffffffffff1681526020019081526020016000206000828254611c06919061461d565b9250508190555050505080611c1a90613fdd565b9050611a73565b508473ffffffffffffffffffffffffffffffffffffffff168673ffffffffffffffffffffffffffffffffffffffff168273ffffffffffffffffffffffffffffffffffffffff167f4a39dc06d4c0dbc64b70af90fd698a233a518aa5d07e595d983b8c0526c8f7fb8787604051611c98929190614651565b60405180910390a4611cae818787878787612637565b611cbc81878787878761263f565b505050505050565b6000600760009054906101000a900473ffffffffffffffffffffffffffffffffffffffff16905081600760006101000a81548173ffffffffffffffffffffffffffffffffffffffff021916908373ffffffffffffffffffffffffffffffffffffffff1602179055508173ffffffffffffffffffffffffffffffffffffffff168173ffffffffffffffffffffffffffffffffffffffff167f8be0079c531659141344cd1fd0a4f28419497f9722a3daafe3b4186f6b6457e060405160405180910390a35050565b600073ffffffffffffffffffffffffffffffffffffffff168473ffffffffffffffffffffffffffffffffffffffff1603611df9576040517f08c379a0000000000000000000000000000000000000000000000000000000008152600401611df0906146fa565b60405180910390fd5b6000611e0361199b565b90506000611e1085612816565b90506000611e1d85612816565b9050611e2e8360008985858961262f565b8460008088815260200190815260200160002060008973ffffffffffffffffffffffffffffffffffffffff1673ffffffffffffffffffffffffffffffffffffffff1681526020019081526020016000206000828254611e8d919061461d565b925050819055508673ffffffffffffffffffffffffffffffffffffffff16600073ffffffffffffffffffffffffffffffffffffffff168473ffffffffffffffffffffffffffffffffffffffff167fc3d58168c5ae7397731d063d5bbf3d657854427343f4c083240f7aacaa2d0f628989604051611f0b92919061471a565b60405180910390a4611f2283600089858589612637565b611f3183600089898989612890565b50505050505050565b80600460008481526020019081526020016000209081611f5a9190613f0b565b50817f6bb7ff708619ba0610cba295a58592e0451dee2622938c8755667688daf3529b611f8684610578565b604051611f939190612d7e565b60405180910390a25050565b611fa7611991565b6bffffffffffffffffffffffff16816bffffffffffffffffffffffff161115612005576040517f08c379a0000000000000000000000000000000000000000000000000000000008152600401611ffc906147b5565b60405180910390fd5b600073ffffffffffffffffffffffffffffffffffffffff168273ffffffffffffffffffffffffffffffffffffffff1603612074576040517f08c379a000000000000000000000000000000000000000000000000000000000815260040161206b90614821565b60405180910390fd5b60405180604001604052808373ffffffffffffffffffffffffffffffffffffffff168152602001826bffffffffffffffffffffffff168152506006600085815260200190815260200160002060008201518160000160006101000a81548173ffffffffffffffffffffffffffffffffffffffff021916908373ffffffffffffffffffffffffffffffffffffffff16021790555060208201518160000160146101000a8154816bffffffffffffffffffffffff02191690836bffffffffffffffffffffffff160217905550905050505050565b8173ffffffffffffffffffffffffffffffffffffffff168373ffffffffffffffffffffffffffffffffffffffff16036121b4576040517f08c379a00000000000000000000000000000000000000000000000000000000081526004016121ab906148b3565b60405180910390fd5b80600160008573ffffffffffffffffffffffffffffffffffffffff1673ffffffffffffffffffffffffffffffffffffffff16815260200190815260200160002060008473ffffffffffffffffffffffffffffffffffffffff1673ffffffffffffffffffffffffffffffffffffffff16815260200190815260200160002060006101000a81548160ff0219169083151502179055508173ffffffffffffffffffffffffffffffffffffffff168373ffffffffffffffffffffffffffffffffffffffff167f17307eab39ab6107e8899845ad3d59bd9653f200f220920489ca2b5937696c31836040516122a59190612ca6565b60405180910390a3505050565b600073ffffffffffffffffffffffffffffffffffffffff168473ffffffffffffffffffffffffffffffffffffffff1603612321576040517f08c379a00000000000000000000000000000000000000000000000000000000081526004016123189061456b565b60405180910390fd5b600061232b61199b565b9050600061233885612816565b9050600061234585612816565b905061235583898985858961262f565b600080600088815260200190815260200160002060008a73ffffffffffffffffffffffffffffffffffffffff1673ffffffffffffffffffffffffffffffffffffffff168152602001908152602001600020549050858110156123ec576040517f08c379a00000000000000000000000000000000000000000000000000000000081526004016123e3906145fd565b60405180910390fd5b85810360008089815260200190815260200160002060008b73ffffffffffffffffffffffffffffffffffffffff1673ffffffffffffffffffffffffffffffffffffffff168152602001908152602001600020819055508560008089815260200190815260200160002060008a73ffffffffffffffffffffffffffffffffffffffff1673ffffffffffffffffffffffffffffffffffffffff16815260200190815260200160002060008282546124a1919061461d565b925050819055508773ffffffffffffffffffffffffffffffffffffffff168973ffffffffffffffffffffffffffffffffffffffff168573ffffffffffffffffffffffffffffffffffffffff167fc3d58168c5ae7397731d063d5bbf3d657854427343f4c083240f7aacaa2d0f628a8a60405161251e92919061471a565b60405180910390a4612534848a8a86868a612637565b612542848a8a8a8a8a612890565b505050505050505050565b60007fd9b67a26000000000000000000000000000000000000000000000000000000007bffffffffffffffffffffffffffffffffffffffffffffffffffffffff1916827bffffffffffffffffffffffffffffffffffffffffffffffffffffffff1916148061261857507f0e89341c000000000000000000000000000000000000000000000000000000007bffffffffffffffffffffffffffffffffffffffffffffffffffffffff1916827bffffffffffffffffffffffffffffffffffffffffffffffffffffffff1916145b80612628575061262782612a67565b5b9050919050565b505050505050565b505050505050565b61265e8473ffffffffffffffffffffffffffffffffffffffff16612ad1565b1561280e578373ffffffffffffffffffffffffffffffffffffffff1663bc197c8187878686866040518663ffffffff1660e01b81526004016126a4959493929190614928565b6020604051808303816000875af19250505080156126e057506040513d601f19601f820116820180604052508101906126dd91906149a5565b60015b612785576126ec6149df565b806308c379a0036127485750612700614a01565b8061270b575061274a565b806040517f08c379a000000000000000000000000000000000000000000000000000000000815260040161273f9190612d7e565b60405180910390fd5b505b6040517f08c379a000000000000000000000000000000000000000000000000000000000815260040161277c90614b03565b60405180910390fd5b63bc197c8160e01b7bffffffffffffffffffffffffffffffffffffffffffffffffffffffff1916817bffffffffffffffffffffffffffffffffffffffffffffffffffffffff19161461280c576040517f08c379a000000000000000000000000000000000000000000000000000000000815260040161280390614b95565b60405180910390fd5b505b505050505050565b60606000600167ffffffffffffffff81111561283557612834612e89565b5b6040519080825280602002602001820160405280156128635781602001602082028036833780820191505090505b509050828160008151811061287b5761287a6140b7565b5b60200260200101818152505080915050919050565b6128af8473ffffffffffffffffffffffffffffffffffffffff16612ad1565b15612a5f578373ffffffffffffffffffffffffffffffffffffffff1663f23a6e6187878686866040518663ffffffff1660e01b81526004016128f5959493929190614bb5565b6020604051808303816000875af192505050801561293157506040513d601f19601f8201168201806040525081019061292e91906149a5565b60015b6129d65761293d6149df565b806308c379a0036129995750612951614a01565b8061295c575061299b565b806040517f08c379a00000000000000000000000000000000000000000000000000000000081526004016129909190612d7e565b60405180910390fd5b505b6040517f08c379a00000000000000000000000000000000000000000000000000000000081526004016129cd90614b03565b60405180910390fd5b63f23a6e6160e01b7bffffffffffffffffffffffffffffffffffffffffffffffffffffffff1916817bffffffffffffffffffffffffffffffffffffffffffffffffffffffff191614612a5d576040517f08c379a0000000000000000000000000000000000000000000000000000000008152600401612a5490614b95565b60405180910390fd5b505b505050505050565b60007f01ffc9a7000000000000000000000000000000000000000000000000000000007bffffffffffffffffffffffffffffffffffffffffffffffffffffffff1916827bffffffffffffffffffffffffffffffffffffffffffffffffffffffff1916149050919050565b6000808273ffffffffffffffffffffffffffffffffffffffff163b119050919050565b6000604051905090565b600080fd5b600080fd5b600073ffffffffffffffffffffffffffffffffffffffff82169050919050565b6000612b3382612b08565b9050919050565b612b4381612b28565b8114612b4e57600080fd5b50565b600081359050612b6081612b3a565b92915050565b6000819050919050565b612b7981612b66565b8114612b8457600080fd5b50565b600081359050612b9681612b70565b92915050565b60008060408385031215612bb357612bb2612afe565b5b6000612bc185828601612b51565b9250506020612bd285828601612b87565b9150509250929050565b612be581612b66565b82525050565b6000602082019050612c006000830184612bdc565b92915050565b60007fffffffff0000000000000000000000000000000000000000000000000000000082169050919050565b612c3b81612c06565b8114612c4657600080fd5b50565b600081359050612c5881612c32565b92915050565b600060208284031215612c7457612c73612afe565b5b6000612c8284828501612c49565b91505092915050565b60008115159050919050565b612ca081612c8b565b82525050565b6000602082019050612cbb6000830184612c97565b92915050565b600060208284031215612cd757612cd6612afe565b5b6000612ce584828501612b87565b91505092915050565b600081519050919050565b600082825260208201905092915050565b60005b83811015612d28578082015181840152602081019050612d0d565b60008484015250505050565b6000601f19601f8301169050919050565b6000612d5082612cee565b612d5a8185612cf9565b9350612d6a818560208601612d0a565b612d7381612d34565b840191505092915050565b60006020820190508181036000830152612d988184612d45565b905092915050565b612da981612c8b565b8114612db457600080fd5b50565b600081359050612dc681612da0565b92915050565b60008060408385031215612de357612de2612afe565b5b6000612df185828601612db7565b9250506020612e0285828601612b87565b9150509250929050565b60008060408385031215612e2357612e22612afe565b5b6000612e3185828601612b87565b9250506020612e4285828601612b87565b9150509250929050565b612e5581612b28565b82525050565b6000604082019050612e706000830185612e4c565b612e7d6020830184612bdc565b9392505050565b600080fd5b7f4e487b7100000000000000000000000000000000000000000000000000000000600052604160045260246000fd5b612ec182612d34565b810181811067ffffffffffffffff82111715612ee057612edf612e89565b5b80604052505050565b6000612ef3612af4565b9050612eff8282612eb8565b919050565b600067ffffffffffffffff821115612f1f57612f1e612e89565b5b602082029050602081019050919050565b600080fd5b6000612f48612f4384612f04565b612ee9565b90508083825260208201905060208402830185811115612f6b57612f6a612f30565b5b835b81811015612f945780612f808882612b87565b845260208401935050602081019050612f6d565b5050509392505050565b600082601f830112612fb357612fb2612e84565b5b8135612fc3848260208601612f35565b91505092915050565b600080fd5b600067ffffffffffffffff821115612fec57612feb612e89565b5b612ff582612d34565b9050602081019050919050565b82818337600083830152505050565b600061302461301f84612fd1565b612ee9565b9050828152602081018484840111156130405761303f612fcc565b5b61304b848285613002565b509392505050565b600082601f83011261306857613067612e84565b5b8135613078848260208601613011565b91505092915050565b600080600080600060a0868803121561309d5761309c612afe565b5b60006130ab88828901612b51565b95505060206130bc88828901612b51565b945050604086013567ffffffffffffffff8111156130dd576130dc612b03565b5b6130e988828901612f9e565b935050606086013567ffffffffffffffff81111561310a57613109612b03565b5b61311688828901612f9e565b925050608086013567ffffffffffffffff81111561313757613136612b03565b5b61314388828901613053565b9150509295509295909350565b600080fd5b60008083601f84011261316b5761316a612e84565b5b8235905067ffffffffffffffff81111561318857613187613150565b5b6020830191508360018202830111156131a4576131a3612f30565b5b9250929050565b600080600080600080600080600060a08a8c0312156131cd576131cc612afe565b5b60008a013567ffffffffffffffff8111156131eb576131ea612b03565b5b6131f78c828d01613155565b995099505060208a013567ffffffffffffffff81111561321a57613219612b03565b5b6132268c828d01613155565b975097505060408a013567ffffffffffffffff81111561324957613248612b03565b5b6132558c828d01613155565b955095505060608a013567ffffffffffffffff81111561327857613277612b03565b5b6132848c828d01613155565b935093505060806132978c828d01612b87565b9150509295985092959850929598565b600067ffffffffffffffff8211156132c2576132c1612e89565b5b602082029050602081019050919050565b60006132e66132e1846132a7565b612ee9565b9050808382526020820190506020840283018581111561330957613308612f30565b5b835b81811015613332578061331e8882612b51565b84526020840193505060208101905061330b565b5050509392505050565b600082601f83011261335157613350612e84565b5b81356133618482602086016132d3565b91505092915050565b6000806040838503121561338157613380612afe565b5b600083013567ffffffffffffffff81111561339f5761339e612b03565b5b6133ab8582860161333c565b925050602083013567ffffffffffffffff8111156133cc576133cb612b03565b5b6133d885828601612f9e565b9150509250929050565b600081519050919050565b600082825260208201905092915050565b6000819050602082019050919050565b61341781612b66565b82525050565b6000613429838361340e565b60208301905092915050565b6000602082019050919050565b600061344d826133e2565b61345781856133ed565b9350613462836133fe565b8060005b8381101561349357815161347a888261341d565b975061348583613435565b925050600181019050613466565b5085935050505092915050565b600060208201905081810360008301526134ba8184613442565b905092915050565b60006bffffffffffffffffffffffff82169050919050565b6134e3816134c2565b82525050565b60006020820190506134fe60008301846134da565b92915050565b7f4e487b7100000000000000000000000000000000000000000000000000000000600052602160045260246000fd5b6005811061354457613543613504565b5b50565b600081905061355582613533565b919050565b600061356582613547565b9050919050565b6135758161355a565b82525050565b600061010082019050613591600083018b612bdc565b61359e602083018a612e4c565b81810360408301526135b08189612d45565b905081810360608301526135c48188612d45565b905081810360808301526135d88187612d45565b905081810360a08301526135ec8186612d45565b90506135fb60c0830185612bdc565b61360860e083018461356c565b9998505050505050505050565b60008060006040848603121561362e5761362d612afe565b5b600061363c86828701612b87565b935050602084013567ffffffffffffffff81111561365d5761365c612b03565b5b61366986828701613155565b92509250509250925092565b600060208201905061368a6000830184612e4c565b92915050565b600080602083850312156136a7576136a6612afe565b5b600083013567ffffffffffffffff8111156136c5576136c4612b03565b5b6136d185828601613155565b92509250509250929050565b600080604083850312156136f4576136f3612afe565b5b600061370285828601612b51565b925050602061371385828601612db7565b9150509250929050565b613726816134c2565b811461373157600080fd5b50565b6000813590506137438161371d565b92915050565b60006020828403121561375f5761375e612afe565b5b600061376d84828501613734565b91505092915050565b6000806040838503121561378d5761378c612afe565b5b600061379b85828601612b51565b92505060206137ac85828601612b51565b9150509250929050565b600080600080600060a086880312156137d2576137d1612afe565b5b60006137e088828901612b51565b95505060206137f188828901612b51565b945050604061380288828901612b87565b935050606061381388828901612b87565b925050608086013567ffffffffffffffff81111561383457613833612b03565b5b61384088828901613053565b9150509295509295909350565b60006020828403121561386357613862612afe565b5b600061387184828501612b51565b91505092915050565b7f455243313135353a2061646472657373207a65726f206973206e6f742061207660008201527f616c6964206f776e657200000000000000000000000000000000000000000000602082015250565b60006138d6602a83612cf9565b91506138e18261387a565b604082019050919050565b60006020820190508181036000830152613905816138c9565b9050919050565b7f4e487b7100000000000000000000000000000000000000000000000000000000600052602260045260246000fd5b6000600282049050600182168061395357607f821691505b6020821081036139665761396561390c565b5b50919050565b600081905092915050565b60008190508160005260206000209050919050565b600081546139998161393b565b6139a3818661396c565b945060018216600081146139be57600181146139d357613a06565b60ff1983168652811515820286019350613a06565b6139dc85613977565b60005b838110156139fe578154818901526001820191506020810190506139df565b838801955050505b50505092915050565b6000613a1a82612cee565b613a24818561396c565b9350613a34818560208601612d0a565b80840191505092915050565b6000613a4c828561398c565b9150613a588284613a0f565b91508190509392505050565b7f6e667420646f65736e2774206578697374000000000000000000000000000000600082015250565b6000613a9a601183612cf9565b9150613aa582613a64565b602082019050919050565b60006020820190508181036000830152613ac981613a8d565b9050919050565b7f4e465420737461747573206973206e6f742070726f706f736564000000000000600082015250565b6000613b06601a83612cf9565b9150613b1182613ad0565b602082019050919050565b60006020820190508181036000830152613b3581613af9565b9050919050565b6000819050919050565b600060ff82169050919050565b6000819050919050565b6000613b78613b73613b6e84613b3c565b613b53565b613b46565b9050919050565b613b8881613b5d565b82525050565b6000604082019050613ba36000830185612bdc565b613bb06020830184613b7f565b9392505050565b6000819050919050565b6000613bdc613bd7613bd284613bb7565b613b53565b613b46565b9050919050565b613bec81613bc1565b82525050565b6000604082019050613c076000830185612bdc565b613c146020830184613be3565b9392505050565b7f4e487b7100000000000000000000000000000000000000000000000000000000600052601160045260246000fd5b6000613c5582612b66565b9150613c6083612b66565b9250828202613c6e81612b66565b91508282048414831517613c8557613c84613c1b565b5b5092915050565b7f4e487b7100000000000000000000000000000000000000000000000000000000600052601260045260246000fd5b6000613cc682612b66565b9150613cd183612b66565b925082613ce157613ce0613c8c565b5b828204905092915050565b7f455243313135353a2063616c6c6572206973206e6f7420746f6b656e206f776e60008201527f6572206f7220617070726f766564000000000000000000000000000000000000602082015250565b6000613d48602e83612cf9565b9150613d5382613cec565b604082019050919050565b60006020820190508181036000830152613d7781613d3b565b9050919050565b60006020601f8301049050919050565b600082821b905092915050565b600060088302613dcb7fffffffffffffffffffffffffffffffffffffffffffffffffffffffffffffffff82613d8e565b613dd58683613d8e565b95508019841693508086168417925050509392505050565b6000613e08613e03613dfe84612b66565b613b53565b612b66565b9050919050565b6000819050919050565b613e2283613ded565b613e36613e2e82613e0f565b848454613d9b565b825550505050565b600090565b613e4b613e3e565b613e56818484613e19565b505050565b5b81811015613e7a57613e6f600082613e43565b600181019050613e5c565b5050565b601f821115613ebf57613e9081613977565b613e9984613d7e565b81016020851015613ea8578190505b613ebc613eb485613d7e565b830182613e5b565b50505b505050565b600082821c905092915050565b6000613ee260001984600802613ec4565b1980831691505092915050565b6000613efb8383613ed1565b9150826002028217905092915050565b613f1482612cee565b67ffffffffffffffff811115613f2d57613f2c612e89565b5b613f37825461393b565b613f42828285613e7e565b600060209050601f831160018114613f755760008415613f63578287015190505b613f6d8582613eef565b865550613fd5565b601f198416613f8386613977565b60005b82811015613fab57848901518255600182019150602085019450602081019050613f86565b86831015613fc85784890151613fc4601f891682613ed1565b8355505b6001600288020188555050505b505050505050565b6000613fe882612b66565b91507fffffffffffffffffffffffffffffffffffffffffffffffffffffffffffffffff820361401a57614019613c1b565b5b600182019050919050565b7f455243313135353a206163636f756e747320616e6420696473206c656e67746860008201527f206d69736d617463680000000000000000000000000000000000000000000000602082015250565b6000614081602983612cf9565b915061408c82614025565b604082019050919050565b600060208201905081810360008301526140b081614074565b9050919050565b7f4e487b7100000000000000000000000000000000000000000000000000000000600052603260045260246000fd5b7f6e6674207374617475732069736e277420616363657074656400000000000000600082015250565b600061411c601983612cf9565b9150614127826140e6565b602082019050919050565b6000602082019050818103600083015261414b8161410f565b9050919050565b7f6e6f7420746865206e66742070726f706f736572000000000000000000000000600082015250565b6000614188601483612cf9565b915061419382614152565b602082019050919050565b600060208201905081810360008301526141b78161417b565b9050919050565b6000819050919050565b60006141e36141de6141d9846141be565b613b53565b613b46565b9050919050565b6141f3816141c8565b82525050565b600060408201905061420e6000830185612bdc565b61421b60208301846141ea565b9392505050565b600082905092915050565b6142378383614222565b67ffffffffffffffff8111156142505761424f612e89565b5b61425a825461393b565b614265828285613e7e565b6000601f8311600181146142945760008415614282578287013590505b61428c8582613eef565b8655506142f4565b601f1984166142a286613977565b60005b828110156142ca578489013582556001820191506020850194506020810190506142a5565b868310156142e757848901356142e3601f891682613ed1565b8355505b6001600288020188555050505b50505050505050565b7f66656520746f6f20686967680000000000000000000000000000000000000000600082015250565b6000614333600c83612cf9565b915061433e826142fd565b602082019050919050565b6000602082019050818103600083015261436281614326565b9050919050565b7f4f776e61626c653a206e6577206f776e657220697320746865207a65726f206160008201527f6464726573730000000000000000000000000000000000000000000000000000602082015250565b60006143c5602683612cf9565b91506143d082614369565b604082019050919050565b600060208201905081810360008301526143f4816143b8565b9050919050565b7f4f776e61626c653a2063616c6c6572206973206e6f7420746865206f776e6572600082015250565b6000614431602083612cf9565b915061443c826143fb565b602082019050919050565b6000602082019050818103600083015261446081614424565b9050919050565b7f455243313135353a2069647320616e6420616d6f756e7473206c656e6774682060008201527f6d69736d61746368000000000000000000000000000000000000000000000000602082015250565b60006144c3602883612cf9565b91506144ce82614467565b604082019050919050565b600060208201905081810360008301526144f2816144b6565b9050919050565b7f455243313135353a207472616e7366657220746f20746865207a65726f20616460008201527f6472657373000000000000000000000000000000000000000000000000000000602082015250565b6000614555602583612cf9565b9150614560826144f9565b604082019050919050565b6000602082019050818103600083015261458481614548565b9050919050565b7f455243313135353a20696e73756666696369656e742062616c616e636520666f60008201527f72207472616e7366657200000000000000000000000000000000000000000000602082015250565b60006145e7602a83612cf9565b91506145f28261458b565b604082019050919050565b60006020820190508181036000830152614616816145da565b9050919050565b600061462882612b66565b915061463383612b66565b925082820190508082111561464b5761464a613c1b565b5b92915050565b6000604082019050818103600083015261466b8185613442565b9050818103602083015261467f8184613442565b90509392505050565b7f455243313135353a206d696e7420746f20746865207a65726f2061646472657360008201527f7300000000000000000000000000000000000000000000000000000000000000602082015250565b60006146e4602183612cf9565b91506146ef82614688565b604082019050919050565b60006020820190508181036000830152614713816146d7565b9050919050565b600060408201905061472f6000830185612bdc565b61473c6020830184612bdc565b9392505050565b7f455243323938313a20726f79616c7479206665652077696c6c2065786365656460008201527f2073616c65507269636500000000000000000000000000000000000000000000602082015250565b600061479f602a83612cf9565b91506147aa82614743565b604082019050919050565b600060208201905081810360008301526147ce81614792565b9050919050565b7f455243323938313a20496e76616c696420706172616d65746572730000000000600082015250565b600061480b601b83612cf9565b9150614816826147d5565b602082019050919050565b6000602082019050818103600083015261483a816147fe565b9050919050565b7f455243313135353a2073657474696e6720617070726f76616c2073746174757360008201527f20666f722073656c660000000000000000000000000000000000000000000000602082015250565b600061489d602983612cf9565b91506148a882614841565b604082019050919050565b600060208201905081810360008301526148cc81614890565b9050919050565b600081519050919050565b600082825260208201905092915050565b60006148fa826148d3565b61490481856148de565b9350614914818560208601612d0a565b61491d81612d34565b840191505092915050565b600060a08201905061493d6000830188612e4c565b61494a6020830187612e4c565b818103604083015261495c8186613442565b905081810360608301526149708185613442565b9050818103608083015261498481846148ef565b90509695505050505050565b60008151905061499f81612c32565b92915050565b6000602082840312156149bb576149ba612afe565b5b60006149c984828501614990565b91505092915050565b60008160e01c9050919050565b600060033d11156149fe5760046000803e6149fb6000516149d2565b90505b90565b600060443d10614a8e57614a13612af4565b60043d036004823e80513d602482011167ffffffffffffffff82111715614a3b575050614a8e565b808201805167ffffffffffffffff811115614a595750505050614a8e565b80602083010160043d038501811115614a76575050505050614a8e565b614a8582602001850186612eb8565b82955050505050505b90565b7f455243313135353a207472616e7366657220746f206e6f6e2d4552433131353560008201527f526563656976657220696d706c656d656e746572000000000000000000000000602082015250565b6000614aed603483612cf9565b9150614af882614a91565b604082019050919050565b60006020820190508181036000830152614b1c81614ae0565b9050919050565b7f455243313135353a204552433131353552656365697665722072656a6563746560008201527f6420746f6b656e73000000000000000000000000000000000000000000000000602082015250565b6000614b7f602883612cf9565b9150614b8a82614b23565b604082019050919050565b60006020820190508181036000830152614bae81614b72565b9050919050565b600060a082019050614bca6000830188612e4c565b614bd76020830187612e4c565b614be46040830186612bdc565b614bf16060830185612bdc565b8181036080830152614c0381846148ef565b9050969550505050505056fea264697066735822122000a4279c1c68e9373dc9d9ba3b4b8309a059eac068c6b264e2cc6a4df00ea1d664736f6c63430008110033",
  "linkReferences": {},
  "deployedLinkReferences": {}
}