{
  "_format": "hh-sol-artifact-1",
  "contractName": "CollectorChain",
  "sourceName": "contracts/CollectorChain.sol",
  "abi": [
    {
      "inputs": [],
      "stateMutability": "nonpayable",
      "type": "constructor"
    },
    {
      "anonymous": false,
      "inputs": [
        {
          "indexed": true,
          "internalType": "address",
          "name": "account",
          "type": "address"
        },
        {
          "indexed": true,
          "internalType": "address",
          "name": "operator",
          "type": "address"
        },
        {
          "indexed": false,
          "internalType": "bool",
          "name": "approved",
          "type": "bool"
        }
      ],
      "name": "ApprovalForAll",
      "type": "event"
    },
    {
      "anonymous": false,
      "inputs": [
        {
          "indexed": true,
          "internalType": "address",
          "name": "previousOwner",
          "type": "address"
        },
        {
          "indexed": true,
          "internalType": "address",
          "name": "newOwner",
          "type": "address"
        }
      ],
      "name": "OwnershipTransferred",
      "type": "event"
    },
    {
      "anonymous": false,
      "inputs": [
        {
          "indexed": true,
          "internalType": "address",
          "name": "operator",
          "type": "address"
        },
        {
          "indexed": true,
          "internalType": "address",
          "name": "from",
          "type": "address"
        },
        {
          "indexed": true,
          "internalType": "address",
          "name": "to",
          "type": "address"
        },
        {
          "indexed": false,
          "internalType": "uint256[]",
          "name": "ids",
          "type": "uint256[]"
        },
        {
          "indexed": false,
          "internalType": "uint256[]",
          "name": "values",
          "type": "uint256[]"
        }
      ],
      "name": "TransferBatch",
      "type": "event"
    },
    {
      "anonymous": false,
      "inputs": [
        {
          "indexed": true,
          "internalType": "address",
          "name": "operator",
          "type": "address"
        },
        {
          "indexed": true,
          "internalType": "address",
          "name": "from",
          "type": "address"
        },
        {
          "indexed": true,
          "internalType": "address",
          "name": "to",
          "type": "address"
        },
        {
          "indexed": false,
          "internalType": "uint256",
          "name": "id",
          "type": "uint256"
        },
        {
          "indexed": false,
          "internalType": "uint256",
          "name": "value",
          "type": "uint256"
        }
      ],
      "name": "TransferSingle",
      "type": "event"
    },
    {
      "anonymous": false,
      "inputs": [
        {
          "indexed": false,
          "internalType": "string",
          "name": "value",
          "type": "string"
        },
        {
          "indexed": true,
          "internalType": "uint256",
          "name": "id",
          "type": "uint256"
        }
      ],
      "name": "URI",
      "type": "event"
    },
    {
      "anonymous": false,
      "inputs": [
        {
          "indexed": false,
          "internalType": "uint256",
          "name": "mintProposalId",
          "type": "uint256"
        }
      ],
      "name": "mintProposalCreationEvent",
      "type": "event"
    },
    {
      "anonymous": false,
      "inputs": [
        {
          "indexed": false,
          "internalType": "uint256",
          "name": "mintProposalId",
          "type": "uint256"
        },
        {
          "indexed": false,
          "internalType": "uint8",
          "name": "status",
          "type": "uint8"
        }
      ],
      "name": "mintProposalStatusUpdateEvent",
      "type": "event"
    },
    {
      "anonymous": false,
      "inputs": [
        {
          "indexed": false,
          "internalType": "uint256",
          "name": "stockerId",
          "type": "uint256"
        }
      ],
      "name": "stockerCreationEvent",
      "type": "event"
    },
    {
      "inputs": [],
      "name": "_baseFeeNumerator",
      "outputs": [
        {
          "internalType": "uint96",
          "name": "",
          "type": "uint96"
        }
      ],
      "stateMutability": "view",
      "type": "function"
    },
    {
      "inputs": [],
      "name": "_nftIdCounter",
      "outputs": [
        {
          "internalType": "uint256",
          "name": "",
          "type": "uint256"
        }
      ],
      "stateMutability": "view",
      "type": "function"
    },
    {
      "inputs": [],
      "name": "_stockerIdCounter",
      "outputs": [
        {
          "internalType": "uint256",
          "name": "",
          "type": "uint256"
        }
      ],
      "stateMutability": "view",
      "type": "function"
    },
    {
      "inputs": [
        {
          "internalType": "address",
          "name": "account",
          "type": "address"
        },
        {
          "internalType": "uint256",
          "name": "id",
          "type": "uint256"
        }
      ],
      "name": "balanceOf",
      "outputs": [
        {
          "internalType": "uint256",
          "name": "",
          "type": "uint256"
        }
      ],
      "stateMutability": "view",
      "type": "function"
    },
    {
      "inputs": [
        {
          "internalType": "address[]",
          "name": "accounts",
          "type": "address[]"
        },
        {
          "internalType": "uint256[]",
          "name": "ids",
          "type": "uint256[]"
        }
      ],
      "name": "balanceOfBatch",
      "outputs": [
        {
          "internalType": "uint256[]",
          "name": "",
          "type": "uint256[]"
        }
      ],
      "stateMutability": "view",
      "type": "function"
    },
    {
      "inputs": [],
      "name": "contractMetaDataURI",
      "outputs": [
        {
          "internalType": "string",
          "name": "",
          "type": "string"
        }
      ],
      "stateMutability": "view",
      "type": "function"
    },
    {
      "inputs": [],
      "name": "contractURI",
      "outputs": [
        {
          "internalType": "string",
          "name": "",
          "type": "string"
        }
      ],
      "stateMutability": "view",
      "type": "function"
    },
    {
      "inputs": [
        {
          "internalType": "string",
          "name": "_nftName",
          "type": "string"
        },
        {
          "internalType": "uint256",
          "name": "_stockerId",
          "type": "uint256"
        },
        {
          "internalType": "string",
          "name": "_imageURL",
          "type": "string"
        },
        {
          "internalType": "uint256",
          "name": "_sharesQty",
          "type": "uint256"
        }
      ],
      "name": "createMintProposal",
      "outputs": [],
      "stateMutability": "nonpayable",
      "type": "function"
    },
    {
      "inputs": [],
      "name": "getMetaData",
      "outputs": [
        {
          "internalType": "string",
          "name": "",
          "type": "string"
        }
      ],
      "stateMutability": "view",
      "type": "function"
    },
    {
      "inputs": [],
      "name": "getNftId",
      "outputs": [
        {
          "internalType": "uint256",
          "name": "",
          "type": "uint256"
        }
      ],
      "stateMutability": "view",
      "type": "function"
    },
    {
      "inputs": [
        {
          "internalType": "address",
          "name": "account",
          "type": "address"
        },
        {
          "internalType": "address",
          "name": "operator",
          "type": "address"
        }
      ],
      "name": "isApprovedForAll",
      "outputs": [
        {
          "internalType": "bool",
          "name": "",
          "type": "bool"
        }
      ],
      "stateMutability": "view",
      "type": "function"
    },
    {
      "inputs": [
        {
          "internalType": "uint256",
          "name": "",
          "type": "uint256"
        }
      ],
      "name": "isNftExist",
      "outputs": [
        {
          "internalType": "bool",
          "name": "",
          "type": "bool"
        }
      ],
      "stateMutability": "view",
      "type": "function"
    },
    {
      "inputs": [
        {
          "internalType": "uint256",
          "name": "_nftId",
          "type": "uint256"
        },
        {
          "internalType": "string",
          "name": "_nftURI",
          "type": "string"
        }
      ],
      "name": "mintNft",
      "outputs": [],
      "stateMutability": "nonpayable",
      "type": "function"
    },
    {
      "inputs": [
        {
          "internalType": "uint256",
          "name": "",
          "type": "uint256"
        }
      ],
      "name": "nftList",
      "outputs": [
        {
          "internalType": "uint256",
          "name": "nftId",
          "type": "uint256"
        },
        {
          "internalType": "address",
          "name": "minter",
          "type": "address"
        },
        {
          "internalType": "string",
          "name": "nftName",
          "type": "string"
        },
        {
          "internalType": "uint256",
          "name": "stockerId",
          "type": "uint256"
        },
        {
          "internalType": "enum CollectorChain.Status",
          "name": "status",
          "type": "uint8"
        },
        {
          "internalType": "string",
          "name": "imageURL",
          "type": "string"
        },
        {
          "internalType": "uint256",
          "name": "sharesQty",
          "type": "uint256"
        }
      ],
      "stateMutability": "view",
      "type": "function"
    },
    {
      "inputs": [],
      "name": "owner",
      "outputs": [
        {
          "internalType": "address",
          "name": "",
          "type": "address"
        }
      ],
      "stateMutability": "view",
      "type": "function"
    },
    {
      "inputs": [],
      "name": "renounceOwnership",
      "outputs": [],
      "stateMutability": "nonpayable",
      "type": "function"
    },
    {
      "inputs": [
        {
          "internalType": "uint256",
          "name": "_tokenId",
          "type": "uint256"
        },
        {
          "internalType": "uint256",
          "name": "_salePrice",
          "type": "uint256"
        }
      ],
      "name": "royaltyInfo",
      "outputs": [
        {
          "internalType": "address",
          "name": "",
          "type": "address"
        },
        {
          "internalType": "uint256",
          "name": "",
          "type": "uint256"
        }
      ],
      "stateMutability": "view",
      "type": "function"
    },
    {
      "inputs": [
        {
          "internalType": "address",
          "name": "from",
          "type": "address"
        },
        {
          "internalType": "address",
          "name": "to",
          "type": "address"
        },
        {
          "internalType": "uint256[]",
          "name": "ids",
          "type": "uint256[]"
        },
        {
          "internalType": "uint256[]",
          "name": "amounts",
          "type": "uint256[]"
        },
        {
          "internalType": "bytes",
          "name": "data",
          "type": "bytes"
        }
      ],
      "name": "safeBatchTransferFrom",
      "outputs": [],
      "stateMutability": "nonpayable",
      "type": "function"
    },
    {
      "inputs": [
        {
          "internalType": "address",
          "name": "from",
          "type": "address"
        },
        {
          "internalType": "address",
          "name": "to",
          "type": "address"
        },
        {
          "internalType": "uint256",
          "name": "id",
          "type": "uint256"
        },
        {
          "internalType": "uint256",
          "name": "amount",
          "type": "uint256"
        },
        {
          "internalType": "bytes",
          "name": "data",
          "type": "bytes"
        }
      ],
      "name": "safeTransferFrom",
      "outputs": [],
      "stateMutability": "nonpayable",
      "type": "function"
    },
    {
      "inputs": [
        {
          "internalType": "address",
          "name": "operator",
          "type": "address"
        },
        {
          "internalType": "bool",
          "name": "approved",
          "type": "bool"
        }
      ],
      "name": "setApprovalForAll",
      "outputs": [],
      "stateMutability": "nonpayable",
      "type": "function"
    },
    {
      "inputs": [
        {
          "internalType": "uint96",
          "name": "_fee",
          "type": "uint96"
        }
      ],
      "name": "setBaseFee",
      "outputs": [],
      "stateMutability": "nonpayable",
      "type": "function"
    },
    {
      "inputs": [
        {
          "internalType": "string",
          "name": "_contractURI",
          "type": "string"
        }
      ],
      "name": "setContractURI",
      "outputs": [],
      "stateMutability": "nonpayable",
      "type": "function"
    },
    {
      "inputs": [
        {
          "internalType": "bool",
          "name": "_vote",
          "type": "bool"
        },
        {
          "internalType": "uint256",
          "name": "_nftId",
          "type": "uint256"
        }
      ],
      "name": "setMintProposalStatus",
      "outputs": [],
      "stateMutability": "nonpayable",
      "type": "function"
    },
    {
      "inputs": [
        {
          "internalType": "address",
          "name": "_stockerAddr",
          "type": "address"
        },
        {
          "internalType": "string",
          "name": "_stockerName",
          "type": "string"
        }
      ],
      "name": "stockerCreation",
      "outputs": [],
      "stateMutability": "nonpayable",
      "type": "function"
    },
    {
      "inputs": [
        {
          "internalType": "uint256",
          "name": "",
          "type": "uint256"
        }
      ],
      "name": "stockerList",
      "outputs": [
        {
          "internalType": "address",
          "name": "stockerAddr",
          "type": "address"
        },
        {
          "internalType": "string",
          "name": "stockerName",
          "type": "string"
        }
      ],
      "stateMutability": "view",
      "type": "function"
    },
    {
      "inputs": [
        {
          "internalType": "bytes4",
          "name": "interfaceId",
          "type": "bytes4"
        }
      ],
      "name": "supportsInterface",
      "outputs": [
        {
          "internalType": "bool",
          "name": "",
          "type": "bool"
        }
      ],
      "stateMutability": "view",
      "type": "function"
    },
    {
      "inputs": [
        {
          "internalType": "address",
          "name": "newOwner",
          "type": "address"
        }
      ],
      "name": "transferOwnership",
      "outputs": [],
      "stateMutability": "nonpayable",
      "type": "function"
    },
    {
      "inputs": [
        {
          "internalType": "uint256",
          "name": "tokenId",
          "type": "uint256"
        }
      ],
      "name": "uri",
      "outputs": [
        {
          "internalType": "string",
          "name": "",
          "type": "string"
        }
      ],
      "stateMutability": "view",
      "type": "function"
    }
  ],
  "bytecode": "0x6080604052604051806020016040528060008152506003908162000024919062000452565b506101f4600a60006101000a8154816bffffffffffffffffffffffff02191690836bffffffffffffffffffffffff1602179055506040518060400160405280600681526020017f636f75636f750000000000000000000000000000000000000000000000000000815250600b90816200009e919062000452565b50348015620000ac57600080fd5b5060405180602001604052806000815250620000ce81620000f560201b60201c565b50620000ef620000e36200010a60201b60201c565b6200011260201b60201c565b62000539565b806002908162000106919062000452565b5050565b600033905090565b6000600760009054906101000a900473ffffffffffffffffffffffffffffffffffffffff16905081600760006101000a81548173ffffffffffffffffffffffffffffffffffffffff021916908373ffffffffffffffffffffffffffffffffffffffff1602179055508173ffffffffffffffffffffffffffffffffffffffff168173ffffffffffffffffffffffffffffffffffffffff167f8be0079c531659141344cd1fd0a4f28419497f9722a3daafe3b4186f6b6457e060405160405180910390a35050565b600081519050919050565b7f4e487b7100000000000000000000000000000000000000000000000000000000600052604160045260246000fd5b7f4e487b7100000000000000000000000000000000000000000000000000000000600052602260045260246000fd5b600060028204905060018216806200025a57607f821691505b60208210810362000270576200026f62000212565b5b50919050565b60008190508160005260206000209050919050565b60006020601f8301049050919050565b600082821b905092915050565b600060088302620002da7fffffffffffffffffffffffffffffffffffffffffffffffffffffffffffffffff826200029b565b620002e686836200029b565b95508019841693508086168417925050509392505050565b6000819050919050565b6000819050919050565b6000620003336200032d6200032784620002fe565b62000308565b620002fe565b9050919050565b6000819050919050565b6200034f8362000312565b620003676200035e826200033a565b848454620002a8565b825550505050565b600090565b6200037e6200036f565b6200038b81848462000344565b505050565b5b81811015620003b357620003a760008262000374565b60018101905062000391565b5050565b601f8211156200040257620003cc8162000276565b620003d7846200028b565b81016020851015620003e7578190505b620003ff620003f6856200028b565b83018262000390565b50505b505050565b600082821c905092915050565b6000620004276000198460080262000407565b1980831691505092915050565b600062000442838362000414565b9150826002028217905092915050565b6200045d82620001d8565b67ffffffffffffffff811115620004795762000478620001e3565b5b62000485825462000241565b62000492828285620003b7565b600060209050601f831160018114620004ca5760008415620004b5578287015190505b620004c1858262000434565b86555062000531565b601f198416620004da8662000276565b60005b828110156200050457848901518255600182019150602085019450602081019050620004dd565b8683101562000524578489015162000520601f89168262000414565b8355505b6001600288020188555050505b505050505050565b614e4380620005496000396000f3fe608060405234801561001057600080fd5b50600436106101c35760003560e01c806377131db7116100f9578063c538161811610097578063e985e9c511610071578063e985e9c5146104fa578063f242432a1461052a578063f2fde38b14610546578063f612c0de14610562576101c3565b8063c5381618146104a2578063d2786ba4146104be578063e8a3d485146104dc576101c3565b8063938e3d7b116100d3578063938e3d7b14610430578063a22cb4651461044c578063b5fd169c14610468578063be4f00cd14610486576101c3565b806377131db7146103c3578063891e3d70146103f45780638da5cb5b14610412576101c3565b8063308a9cb61161016657806368f99bd81161014057806368f99bd814610349578063715018a61461036757806375bea1661461037157806376052e04146103a7576101c3565b8063308a9cb6146102df5780634e1273f4146102fb578063644c45e01461032b576101c3565b806322e73a5d116101a257806322e73a5d1461025857806329a7670a146102745780632a55205a146102925780632eb2c2d6146102c3576101c3565b8062fdd58e146101c857806301ffc9a7146101f85780630e89341c14610228575b600080fd5b6101e260048036038101906101dd9190612d7c565b610592565b6040516101ef9190612dcb565b60405180910390f35b610212600480360381019061020d9190612e3e565b61065a565b60405161021f9190612e86565b60405180910390f35b610242600480360381019061023d9190612ea1565b61066c565b60405161024f9190612f5e565b60405180910390f35b610272600480360381019061026d9190612fac565b610751565b005b61027c610945565b6040516102899190612f5e565b60405180910390f35b6102ac60048036038101906102a79190612fec565b6109d3565b6040516102ba92919061303b565b60405180910390f35b6102dd60048036038101906102d89190613261565b610bbd565b005b6102f960048036038101906102f4919061338b565b610c5e565b005b610315600480360381019061031091906134f5565b610eac565b604051610322919061362b565b60405180910390f35b610333610fc5565b6040516103409190612dcb565b60405180910390f35b610351610fcf565b60405161035e9190613674565b60405180910390f35b61036f610fed565b005b61038b60048036038101906103869190612ea1565b611001565b60405161039e9796959493929190613706565b60405180910390f35b6103c160048036038101906103bc9190613783565b611180565b005b6103dd60048036038101906103d89190612ea1565b6113d6565b6040516103eb9291906137e3565b60405180910390f35b6103fc6114a2565b6040516104099190612dcb565b60405180910390f35b61041a6114a8565b6040516104279190613813565b60405180910390f35b61044a6004803603810190610445919061382e565b6114d2565b005b6104666004803603810190610461919061387b565b6114f0565b005b610470611506565b60405161047d9190612dcb565b60405180910390f35b6104a0600480360381019061049b91906138e7565b61150c565b005b6104bc60048036038101906104b79190613914565b61159b565b005b6104c66116e9565b6040516104d39190612f5e565b60405180910390f35b6104e461177b565b6040516104f19190612f5e565b60405180910390f35b610514600480360381019061050f9190613974565b61180d565b6040516105219190612e86565b60405180910390f35b610544600480360381019061053f91906139b4565b6118a1565b005b610560600480360381019061055b9190613a4b565b611942565b005b61057c60048036038101906105779190612ea1565b6119c5565b6040516105899190612e86565b60405180910390f35b60008073ffffffffffffffffffffffffffffffffffffffff168373ffffffffffffffffffffffffffffffffffffffff1603610602576040517f08c379a00000000000000000000000000000000000000000000000000000000081526004016105f990613aea565b60405180910390fd5b60008083815260200190815260200160002060008473ffffffffffffffffffffffffffffffffffffffff1673ffffffffffffffffffffffffffffffffffffffff16815260200190815260200160002054905092915050565b6000610665826119e5565b9050919050565b6060600060046000848152602001908152602001600020805461068e90613b39565b80601f01602080910402602001604051908101604052809291908181526020018280546106ba90613b39565b80156107075780601f106106dc57610100808354040283529160200191610707565b820191906000526020600020905b8154815290600101906020018083116106ea57829003601f168201915b5050505050905060008151116107255761072083611a5f565b610749565b600381604051602001610739929190613c3e565b6040516020818303038152906040525b915050919050565b610759611af3565b600d600082815260200190815260200160002060009054906101000a900460ff166107b9576040517f08c379a00000000000000000000000000000000000000000000000000000000081526004016107b090613cae565b60405180910390fd5b600060048111156107cd576107cc61368f565b5b600c600083815260200190815260200160002060040160009054906101000a900460ff1660048111156108035761080261368f565b5b14610843576040517f08c379a000000000000000000000000000000000000000000000000000000000815260040161083a90613d1a565b60405180910390fd5b81156108c7576001600c600083815260200190815260200160002060040160006101000a81548160ff021916908360048111156108835761088261368f565b5b02179055507f3d3ee96f2bb6e9f1ae3eb4b2e70560b1afb5d141055e91707a654773659ffd798160016040516108ba929190613d8c565b60405180910390a1610941565b6002600c600083815260200190815260200160002060040160006101000a81548160ff021916908360048111156109015761090061368f565b5b02179055507f3d3ee96f2bb6e9f1ae3eb4b2e70560b1afb5d141055e91707a654773659ffd79816002604051610938929190613df0565b60405180910390a15b5050565b600b805461095290613b39565b80601f016020809104026020016040519081016040528092919081815260200182805461097e90613b39565b80156109cb5780601f106109a0576101008083540402835291602001916109cb565b820191906000526020600020905b8154815290600101906020018083116109ae57829003601f168201915b505050505081565b6000806000600660008681526020019081526020016000206040518060400160405290816000820160009054906101000a900473ffffffffffffffffffffffffffffffffffffffff1673ffffffffffffffffffffffffffffffffffffffff1673ffffffffffffffffffffffffffffffffffffffff1681526020016000820160149054906101000a90046bffffffffffffffffffffffff166bffffffffffffffffffffffff166bffffffffffffffffffffffff16815250509050600073ffffffffffffffffffffffffffffffffffffffff16816000015173ffffffffffffffffffffffffffffffffffffffff1603610b685760056040518060400160405290816000820160009054906101000a900473ffffffffffffffffffffffffffffffffffffffff1673ffffffffffffffffffffffffffffffffffffffff1673ffffffffffffffffffffffffffffffffffffffff1681526020016000820160149054906101000a90046bffffffffffffffffffffffff166bffffffffffffffffffffffff166bffffffffffffffffffffffff168152505090505b6000610b72611b71565b6bffffffffffffffffffffffff1682602001516bffffffffffffffffffffffff1686610b9e9190613e48565b610ba89190613eb9565b90508160000151819350935050509250929050565b610bc5611b7b565b73ffffffffffffffffffffffffffffffffffffffff168573ffffffffffffffffffffffffffffffffffffffff161480610c0b5750610c0a85610c05611b7b565b61180d565b5b610c4a576040517f08c379a0000000000000000000000000000000000000000000000000000000008152600401610c4190613f5c565b60405180910390fd5b610c578585858585611b83565b5050505050565b6000600854905060006040518060e001604052808381526020013373ffffffffffffffffffffffffffffffffffffffff16815260200189898080601f016020809104026020016040519081016040528093929190818152602001838380828437600081840152601f19601f82011690508083019250505050505050815260200187815260200160006004811115610cf857610cf761368f565b5b815260200186868080601f016020809104026020016040519081016040528093929190818152602001838380828437600081840152601f19601f82011690508083019250505050505050815260200184815250905080600c60008481526020019081526020016000206000820151816000015560208201518160010160006101000a81548173ffffffffffffffffffffffffffffffffffffffff021916908373ffffffffffffffffffffffffffffffffffffffff1602179055506040820151816002019081610dc79190614109565b506060820151816003015560808201518160040160006101000a81548160ff02191690836004811115610dfd57610dfc61368f565b5b021790555060a0820151816005019081610e179190614109565b5060c082015181600601559050506001600d600084815260200190815260200160002060006101000a81548160ff0219169083151502179055507fa34cb97999ecd0f8226bfafb1308337aa1070792f2ffe98893ca3cd24aeb86d4600854604051610e829190612dcb565b60405180910390a160086000815480929190610e9d906141db565b91905055505050505050505050565b60608151835114610ef2576040517f08c379a0000000000000000000000000000000000000000000000000000000008152600401610ee990614295565b60405180910390fd5b6000835167ffffffffffffffff811115610f0f57610f0e613069565b5b604051908082528060200260200182016040528015610f3d5781602001602082028036833780820191505090505b50905060005b8451811015610fba57610f8a858281518110610f6257610f616142b5565b5b6020026020010151858381518110610f7d57610f7c6142b5565b5b6020026020010151610592565b828281518110610f9d57610f9c6142b5565b5b60200260200101818152505080610fb3906141db565b9050610f43565b508091505092915050565b6000600854905090565b600a60009054906101000a90046bffffffffffffffffffffffff1681565b610ff5611af3565b610fff6000611ea4565b565b600c6020528060005260406000206000915090508060000154908060010160009054906101000a900473ffffffffffffffffffffffffffffffffffffffff169080600201805461105090613b39565b80601f016020809104026020016040519081016040528092919081815260200182805461107c90613b39565b80156110c95780601f1061109e576101008083540402835291602001916110c9565b820191906000526020600020905b8154815290600101906020018083116110ac57829003601f168201915b5050505050908060030154908060040160009054906101000a900460ff16908060050180546110f790613b39565b80601f016020809104026020016040519081016040528092919081815260200182805461112390613b39565b80156111705780601f1061114557610100808354040283529160200191611170565b820191906000526020600020905b81548152906001019060200180831161115357829003601f168201915b5050505050908060060154905087565b600160048111156111945761119361368f565b5b600c600085815260200190815260200160002060040160009054906101000a900460ff1660048111156111ca576111c961368f565b5b1461120a576040517f08c379a000000000000000000000000000000000000000000000000000000000815260040161120190614330565b60405180910390fd5b600c600084815260200190815260200160002060010160009054906101000a900473ffffffffffffffffffffffffffffffffffffffff1673ffffffffffffffffffffffffffffffffffffffff163373ffffffffffffffffffffffffffffffffffffffff16146112ae576040517f08c379a00000000000000000000000000000000000000000000000000000000081526004016112a59061439c565b60405180910390fd5b6000600c60008581526020019081526020016000206006015490506112e433858360405180602001604052806000815250611f6a565b6113328484848080601f016020809104026020016040519081016040528093929190818152602001838380828437600081840152601f19601f8201169050808301925050505050505061211a565b6113578433600a60009054906101000a90046bffffffffffffffffffffffff1661217f565b6003600c600086815260200190815260200160002060040160006101000a81548160ff021916908360048111156113915761139061368f565b5b02179055507f3d3ee96f2bb6e9f1ae3eb4b2e70560b1afb5d141055e91707a654773659ffd798460036040516113c89291906143f7565b60405180910390a150505050565b600e6020528060005260406000206000915090508060000160009054906101000a900473ffffffffffffffffffffffffffffffffffffffff169080600101805461141f90613b39565b80601f016020809104026020016040519081016040528092919081815260200182805461144b90613b39565b80156114985780601f1061146d57610100808354040283529160200191611498565b820191906000526020600020905b81548152906001019060200180831161147b57829003601f168201915b5050505050905082565b60095481565b6000600760009054906101000a900473ffffffffffffffffffffffffffffffffffffffff16905090565b6114da611af3565b8181600b91826114eb92919061442b565b505050565b6115026114fb611b7b565b8383612326565b5050565b60085481565b611514611af3565b612710816bffffffffffffffffffffffff161115611567576040517f08c379a000000000000000000000000000000000000000000000000000000000815260040161155e90614547565b60405180910390fd5b80600a60006101000a8154816bffffffffffffffffffffffff02191690836bffffffffffffffffffffffff16021790555050565b6115a3611af3565b60006009549050600060405180604001604052808673ffffffffffffffffffffffffffffffffffffffff16815260200185858080601f016020809104026020016040519081016040528093929190818152602001838380828437600081840152601f19601f82011690508083019250505050505050815250905080600e600084815260200190815260200160002060008201518160000160006101000a81548173ffffffffffffffffffffffffffffffffffffffff021916908373ffffffffffffffffffffffffffffffffffffffff160217905550602082015181600101908161168d9190614109565b509050507fb6cfc24a1bcf9eec9d98d2d98d44747953e0c034be77874f5ed1d86ede43e9556009546040516116c29190612dcb565b60405180910390a1600960008154809291906116dd906141db565b91905055505050505050565b6060600b80546116f890613b39565b80601f016020809104026020016040519081016040528092919081815260200182805461172490613b39565b80156117715780601f1061174657610100808354040283529160200191611771565b820191906000526020600020905b81548152906001019060200180831161175457829003601f168201915b5050505050905090565b6060600b805461178a90613b39565b80601f01602080910402602001604051908101604052809291908181526020018280546117b690613b39565b80156118035780601f106117d857610100808354040283529160200191611803565b820191906000526020600020905b8154815290600101906020018083116117e657829003601f168201915b5050505050905090565b6000600160008473ffffffffffffffffffffffffffffffffffffffff1673ffffffffffffffffffffffffffffffffffffffff16815260200190815260200160002060008373ffffffffffffffffffffffffffffffffffffffff1673ffffffffffffffffffffffffffffffffffffffff16815260200190815260200160002060009054906101000a900460ff16905092915050565b6118a9611b7b565b73ffffffffffffffffffffffffffffffffffffffff168573ffffffffffffffffffffffffffffffffffffffff1614806118ef57506118ee856118e9611b7b565b61180d565b5b61192e576040517f08c379a000000000000000000000000000000000000000000000000000000000815260040161192590613f5c565b60405180910390fd5b61193b8585858585612492565b5050505050565b61194a611af3565b600073ffffffffffffffffffffffffffffffffffffffff168173ffffffffffffffffffffffffffffffffffffffff16036119b9576040517f08c379a00000000000000000000000000000000000000000000000000000000081526004016119b0906145d9565b60405180910390fd5b6119c281611ea4565b50565b600d6020528060005260406000206000915054906101000a900460ff1681565b60007f2a55205a000000000000000000000000000000000000000000000000000000007bffffffffffffffffffffffffffffffffffffffffffffffffffffffff1916827bffffffffffffffffffffffffffffffffffffffffffffffffffffffff19161480611a585750611a578261272d565b5b9050919050565b606060028054611a6e90613b39565b80601f0160208091040260200160405190810160405280929190818152602001828054611a9a90613b39565b8015611ae75780601f10611abc57610100808354040283529160200191611ae7565b820191906000526020600020905b815481529060010190602001808311611aca57829003601f168201915b50505050509050919050565b611afb611b7b565b73ffffffffffffffffffffffffffffffffffffffff16611b196114a8565b73ffffffffffffffffffffffffffffffffffffffff1614611b6f576040517f08c379a0000000000000000000000000000000000000000000000000000000008152600401611b6690614645565b60405180910390fd5b565b6000612710905090565b600033905090565b8151835114611bc7576040517f08c379a0000000000000000000000000000000000000000000000000000000008152600401611bbe906146d7565b60405180910390fd5b600073ffffffffffffffffffffffffffffffffffffffff168473ffffffffffffffffffffffffffffffffffffffff1603611c36576040517f08c379a0000000000000000000000000000000000000000000000000000000008152600401611c2d90614769565b60405180910390fd5b6000611c40611b7b565b9050611c5081878787878761280f565b60005b8451811015611e01576000858281518110611c7157611c706142b5565b5b602002602001015190506000858381518110611c9057611c8f6142b5565b5b60200260200101519050600080600084815260200190815260200160002060008b73ffffffffffffffffffffffffffffffffffffffff1673ffffffffffffffffffffffffffffffffffffffff16815260200190815260200160002054905081811015611d31576040517f08c379a0000000000000000000000000000000000000000000000000000000008152600401611d28906147fb565b60405180910390fd5b81810360008085815260200190815260200160002060008c73ffffffffffffffffffffffffffffffffffffffff1673ffffffffffffffffffffffffffffffffffffffff168152602001908152602001600020819055508160008085815260200190815260200160002060008b73ffffffffffffffffffffffffffffffffffffffff1673ffffffffffffffffffffffffffffffffffffffff1681526020019081526020016000206000828254611de6919061481b565b9250508190555050505080611dfa906141db565b9050611c53565b508473ffffffffffffffffffffffffffffffffffffffff168673ffffffffffffffffffffffffffffffffffffffff168273ffffffffffffffffffffffffffffffffffffffff167f4a39dc06d4c0dbc64b70af90fd698a233a518aa5d07e595d983b8c0526c8f7fb8787604051611e7892919061484f565b60405180910390a4611e8e818787878787612817565b611e9c81878787878761281f565b505050505050565b6000600760009054906101000a900473ffffffffffffffffffffffffffffffffffffffff16905081600760006101000a81548173ffffffffffffffffffffffffffffffffffffffff021916908373ffffffffffffffffffffffffffffffffffffffff1602179055508173ffffffffffffffffffffffffffffffffffffffff168173ffffffffffffffffffffffffffffffffffffffff167f8be0079c531659141344cd1fd0a4f28419497f9722a3daafe3b4186f6b6457e060405160405180910390a35050565b600073ffffffffffffffffffffffffffffffffffffffff168473ffffffffffffffffffffffffffffffffffffffff1603611fd9576040517f08c379a0000000000000000000000000000000000000000000000000000000008152600401611fd0906148f8565b60405180910390fd5b6000611fe3611b7b565b90506000611ff0856129f6565b90506000611ffd856129f6565b905061200e8360008985858961280f565b8460008088815260200190815260200160002060008973ffffffffffffffffffffffffffffffffffffffff1673ffffffffffffffffffffffffffffffffffffffff168152602001908152602001600020600082825461206d919061481b565b925050819055508673ffffffffffffffffffffffffffffffffffffffff16600073ffffffffffffffffffffffffffffffffffffffff168473ffffffffffffffffffffffffffffffffffffffff167fc3d58168c5ae7397731d063d5bbf3d657854427343f4c083240f7aacaa2d0f6289896040516120eb929190614918565b60405180910390a461210283600089858589612817565b61211183600089898989612a70565b50505050505050565b8060046000848152602001908152602001600020908161213a9190614109565b50817f6bb7ff708619ba0610cba295a58592e0451dee2622938c8755667688daf3529b6121668461066c565b6040516121739190612f5e565b60405180910390a25050565b612187611b71565b6bffffffffffffffffffffffff16816bffffffffffffffffffffffff1611156121e5576040517f08c379a00000000000000000000000000000000000000000000000000000000081526004016121dc906149b3565b60405180910390fd5b600073ffffffffffffffffffffffffffffffffffffffff168273ffffffffffffffffffffffffffffffffffffffff1603612254576040517f08c379a000000000000000000000000000000000000000000000000000000000815260040161224b90614a1f565b60405180910390fd5b60405180604001604052808373ffffffffffffffffffffffffffffffffffffffff168152602001826bffffffffffffffffffffffff168152506006600085815260200190815260200160002060008201518160000160006101000a81548173ffffffffffffffffffffffffffffffffffffffff021916908373ffffffffffffffffffffffffffffffffffffffff16021790555060208201518160000160146101000a8154816bffffffffffffffffffffffff02191690836bffffffffffffffffffffffff160217905550905050505050565b8173ffffffffffffffffffffffffffffffffffffffff168373ffffffffffffffffffffffffffffffffffffffff1603612394576040517f08c379a000000000000000000000000000000000000000000000000000000000815260040161238b90614ab1565b60405180910390fd5b80600160008573ffffffffffffffffffffffffffffffffffffffff1673ffffffffffffffffffffffffffffffffffffffff16815260200190815260200160002060008473ffffffffffffffffffffffffffffffffffffffff1673ffffffffffffffffffffffffffffffffffffffff16815260200190815260200160002060006101000a81548160ff0219169083151502179055508173ffffffffffffffffffffffffffffffffffffffff168373ffffffffffffffffffffffffffffffffffffffff167f17307eab39ab6107e8899845ad3d59bd9653f200f220920489ca2b5937696c31836040516124859190612e86565b60405180910390a3505050565b600073ffffffffffffffffffffffffffffffffffffffff168473ffffffffffffffffffffffffffffffffffffffff1603612501576040517f08c379a00000000000000000000000000000000000000000000000000000000081526004016124f890614769565b60405180910390fd5b600061250b611b7b565b90506000612518856129f6565b90506000612525856129f6565b905061253583898985858961280f565b600080600088815260200190815260200160002060008a73ffffffffffffffffffffffffffffffffffffffff1673ffffffffffffffffffffffffffffffffffffffff168152602001908152602001600020549050858110156125cc576040517f08c379a00000000000000000000000000000000000000000000000000000000081526004016125c3906147fb565b60405180910390fd5b85810360008089815260200190815260200160002060008b73ffffffffffffffffffffffffffffffffffffffff1673ffffffffffffffffffffffffffffffffffffffff168152602001908152602001600020819055508560008089815260200190815260200160002060008a73ffffffffffffffffffffffffffffffffffffffff1673ffffffffffffffffffffffffffffffffffffffff1681526020019081526020016000206000828254612681919061481b565b925050819055508773ffffffffffffffffffffffffffffffffffffffff168973ffffffffffffffffffffffffffffffffffffffff168573ffffffffffffffffffffffffffffffffffffffff167fc3d58168c5ae7397731d063d5bbf3d657854427343f4c083240f7aacaa2d0f628a8a6040516126fe929190614918565b60405180910390a4612714848a8a86868a612817565b612722848a8a8a8a8a612a70565b505050505050505050565b60007fd9b67a26000000000000000000000000000000000000000000000000000000007bffffffffffffffffffffffffffffffffffffffffffffffffffffffff1916827bffffffffffffffffffffffffffffffffffffffffffffffffffffffff191614806127f857507f0e89341c000000000000000000000000000000000000000000000000000000007bffffffffffffffffffffffffffffffffffffffffffffffffffffffff1916827bffffffffffffffffffffffffffffffffffffffffffffffffffffffff1916145b80612808575061280782612c47565b5b9050919050565b505050505050565b505050505050565b61283e8473ffffffffffffffffffffffffffffffffffffffff16612cb1565b156129ee578373ffffffffffffffffffffffffffffffffffffffff1663bc197c8187878686866040518663ffffffff1660e01b8152600401612884959493929190614b26565b6020604051808303816000875af19250505080156128c057506040513d601f19601f820116820180604052508101906128bd9190614ba3565b60015b612965576128cc614bdd565b806308c379a00361292857506128e0614bff565b806128eb575061292a565b806040517f08c379a000000000000000000000000000000000000000000000000000000000815260040161291f9190612f5e565b60405180910390fd5b505b6040517f08c379a000000000000000000000000000000000000000000000000000000000815260040161295c90614d01565b60405180910390fd5b63bc197c8160e01b7bffffffffffffffffffffffffffffffffffffffffffffffffffffffff1916817bffffffffffffffffffffffffffffffffffffffffffffffffffffffff1916146129ec576040517f08c379a00000000000000000000000000000000000000000000000000000000081526004016129e390614d93565b60405180910390fd5b505b505050505050565b60606000600167ffffffffffffffff811115612a1557612a14613069565b5b604051908082528060200260200182016040528015612a435781602001602082028036833780820191505090505b5090508281600081518110612a5b57612a5a6142b5565b5b60200260200101818152505080915050919050565b612a8f8473ffffffffffffffffffffffffffffffffffffffff16612cb1565b15612c3f578373ffffffffffffffffffffffffffffffffffffffff1663f23a6e6187878686866040518663ffffffff1660e01b8152600401612ad5959493929190614db3565b6020604051808303816000875af1925050508015612b1157506040513d601f19601f82011682018060405250810190612b0e9190614ba3565b60015b612bb657612b1d614bdd565b806308c379a003612b795750612b31614bff565b80612b3c5750612b7b565b806040517f08c379a0000000000000000000000000000000000000000000000000000000008152600401612b709190612f5e565b60405180910390fd5b505b6040517f08c379a0000000000000000000000000000000000000000000000000000000008152600401612bad90614d01565b60405180910390fd5b63f23a6e6160e01b7bffffffffffffffffffffffffffffffffffffffffffffffffffffffff1916817bffffffffffffffffffffffffffffffffffffffffffffffffffffffff191614612c3d576040517f08c379a0000000000000000000000000000000000000000000000000000000008152600401612c3490614d93565b60405180910390fd5b505b505050505050565b60007f01ffc9a7000000000000000000000000000000000000000000000000000000007bffffffffffffffffffffffffffffffffffffffffffffffffffffffff1916827bffffffffffffffffffffffffffffffffffffffffffffffffffffffff1916149050919050565b6000808273ffffffffffffffffffffffffffffffffffffffff163b119050919050565b6000604051905090565b600080fd5b600080fd5b600073ffffffffffffffffffffffffffffffffffffffff82169050919050565b6000612d1382612ce8565b9050919050565b612d2381612d08565b8114612d2e57600080fd5b50565b600081359050612d4081612d1a565b92915050565b6000819050919050565b612d5981612d46565b8114612d6457600080fd5b50565b600081359050612d7681612d50565b92915050565b60008060408385031215612d9357612d92612cde565b5b6000612da185828601612d31565b9250506020612db285828601612d67565b9150509250929050565b612dc581612d46565b82525050565b6000602082019050612de06000830184612dbc565b92915050565b60007fffffffff0000000000000000000000000000000000000000000000000000000082169050919050565b612e1b81612de6565b8114612e2657600080fd5b50565b600081359050612e3881612e12565b92915050565b600060208284031215612e5457612e53612cde565b5b6000612e6284828501612e29565b91505092915050565b60008115159050919050565b612e8081612e6b565b82525050565b6000602082019050612e9b6000830184612e77565b92915050565b600060208284031215612eb757612eb6612cde565b5b6000612ec584828501612d67565b91505092915050565b600081519050919050565b600082825260208201905092915050565b60005b83811015612f08578082015181840152602081019050612eed565b60008484015250505050565b6000601f19601f8301169050919050565b6000612f3082612ece565b612f3a8185612ed9565b9350612f4a818560208601612eea565b612f5381612f14565b840191505092915050565b60006020820190508181036000830152612f788184612f25565b905092915050565b612f8981612e6b565b8114612f9457600080fd5b50565b600081359050612fa681612f80565b92915050565b60008060408385031215612fc357612fc2612cde565b5b6000612fd185828601612f97565b9250506020612fe285828601612d67565b9150509250929050565b6000806040838503121561300357613002612cde565b5b600061301185828601612d67565b925050602061302285828601612d67565b9150509250929050565b61303581612d08565b82525050565b6000604082019050613050600083018561302c565b61305d6020830184612dbc565b9392505050565b600080fd5b7f4e487b7100000000000000000000000000000000000000000000000000000000600052604160045260246000fd5b6130a182612f14565b810181811067ffffffffffffffff821117156130c0576130bf613069565b5b80604052505050565b60006130d3612cd4565b90506130df8282613098565b919050565b600067ffffffffffffffff8211156130ff576130fe613069565b5b602082029050602081019050919050565b600080fd5b6000613128613123846130e4565b6130c9565b9050808382526020820190506020840283018581111561314b5761314a613110565b5b835b8181101561317457806131608882612d67565b84526020840193505060208101905061314d565b5050509392505050565b600082601f83011261319357613192613064565b5b81356131a3848260208601613115565b91505092915050565b600080fd5b600067ffffffffffffffff8211156131cc576131cb613069565b5b6131d582612f14565b9050602081019050919050565b82818337600083830152505050565b60006132046131ff846131b1565b6130c9565b9050828152602081018484840111156132205761321f6131ac565b5b61322b8482856131e2565b509392505050565b600082601f83011261324857613247613064565b5b81356132588482602086016131f1565b91505092915050565b600080600080600060a0868803121561327d5761327c612cde565b5b600061328b88828901612d31565b955050602061329c88828901612d31565b945050604086013567ffffffffffffffff8111156132bd576132bc612ce3565b5b6132c98882890161317e565b935050606086013567ffffffffffffffff8111156132ea576132e9612ce3565b5b6132f68882890161317e565b925050608086013567ffffffffffffffff81111561331757613316612ce3565b5b61332388828901613233565b9150509295509295909350565b600080fd5b60008083601f84011261334b5761334a613064565b5b8235905067ffffffffffffffff81111561336857613367613330565b5b60208301915083600182028301111561338457613383613110565b5b9250929050565b600080600080600080608087890312156133a8576133a7612cde565b5b600087013567ffffffffffffffff8111156133c6576133c5612ce3565b5b6133d289828a01613335565b965096505060206133e589828a01612d67565b945050604087013567ffffffffffffffff81111561340657613405612ce3565b5b61341289828a01613335565b9350935050606061342589828a01612d67565b9150509295509295509295565b600067ffffffffffffffff82111561344d5761344c613069565b5b602082029050602081019050919050565b600061347161346c84613432565b6130c9565b9050808382526020820190506020840283018581111561349457613493613110565b5b835b818110156134bd57806134a98882612d31565b845260208401935050602081019050613496565b5050509392505050565b600082601f8301126134dc576134db613064565b5b81356134ec84826020860161345e565b91505092915050565b6000806040838503121561350c5761350b612cde565b5b600083013567ffffffffffffffff81111561352a57613529612ce3565b5b613536858286016134c7565b925050602083013567ffffffffffffffff81111561355757613556612ce3565b5b6135638582860161317e565b9150509250929050565b600081519050919050565b600082825260208201905092915050565b6000819050602082019050919050565b6135a281612d46565b82525050565b60006135b48383613599565b60208301905092915050565b6000602082019050919050565b60006135d88261356d565b6135e28185613578565b93506135ed83613589565b8060005b8381101561361e57815161360588826135a8565b9750613610836135c0565b9250506001810190506135f1565b5085935050505092915050565b6000602082019050818103600083015261364581846135cd565b905092915050565b60006bffffffffffffffffffffffff82169050919050565b61366e8161364d565b82525050565b60006020820190506136896000830184613665565b92915050565b7f4e487b7100000000000000000000000000000000000000000000000000000000600052602160045260246000fd5b600581106136cf576136ce61368f565b5b50565b60008190506136e0826136be565b919050565b60006136f0826136d2565b9050919050565b613700816136e5565b82525050565b600060e08201905061371b600083018a612dbc565b613728602083018961302c565b818103604083015261373a8188612f25565b90506137496060830187612dbc565b61375660808301866136f7565b81810360a08301526137688185612f25565b905061377760c0830184612dbc565b98975050505050505050565b60008060006040848603121561379c5761379b612cde565b5b60006137aa86828701612d67565b935050602084013567ffffffffffffffff8111156137cb576137ca612ce3565b5b6137d786828701613335565b92509250509250925092565b60006040820190506137f8600083018561302c565b818103602083015261380a8184612f25565b90509392505050565b6000602082019050613828600083018461302c565b92915050565b6000806020838503121561384557613844612cde565b5b600083013567ffffffffffffffff81111561386357613862612ce3565b5b61386f85828601613335565b92509250509250929050565b6000806040838503121561389257613891612cde565b5b60006138a085828601612d31565b92505060206138b185828601612f97565b9150509250929050565b6138c48161364d565b81146138cf57600080fd5b50565b6000813590506138e1816138bb565b92915050565b6000602082840312156138fd576138fc612cde565b5b600061390b848285016138d2565b91505092915050565b60008060006040848603121561392d5761392c612cde565b5b600061393b86828701612d31565b935050602084013567ffffffffffffffff81111561395c5761395b612ce3565b5b61396886828701613335565b92509250509250925092565b6000806040838503121561398b5761398a612cde565b5b600061399985828601612d31565b92505060206139aa85828601612d31565b9150509250929050565b600080600080600060a086880312156139d0576139cf612cde565b5b60006139de88828901612d31565b95505060206139ef88828901612d31565b9450506040613a0088828901612d67565b9350506060613a1188828901612d67565b925050608086013567ffffffffffffffff811115613a3257613a31612ce3565b5b613a3e88828901613233565b9150509295509295909350565b600060208284031215613a6157613a60612cde565b5b6000613a6f84828501612d31565b91505092915050565b7f455243313135353a2061646472657373207a65726f206973206e6f742061207660008201527f616c6964206f776e657200000000000000000000000000000000000000000000602082015250565b6000613ad4602a83612ed9565b9150613adf82613a78565b604082019050919050565b60006020820190508181036000830152613b0381613ac7565b9050919050565b7f4e487b7100000000000000000000000000000000000000000000000000000000600052602260045260246000fd5b60006002820490506001821680613b5157607f821691505b602082108103613b6457613b63613b0a565b5b50919050565b600081905092915050565b60008190508160005260206000209050919050565b60008154613b9781613b39565b613ba18186613b6a565b94506001821660008114613bbc5760018114613bd157613c04565b60ff1983168652811515820286019350613c04565b613bda85613b75565b60005b83811015613bfc57815481890152600182019150602081019050613bdd565b838801955050505b50505092915050565b6000613c1882612ece565b613c228185613b6a565b9350613c32818560208601612eea565b80840191505092915050565b6000613c4a8285613b8a565b9150613c568284613c0d565b91508190509392505050565b7f6e667420646f65736e2774206578697374000000000000000000000000000000600082015250565b6000613c98601183612ed9565b9150613ca382613c62565b602082019050919050565b60006020820190508181036000830152613cc781613c8b565b9050919050565b7f4e465420737461747573206973206e6f742070726f706f736564000000000000600082015250565b6000613d04601a83612ed9565b9150613d0f82613cce565b602082019050919050565b60006020820190508181036000830152613d3381613cf7565b9050919050565b6000819050919050565b600060ff82169050919050565b6000819050919050565b6000613d76613d71613d6c84613d3a565b613d51565b613d44565b9050919050565b613d8681613d5b565b82525050565b6000604082019050613da16000830185612dbc565b613dae6020830184613d7d565b9392505050565b6000819050919050565b6000613dda613dd5613dd084613db5565b613d51565b613d44565b9050919050565b613dea81613dbf565b82525050565b6000604082019050613e056000830185612dbc565b613e126020830184613de1565b9392505050565b7f4e487b7100000000000000000000000000000000000000000000000000000000600052601160045260246000fd5b6000613e5382612d46565b9150613e5e83612d46565b9250828202613e6c81612d46565b91508282048414831517613e8357613e82613e19565b5b5092915050565b7f4e487b7100000000000000000000000000000000000000000000000000000000600052601260045260246000fd5b6000613ec482612d46565b9150613ecf83612d46565b925082613edf57613ede613e8a565b5b828204905092915050565b7f455243313135353a2063616c6c6572206973206e6f7420746f6b656e206f776e60008201527f6572206f7220617070726f766564000000000000000000000000000000000000602082015250565b6000613f46602e83612ed9565b9150613f5182613eea565b604082019050919050565b60006020820190508181036000830152613f7581613f39565b9050919050565b60006020601f8301049050919050565b600082821b905092915050565b600060088302613fc97fffffffffffffffffffffffffffffffffffffffffffffffffffffffffffffffff82613f8c565b613fd38683613f8c565b95508019841693508086168417925050509392505050565b6000614006614001613ffc84612d46565b613d51565b612d46565b9050919050565b6000819050919050565b61402083613feb565b61403461402c8261400d565b848454613f99565b825550505050565b600090565b61404961403c565b614054818484614017565b505050565b5b818110156140785761406d600082614041565b60018101905061405a565b5050565b601f8211156140bd5761408e81613b75565b61409784613f7c565b810160208510156140a6578190505b6140ba6140b285613f7c565b830182614059565b50505b505050565b600082821c905092915050565b60006140e0600019846008026140c2565b1980831691505092915050565b60006140f983836140cf565b9150826002028217905092915050565b61411282612ece565b67ffffffffffffffff81111561412b5761412a613069565b5b6141358254613b39565b61414082828561407c565b600060209050601f8311600181146141735760008415614161578287015190505b61416b85826140ed565b8655506141d3565b601f19841661418186613b75565b60005b828110156141a957848901518255600182019150602085019450602081019050614184565b868310156141c657848901516141c2601f8916826140cf565b8355505b6001600288020188555050505b505050505050565b60006141e682612d46565b91507fffffffffffffffffffffffffffffffffffffffffffffffffffffffffffffffff820361421857614217613e19565b5b600182019050919050565b7f455243313135353a206163636f756e747320616e6420696473206c656e67746860008201527f206d69736d617463680000000000000000000000000000000000000000000000602082015250565b600061427f602983612ed9565b915061428a82614223565b604082019050919050565b600060208201905081810360008301526142ae81614272565b9050919050565b7f4e487b7100000000000000000000000000000000000000000000000000000000600052603260045260246000fd5b7f6e6674207374617475732069736e277420616363657074656400000000000000600082015250565b600061431a601983612ed9565b9150614325826142e4565b602082019050919050565b600060208201905081810360008301526143498161430d565b9050919050565b7f6e6f7420746865206e66742070726f706f736572000000000000000000000000600082015250565b6000614386601483612ed9565b915061439182614350565b602082019050919050565b600060208201905081810360008301526143b581614379565b9050919050565b6000819050919050565b60006143e16143dc6143d7846143bc565b613d51565b613d44565b9050919050565b6143f1816143c6565b82525050565b600060408201905061440c6000830185612dbc565b61441960208301846143e8565b9392505050565b600082905092915050565b6144358383614420565b67ffffffffffffffff81111561444e5761444d613069565b5b6144588254613b39565b61446382828561407c565b6000601f8311600181146144925760008415614480578287013590505b61448a85826140ed565b8655506144f2565b601f1984166144a086613b75565b60005b828110156144c8578489013582556001820191506020850194506020810190506144a3565b868310156144e557848901356144e1601f8916826140cf565b8355505b6001600288020188555050505b50505050505050565b7f66656520746f6f20686967680000000000000000000000000000000000000000600082015250565b6000614531600c83612ed9565b915061453c826144fb565b602082019050919050565b6000602082019050818103600083015261456081614524565b9050919050565b7f4f776e61626c653a206e6577206f776e657220697320746865207a65726f206160008201527f6464726573730000000000000000000000000000000000000000000000000000602082015250565b60006145c3602683612ed9565b91506145ce82614567565b604082019050919050565b600060208201905081810360008301526145f2816145b6565b9050919050565b7f4f776e61626c653a2063616c6c6572206973206e6f7420746865206f776e6572600082015250565b600061462f602083612ed9565b915061463a826145f9565b602082019050919050565b6000602082019050818103600083015261465e81614622565b9050919050565b7f455243313135353a2069647320616e6420616d6f756e7473206c656e6774682060008201527f6d69736d61746368000000000000000000000000000000000000000000000000602082015250565b60006146c1602883612ed9565b91506146cc82614665565b604082019050919050565b600060208201905081810360008301526146f0816146b4565b9050919050565b7f455243313135353a207472616e7366657220746f20746865207a65726f20616460008201527f6472657373000000000000000000000000000000000000000000000000000000602082015250565b6000614753602583612ed9565b915061475e826146f7565b604082019050919050565b6000602082019050818103600083015261478281614746565b9050919050565b7f455243313135353a20696e73756666696369656e742062616c616e636520666f60008201527f72207472616e7366657200000000000000000000000000000000000000000000602082015250565b60006147e5602a83612ed9565b91506147f082614789565b604082019050919050565b60006020820190508181036000830152614814816147d8565b9050919050565b600061482682612d46565b915061483183612d46565b925082820190508082111561484957614848613e19565b5b92915050565b6000604082019050818103600083015261486981856135cd565b9050818103602083015261487d81846135cd565b90509392505050565b7f455243313135353a206d696e7420746f20746865207a65726f2061646472657360008201527f7300000000000000000000000000000000000000000000000000000000000000602082015250565b60006148e2602183612ed9565b91506148ed82614886565b604082019050919050565b60006020820190508181036000830152614911816148d5565b9050919050565b600060408201905061492d6000830185612dbc565b61493a6020830184612dbc565b9392505050565b7f455243323938313a20726f79616c7479206665652077696c6c2065786365656460008201527f2073616c65507269636500000000000000000000000000000000000000000000602082015250565b600061499d602a83612ed9565b91506149a882614941565b604082019050919050565b600060208201905081810360008301526149cc81614990565b9050919050565b7f455243323938313a20496e76616c696420706172616d65746572730000000000600082015250565b6000614a09601b83612ed9565b9150614a14826149d3565b602082019050919050565b60006020820190508181036000830152614a38816149fc565b9050919050565b7f455243313135353a2073657474696e6720617070726f76616c2073746174757360008201527f20666f722073656c660000000000000000000000000000000000000000000000602082015250565b6000614a9b602983612ed9565b9150614aa682614a3f565b604082019050919050565b60006020820190508181036000830152614aca81614a8e565b9050919050565b600081519050919050565b600082825260208201905092915050565b6000614af882614ad1565b614b028185614adc565b9350614b12818560208601612eea565b614b1b81612f14565b840191505092915050565b600060a082019050614b3b600083018861302c565b614b48602083018761302c565b8181036040830152614b5a81866135cd565b90508181036060830152614b6e81856135cd565b90508181036080830152614b828184614aed565b90509695505050505050565b600081519050614b9d81612e12565b92915050565b600060208284031215614bb957614bb8612cde565b5b6000614bc784828501614b8e565b91505092915050565b60008160e01c9050919050565b600060033d1115614bfc5760046000803e614bf9600051614bd0565b90505b90565b600060443d10614c8c57614c11612cd4565b60043d036004823e80513d602482011167ffffffffffffffff82111715614c39575050614c8c565b808201805167ffffffffffffffff811115614c575750505050614c8c565b80602083010160043d038501811115614c74575050505050614c8c565b614c8382602001850186613098565b82955050505050505b90565b7f455243313135353a207472616e7366657220746f206e6f6e2d4552433131353560008201527f526563656976657220696d706c656d656e746572000000000000000000000000602082015250565b6000614ceb603483612ed9565b9150614cf682614c8f565b604082019050919050565b60006020820190508181036000830152614d1a81614cde565b9050919050565b7f455243313135353a204552433131353552656365697665722072656a6563746560008201527f6420746f6b656e73000000000000000000000000000000000000000000000000602082015250565b6000614d7d602883612ed9565b9150614d8882614d21565b604082019050919050565b60006020820190508181036000830152614dac81614d70565b9050919050565b600060a082019050614dc8600083018861302c565b614dd5602083018761302c565b614de26040830186612dbc565b614def6060830185612dbc565b8181036080830152614e018184614aed565b9050969550505050505056fea26469706673582212205eb5a729669c6847f9eb091837cb324382c506ef8c379050eac7ca797e00e6b164736f6c63430008110033",
  "linkReferences": {},
  "deployedLinkReferences": {}
}