{
  "_format": "hh-sol-artifact-1",
  "contractName": "CollectorChain",
  "sourceName": "contracts/CollectorChain.sol",
  "abi": [
    {
      "inputs": [],
      "stateMutability": "nonpayable",
      "type": "constructor"
    },
    {
      "anonymous": false,
      "inputs": [
        {
          "indexed": true,
          "internalType": "address",
          "name": "account",
          "type": "address"
        },
        {
          "indexed": true,
          "internalType": "address",
          "name": "operator",
          "type": "address"
        },
        {
          "indexed": false,
          "internalType": "bool",
          "name": "approved",
          "type": "bool"
        }
      ],
      "name": "ApprovalForAll",
      "type": "event"
    },
    {
      "anonymous": false,
      "inputs": [
        {
          "indexed": true,
          "internalType": "address",
          "name": "previousOwner",
          "type": "address"
        },
        {
          "indexed": true,
          "internalType": "address",
          "name": "newOwner",
          "type": "address"
        }
      ],
      "name": "OwnershipTransferred",
      "type": "event"
    },
    {
      "anonymous": false,
      "inputs": [
        {
          "indexed": true,
          "internalType": "address",
          "name": "operator",
          "type": "address"
        },
        {
          "indexed": true,
          "internalType": "address",
          "name": "from",
          "type": "address"
        },
        {
          "indexed": true,
          "internalType": "address",
          "name": "to",
          "type": "address"
        },
        {
          "indexed": false,
          "internalType": "uint256[]",
          "name": "ids",
          "type": "uint256[]"
        },
        {
          "indexed": false,
          "internalType": "uint256[]",
          "name": "values",
          "type": "uint256[]"
        }
      ],
      "name": "TransferBatch",
      "type": "event"
    },
    {
      "anonymous": false,
      "inputs": [
        {
          "indexed": true,
          "internalType": "address",
          "name": "operator",
          "type": "address"
        },
        {
          "indexed": true,
          "internalType": "address",
          "name": "from",
          "type": "address"
        },
        {
          "indexed": true,
          "internalType": "address",
          "name": "to",
          "type": "address"
        },
        {
          "indexed": false,
          "internalType": "uint256",
          "name": "id",
          "type": "uint256"
        },
        {
          "indexed": false,
          "internalType": "uint256",
          "name": "value",
          "type": "uint256"
        }
      ],
      "name": "TransferSingle",
      "type": "event"
    },
    {
      "anonymous": false,
      "inputs": [
        {
          "indexed": false,
          "internalType": "string",
          "name": "value",
          "type": "string"
        },
        {
          "indexed": true,
          "internalType": "uint256",
          "name": "id",
          "type": "uint256"
        }
      ],
      "name": "URI",
      "type": "event"
    },
    {
      "anonymous": false,
      "inputs": [
        {
          "indexed": false,
          "internalType": "uint256",
          "name": "mintProposalId",
          "type": "uint256"
        }
      ],
      "name": "mintProposalCreationEvent",
      "type": "event"
    },
    {
      "anonymous": false,
      "inputs": [
        {
          "indexed": false,
          "internalType": "uint256",
          "name": "mintProposalId",
          "type": "uint256"
        },
        {
          "indexed": false,
          "internalType": "uint8",
          "name": "status",
          "type": "uint8"
        }
      ],
      "name": "mintProposalStatusUpdateEvent",
      "type": "event"
    },
    {
      "anonymous": false,
      "inputs": [
        {
          "indexed": false,
          "internalType": "uint256",
          "name": "stockerId",
          "type": "uint256"
        }
      ],
      "name": "stockerCreationEvent",
      "type": "event"
    },
    {
      "inputs": [],
      "name": "_baseFeeNumerator",
      "outputs": [
        {
          "internalType": "uint96",
          "name": "",
          "type": "uint96"
        }
      ],
      "stateMutability": "view",
      "type": "function"
    },
    {
      "inputs": [],
      "name": "_nftIdCounter",
      "outputs": [
        {
          "internalType": "uint256",
          "name": "",
          "type": "uint256"
        }
      ],
      "stateMutability": "view",
      "type": "function"
    },
    {
      "inputs": [],
      "name": "_stockerIdCounter",
      "outputs": [
        {
          "internalType": "uint256",
          "name": "",
          "type": "uint256"
        }
      ],
      "stateMutability": "view",
      "type": "function"
    },
    {
      "inputs": [
        {
          "internalType": "address",
          "name": "account",
          "type": "address"
        },
        {
          "internalType": "uint256",
          "name": "id",
          "type": "uint256"
        }
      ],
      "name": "balanceOf",
      "outputs": [
        {
          "internalType": "uint256",
          "name": "",
          "type": "uint256"
        }
      ],
      "stateMutability": "view",
      "type": "function"
    },
    {
      "inputs": [
        {
          "internalType": "address[]",
          "name": "accounts",
          "type": "address[]"
        },
        {
          "internalType": "uint256[]",
          "name": "ids",
          "type": "uint256[]"
        }
      ],
      "name": "balanceOfBatch",
      "outputs": [
        {
          "internalType": "uint256[]",
          "name": "",
          "type": "uint256[]"
        }
      ],
      "stateMutability": "view",
      "type": "function"
    },
    {
      "inputs": [],
      "name": "contractMetaDataURI",
      "outputs": [
        {
          "internalType": "string",
          "name": "",
          "type": "string"
        }
      ],
      "stateMutability": "view",
      "type": "function"
    },
    {
      "inputs": [],
      "name": "contractURI",
      "outputs": [
        {
          "internalType": "string",
          "name": "",
          "type": "string"
        }
      ],
      "stateMutability": "view",
      "type": "function"
    },
    {
      "inputs": [
        {
          "internalType": "string",
          "name": "_nftName",
          "type": "string"
        },
        {
          "internalType": "uint256",
          "name": "_stockerId",
          "type": "uint256"
        },
        {
          "internalType": "string",
          "name": "_imageURL",
          "type": "string"
        },
        {
          "internalType": "uint256",
          "name": "_sharesQty",
          "type": "uint256"
        }
      ],
      "name": "createMintProposal",
      "outputs": [],
      "stateMutability": "nonpayable",
      "type": "function"
    },
    {
      "inputs": [],
      "name": "getMetaData",
      "outputs": [
        {
          "internalType": "string",
          "name": "",
          "type": "string"
        }
      ],
      "stateMutability": "view",
      "type": "function"
    },
    {
      "inputs": [],
      "name": "getNftId",
      "outputs": [
        {
          "internalType": "uint256",
          "name": "",
          "type": "uint256"
        }
      ],
      "stateMutability": "view",
      "type": "function"
    },
    {
      "inputs": [
        {
          "internalType": "address",
          "name": "account",
          "type": "address"
        },
        {
          "internalType": "address",
          "name": "operator",
          "type": "address"
        }
      ],
      "name": "isApprovedForAll",
      "outputs": [
        {
          "internalType": "bool",
          "name": "",
          "type": "bool"
        }
      ],
      "stateMutability": "view",
      "type": "function"
    },
    {
      "inputs": [
        {
          "internalType": "uint256",
          "name": "",
          "type": "uint256"
        }
      ],
      "name": "isNftExist",
      "outputs": [
        {
          "internalType": "bool",
          "name": "",
          "type": "bool"
        }
      ],
      "stateMutability": "view",
      "type": "function"
    },
    {
      "inputs": [
        {
          "internalType": "uint256",
          "name": "_nftId",
          "type": "uint256"
        },
        {
          "internalType": "string",
          "name": "_nftURI",
          "type": "string"
        }
      ],
      "name": "mintNft",
      "outputs": [],
      "stateMutability": "nonpayable",
      "type": "function"
    },
    {
      "inputs": [
        {
          "internalType": "uint256",
          "name": "_number",
          "type": "uint256"
        }
      ],
      "name": "multiplyValue",
      "outputs": [
        {
          "internalType": "uint256",
          "name": "result",
          "type": "uint256"
        }
      ],
      "stateMutability": "nonpayable",
      "type": "function"
    },
    {
      "inputs": [
        {
          "internalType": "uint256",
          "name": "",
          "type": "uint256"
        }
      ],
      "name": "nftList",
      "outputs": [
        {
          "internalType": "uint256",
          "name": "nftId",
          "type": "uint256"
        },
        {
          "internalType": "address",
          "name": "minter",
          "type": "address"
        },
        {
          "internalType": "string",
          "name": "nftName",
          "type": "string"
        },
        {
          "internalType": "uint256",
          "name": "stockerId",
          "type": "uint256"
        },
        {
          "internalType": "enum CollectorChain.Status",
          "name": "status",
          "type": "uint8"
        },
        {
          "internalType": "string",
          "name": "imageURL",
          "type": "string"
        },
        {
          "internalType": "uint256",
          "name": "sharesQty",
          "type": "uint256"
        }
      ],
      "stateMutability": "view",
      "type": "function"
    },
    {
      "inputs": [],
      "name": "owner",
      "outputs": [
        {
          "internalType": "address",
          "name": "",
          "type": "address"
        }
      ],
      "stateMutability": "view",
      "type": "function"
    },
    {
      "inputs": [],
      "name": "renounceOwnership",
      "outputs": [],
      "stateMutability": "nonpayable",
      "type": "function"
    },
    {
      "inputs": [
        {
          "internalType": "uint256",
          "name": "_tokenId",
          "type": "uint256"
        },
        {
          "internalType": "uint256",
          "name": "_salePrice",
          "type": "uint256"
        }
      ],
      "name": "royaltyInfo",
      "outputs": [
        {
          "internalType": "address",
          "name": "",
          "type": "address"
        },
        {
          "internalType": "uint256",
          "name": "",
          "type": "uint256"
        }
      ],
      "stateMutability": "view",
      "type": "function"
    },
    {
      "inputs": [
        {
          "internalType": "address",
          "name": "from",
          "type": "address"
        },
        {
          "internalType": "address",
          "name": "to",
          "type": "address"
        },
        {
          "internalType": "uint256[]",
          "name": "ids",
          "type": "uint256[]"
        },
        {
          "internalType": "uint256[]",
          "name": "amounts",
          "type": "uint256[]"
        },
        {
          "internalType": "bytes",
          "name": "data",
          "type": "bytes"
        }
      ],
      "name": "safeBatchTransferFrom",
      "outputs": [],
      "stateMutability": "nonpayable",
      "type": "function"
    },
    {
      "inputs": [
        {
          "internalType": "address",
          "name": "from",
          "type": "address"
        },
        {
          "internalType": "address",
          "name": "to",
          "type": "address"
        },
        {
          "internalType": "uint256",
          "name": "id",
          "type": "uint256"
        },
        {
          "internalType": "uint256",
          "name": "amount",
          "type": "uint256"
        },
        {
          "internalType": "bytes",
          "name": "data",
          "type": "bytes"
        }
      ],
      "name": "safeTransferFrom",
      "outputs": [],
      "stateMutability": "nonpayable",
      "type": "function"
    },
    {
      "inputs": [
        {
          "internalType": "address",
          "name": "operator",
          "type": "address"
        },
        {
          "internalType": "bool",
          "name": "approved",
          "type": "bool"
        }
      ],
      "name": "setApprovalForAll",
      "outputs": [],
      "stateMutability": "nonpayable",
      "type": "function"
    },
    {
      "inputs": [
        {
          "internalType": "uint96",
          "name": "_fee",
          "type": "uint96"
        }
      ],
      "name": "setBaseFee",
      "outputs": [],
      "stateMutability": "nonpayable",
      "type": "function"
    },
    {
      "inputs": [
        {
          "internalType": "string",
          "name": "_contractURI",
          "type": "string"
        }
      ],
      "name": "setContractURI",
      "outputs": [],
      "stateMutability": "nonpayable",
      "type": "function"
    },
    {
      "inputs": [
        {
          "internalType": "bool",
          "name": "_vote",
          "type": "bool"
        },
        {
          "internalType": "uint256",
          "name": "_nftId",
          "type": "uint256"
        }
      ],
      "name": "setMintProposalStatus",
      "outputs": [],
      "stateMutability": "nonpayable",
      "type": "function"
    },
    {
      "inputs": [
        {
          "internalType": "address",
          "name": "_stockerAddr",
          "type": "address"
        },
        {
          "internalType": "string",
          "name": "_stockerName",
          "type": "string"
        }
      ],
      "name": "stockerCreation",
      "outputs": [],
      "stateMutability": "nonpayable",
      "type": "function"
    },
    {
      "inputs": [
        {
          "internalType": "uint256",
          "name": "",
          "type": "uint256"
        }
      ],
      "name": "stockerList",
      "outputs": [
        {
          "internalType": "address",
          "name": "stockerAddr",
          "type": "address"
        },
        {
          "internalType": "string",
          "name": "stockerName",
          "type": "string"
        }
      ],
      "stateMutability": "view",
      "type": "function"
    },
    {
      "inputs": [
        {
          "internalType": "bytes4",
          "name": "interfaceId",
          "type": "bytes4"
        }
      ],
      "name": "supportsInterface",
      "outputs": [
        {
          "internalType": "bool",
          "name": "",
          "type": "bool"
        }
      ],
      "stateMutability": "view",
      "type": "function"
    },
    {
      "inputs": [
        {
          "internalType": "address",
          "name": "newOwner",
          "type": "address"
        }
      ],
      "name": "transferOwnership",
      "outputs": [],
      "stateMutability": "nonpayable",
      "type": "function"
    },
    {
      "inputs": [
        {
          "internalType": "uint256",
          "name": "tokenId",
          "type": "uint256"
        }
      ],
      "name": "uri",
      "outputs": [
        {
          "internalType": "string",
          "name": "",
          "type": "string"
        }
      ],
      "stateMutability": "view",
      "type": "function"
    },
    {
      "inputs": [],
      "name": "value",
      "outputs": [
        {
          "internalType": "uint256",
          "name": "",
          "type": "uint256"
        }
      ],
      "stateMutability": "view",
      "type": "function"
    }
  ],
  "bytecode": "0x6080604052604051806020016040528060008152506003908162000024919062000457565b506101f4600a60006101000a8154816bffffffffffffffffffffffff02191690836bffffffffffffffffffffffff1602179055506040518060400160405280600681526020017f636f75636f750000000000000000000000000000000000000000000000000000815250600b90816200009e919062000457565b50600a600c55348015620000b157600080fd5b5060405180602001604052806000815250620000d381620000fa60201b60201c565b50620000f4620000e86200010f60201b60201c565b6200011760201b60201c565b6200053e565b80600290816200010b919062000457565b5050565b600033905090565b6000600760009054906101000a900473ffffffffffffffffffffffffffffffffffffffff16905081600760006101000a81548173ffffffffffffffffffffffffffffffffffffffff021916908373ffffffffffffffffffffffffffffffffffffffff1602179055508173ffffffffffffffffffffffffffffffffffffffff168173ffffffffffffffffffffffffffffffffffffffff167f8be0079c531659141344cd1fd0a4f28419497f9722a3daafe3b4186f6b6457e060405160405180910390a35050565b600081519050919050565b7f4e487b7100000000000000000000000000000000000000000000000000000000600052604160045260246000fd5b7f4e487b7100000000000000000000000000000000000000000000000000000000600052602260045260246000fd5b600060028204905060018216806200025f57607f821691505b60208210810362000275576200027462000217565b5b50919050565b60008190508160005260206000209050919050565b60006020601f8301049050919050565b600082821b905092915050565b600060088302620002df7fffffffffffffffffffffffffffffffffffffffffffffffffffffffffffffffff82620002a0565b620002eb8683620002a0565b95508019841693508086168417925050509392505050565b6000819050919050565b6000819050919050565b600062000338620003326200032c8462000303565b6200030d565b62000303565b9050919050565b6000819050919050565b620003548362000317565b6200036c62000363826200033f565b848454620002ad565b825550505050565b600090565b6200038362000374565b6200039081848462000349565b505050565b5b81811015620003b857620003ac60008262000379565b60018101905062000396565b5050565b601f8211156200040757620003d1816200027b565b620003dc8462000290565b81016020851015620003ec578190505b62000404620003fb8562000290565b83018262000395565b50505b505050565b600082821c905092915050565b60006200042c600019846008026200040c565b1980831691505092915050565b600062000447838362000419565b9150826002028217905092915050565b6200046282620001dd565b67ffffffffffffffff8111156200047e576200047d620001e8565b5b6200048a825462000246565b62000497828285620003bc565b600060209050601f831160018114620004cf5760008415620004ba578287015190505b620004c6858262000439565b86555062000536565b601f198416620004df866200027b565b60005b828110156200050957848901518255600182019150602085019450602081019050620004e2565b8683101562000529578489015162000525601f89168262000419565b8355505b6001600288020188555050505b505050505050565b614ecd806200054e6000396000f3fe608060405234801561001057600080fd5b50600436106101d95760003560e01c806377131db711610104578063c5381618116100a2578063e985e9c511610071578063e985e9c51461055e578063f242432a1461058e578063f2fde38b146105aa578063f612c0de146105c6576101d9565b8063c5381618146104d6578063d1fe0115146104f2578063d2786ba414610522578063e8a3d48514610540576101d9565b8063938e3d7b116100de578063938e3d7b14610464578063a22cb46514610480578063b5fd169c1461049c578063be4f00cd146104ba576101d9565b806377131db7146103f7578063891e3d70146104285780638da5cb5b14610446576101d9565b8063308a9cb61161017c57806368f99bd81161014b57806368f99bd81461037d578063715018a61461039b57806375bea166146103a557806376052e04146103db576101d9565b8063308a9cb6146102f55780633fa4f245146103115780634e1273f41461032f578063644c45e01461035f576101d9565b806322e73a5d116101b857806322e73a5d1461026e57806329a7670a1461028a5780632a55205a146102a85780632eb2c2d6146102d9576101d9565b8062fdd58e146101de57806301ffc9a71461020e5780630e89341c1461023e575b600080fd5b6101f860048036038101906101f39190612e06565b6105f6565b6040516102059190612e55565b60405180910390f35b61022860048036038101906102239190612ec8565b6106be565b6040516102359190612f10565b60405180910390f35b61025860048036038101906102539190612f2b565b6106d0565b6040516102659190612fe8565b60405180910390f35b61028860048036038101906102839190613036565b6107b5565b005b6102926109a9565b60405161029f9190612fe8565b60405180910390f35b6102c260048036038101906102bd9190613076565b610a37565b6040516102d09291906130c5565b60405180910390f35b6102f360048036038101906102ee91906132eb565b610c21565b005b61030f600480360381019061030a9190613415565b610cc2565b005b610319610f10565b6040516103269190612e55565b60405180910390f35b6103496004803603810190610344919061357f565b610f16565b60405161035691906136b5565b60405180910390f35b61036761102f565b6040516103749190612e55565b60405180910390f35b610385611039565b60405161039291906136fe565b60405180910390f35b6103a3611057565b005b6103bf60048036038101906103ba9190612f2b565b61106b565b6040516103d29796959493929190613790565b60405180910390f35b6103f560048036038101906103f0919061380d565b6111ea565b005b610411600480360381019061040c9190612f2b565b611440565b60405161041f92919061386d565b60405180910390f35b61043061150c565b60405161043d9190612e55565b60405180910390f35b61044e611512565b60405161045b919061389d565b60405180910390f35b61047e600480360381019061047991906138b8565b61153c565b005b61049a60048036038101906104959190613905565b61155a565b005b6104a4611570565b6040516104b19190612e55565b60405180910390f35b6104d460048036038101906104cf9190613971565b611576565b005b6104f060048036038101906104eb919061399e565b611605565b005b61050c60048036038101906105079190612f2b565b611753565b6040516105199190612e55565b60405180910390f35b61052a611773565b6040516105379190612fe8565b60405180910390f35b610548611805565b6040516105559190612fe8565b60405180910390f35b610578600480360381019061057391906139fe565b611897565b6040516105859190612f10565b60405180910390f35b6105a860048036038101906105a39190613a3e565b61192b565b005b6105c460048036038101906105bf9190613ad5565b6119cc565b005b6105e060048036038101906105db9190612f2b565b611a4f565b6040516105ed9190612f10565b60405180910390f35b60008073ffffffffffffffffffffffffffffffffffffffff168373ffffffffffffffffffffffffffffffffffffffff1603610666576040517f08c379a000000000000000000000000000000000000000000000000000000000815260040161065d90613b74565b60405180910390fd5b60008083815260200190815260200160002060008473ffffffffffffffffffffffffffffffffffffffff1673ffffffffffffffffffffffffffffffffffffffff16815260200190815260200160002054905092915050565b60006106c982611a6f565b9050919050565b606060006004600084815260200190815260200160002080546106f290613bc3565b80601f016020809104026020016040519081016040528092919081815260200182805461071e90613bc3565b801561076b5780601f106107405761010080835404028352916020019161076b565b820191906000526020600020905b81548152906001019060200180831161074e57829003601f168201915b5050505050905060008151116107895761078483611ae9565b6107ad565b60038160405160200161079d929190613cc8565b6040516020818303038152906040525b915050919050565b6107bd611b7d565b600e600082815260200190815260200160002060009054906101000a900460ff1661081d576040517f08c379a000000000000000000000000000000000000000000000000000000000815260040161081490613d38565b60405180910390fd5b6000600481111561083157610830613719565b5b600d600083815260200190815260200160002060040160009054906101000a900460ff16600481111561086757610866613719565b5b146108a7576040517f08c379a000000000000000000000000000000000000000000000000000000000815260040161089e90613da4565b60405180910390fd5b811561092b576001600d600083815260200190815260200160002060040160006101000a81548160ff021916908360048111156108e7576108e6613719565b5b02179055507f3d3ee96f2bb6e9f1ae3eb4b2e70560b1afb5d141055e91707a654773659ffd7981600160405161091e929190613e16565b60405180910390a16109a5565b6002600d600083815260200190815260200160002060040160006101000a81548160ff0219169083600481111561096557610964613719565b5b02179055507f3d3ee96f2bb6e9f1ae3eb4b2e70560b1afb5d141055e91707a654773659ffd7981600260405161099c929190613e7a565b60405180910390a15b5050565b600b80546109b690613bc3565b80601f01602080910402602001604051908101604052809291908181526020018280546109e290613bc3565b8015610a2f5780601f10610a0457610100808354040283529160200191610a2f565b820191906000526020600020905b815481529060010190602001808311610a1257829003601f168201915b505050505081565b6000806000600660008681526020019081526020016000206040518060400160405290816000820160009054906101000a900473ffffffffffffffffffffffffffffffffffffffff1673ffffffffffffffffffffffffffffffffffffffff1673ffffffffffffffffffffffffffffffffffffffff1681526020016000820160149054906101000a90046bffffffffffffffffffffffff166bffffffffffffffffffffffff166bffffffffffffffffffffffff16815250509050600073ffffffffffffffffffffffffffffffffffffffff16816000015173ffffffffffffffffffffffffffffffffffffffff1603610bcc5760056040518060400160405290816000820160009054906101000a900473ffffffffffffffffffffffffffffffffffffffff1673ffffffffffffffffffffffffffffffffffffffff1673ffffffffffffffffffffffffffffffffffffffff1681526020016000820160149054906101000a90046bffffffffffffffffffffffff166bffffffffffffffffffffffff166bffffffffffffffffffffffff168152505090505b6000610bd6611bfb565b6bffffffffffffffffffffffff1682602001516bffffffffffffffffffffffff1686610c029190613ed2565b610c0c9190613f43565b90508160000151819350935050509250929050565b610c29611c05565b73ffffffffffffffffffffffffffffffffffffffff168573ffffffffffffffffffffffffffffffffffffffff161480610c6f5750610c6e85610c69611c05565b611897565b5b610cae576040517f08c379a0000000000000000000000000000000000000000000000000000000008152600401610ca590613fe6565b60405180910390fd5b610cbb8585858585611c0d565b5050505050565b6000600854905060006040518060e001604052808381526020013373ffffffffffffffffffffffffffffffffffffffff16815260200189898080601f016020809104026020016040519081016040528093929190818152602001838380828437600081840152601f19601f82011690508083019250505050505050815260200187815260200160006004811115610d5c57610d5b613719565b5b815260200186868080601f016020809104026020016040519081016040528093929190818152602001838380828437600081840152601f19601f82011690508083019250505050505050815260200184815250905080600d60008481526020019081526020016000206000820151816000015560208201518160010160006101000a81548173ffffffffffffffffffffffffffffffffffffffff021916908373ffffffffffffffffffffffffffffffffffffffff1602179055506040820151816002019081610e2b9190614193565b506060820151816003015560808201518160040160006101000a81548160ff02191690836004811115610e6157610e60613719565b5b021790555060a0820151816005019081610e7b9190614193565b5060c082015181600601559050506001600e600084815260200190815260200160002060006101000a81548160ff0219169083151502179055507fa34cb97999ecd0f8226bfafb1308337aa1070792f2ffe98893ca3cd24aeb86d4600854604051610ee69190612e55565b60405180910390a160086000815480929190610f0190614265565b91905055505050505050505050565b600c5481565b60608151835114610f5c576040517f08c379a0000000000000000000000000000000000000000000000000000000008152600401610f539061431f565b60405180910390fd5b6000835167ffffffffffffffff811115610f7957610f786130f3565b5b604051908082528060200260200182016040528015610fa75781602001602082028036833780820191505090505b50905060005b845181101561102457610ff4858281518110610fcc57610fcb61433f565b5b6020026020010151858381518110610fe757610fe661433f565b5b60200260200101516105f6565b8282815181106110075761100661433f565b5b6020026020010181815250508061101d90614265565b9050610fad565b508091505092915050565b6000600854905090565b600a60009054906101000a90046bffffffffffffffffffffffff1681565b61105f611b7d565b6110696000611f2e565b565b600d6020528060005260406000206000915090508060000154908060010160009054906101000a900473ffffffffffffffffffffffffffffffffffffffff16908060020180546110ba90613bc3565b80601f01602080910402602001604051908101604052809291908181526020018280546110e690613bc3565b80156111335780601f1061110857610100808354040283529160200191611133565b820191906000526020600020905b81548152906001019060200180831161111657829003601f168201915b5050505050908060030154908060040160009054906101000a900460ff169080600501805461116190613bc3565b80601f016020809104026020016040519081016040528092919081815260200182805461118d90613bc3565b80156111da5780601f106111af576101008083540402835291602001916111da565b820191906000526020600020905b8154815290600101906020018083116111bd57829003601f168201915b5050505050908060060154905087565b600160048111156111fe576111fd613719565b5b600d600085815260200190815260200160002060040160009054906101000a900460ff16600481111561123457611233613719565b5b14611274576040517f08c379a000000000000000000000000000000000000000000000000000000000815260040161126b906143ba565b60405180910390fd5b600d600084815260200190815260200160002060010160009054906101000a900473ffffffffffffffffffffffffffffffffffffffff1673ffffffffffffffffffffffffffffffffffffffff163373ffffffffffffffffffffffffffffffffffffffff1614611318576040517f08c379a000000000000000000000000000000000000000000000000000000000815260040161130f90614426565b60405180910390fd5b6000600d600085815260200190815260200160002060060154905061134e33858360405180602001604052806000815250611ff4565b61139c8484848080601f016020809104026020016040519081016040528093929190818152602001838380828437600081840152601f19601f820116905080830192505050505050506121a4565b6113c18433600a60009054906101000a90046bffffffffffffffffffffffff16612209565b6003600d600086815260200190815260200160002060040160006101000a81548160ff021916908360048111156113fb576113fa613719565b5b02179055507f3d3ee96f2bb6e9f1ae3eb4b2e70560b1afb5d141055e91707a654773659ffd79846003604051611432929190614481565b60405180910390a150505050565b600f6020528060005260406000206000915090508060000160009054906101000a900473ffffffffffffffffffffffffffffffffffffffff169080600101805461148990613bc3565b80601f01602080910402602001604051908101604052809291908181526020018280546114b590613bc3565b80156115025780601f106114d757610100808354040283529160200191611502565b820191906000526020600020905b8154815290600101906020018083116114e557829003601f168201915b5050505050905082565b60095481565b6000600760009054906101000a900473ffffffffffffffffffffffffffffffffffffffff16905090565b611544611b7d565b8181600b91826115559291906144b5565b505050565b61156c611565611c05565b83836123b0565b5050565b60085481565b61157e611b7d565b612710816bffffffffffffffffffffffff1611156115d1576040517f08c379a00000000000000000000000000000000000000000000000000000000081526004016115c8906145d1565b60405180910390fd5b80600a60006101000a8154816bffffffffffffffffffffffff02191690836bffffffffffffffffffffffff16021790555050565b61160d611b7d565b60006009549050600060405180604001604052808673ffffffffffffffffffffffffffffffffffffffff16815260200185858080601f016020809104026020016040519081016040528093929190818152602001838380828437600081840152601f19601f82011690508083019250505050505050815250905080600f600084815260200190815260200160002060008201518160000160006101000a81548173ffffffffffffffffffffffffffffffffffffffff021916908373ffffffffffffffffffffffffffffffffffffffff16021790555060208201518160010190816116f79190614193565b509050507fb6cfc24a1bcf9eec9d98d2d98d44747953e0c034be77874f5ed1d86ede43e95560095460405161172c9190612e55565b60405180910390a16009600081548092919061174790614265565b91905055505050505050565b600081600c546117639190613ed2565b600c81905550600c549050919050565b6060600b805461178290613bc3565b80601f01602080910402602001604051908101604052809291908181526020018280546117ae90613bc3565b80156117fb5780601f106117d0576101008083540402835291602001916117fb565b820191906000526020600020905b8154815290600101906020018083116117de57829003601f168201915b5050505050905090565b6060600b805461181490613bc3565b80601f016020809104026020016040519081016040528092919081815260200182805461184090613bc3565b801561188d5780601f106118625761010080835404028352916020019161188d565b820191906000526020600020905b81548152906001019060200180831161187057829003601f168201915b5050505050905090565b6000600160008473ffffffffffffffffffffffffffffffffffffffff1673ffffffffffffffffffffffffffffffffffffffff16815260200190815260200160002060008373ffffffffffffffffffffffffffffffffffffffff1673ffffffffffffffffffffffffffffffffffffffff16815260200190815260200160002060009054906101000a900460ff16905092915050565b611933611c05565b73ffffffffffffffffffffffffffffffffffffffff168573ffffffffffffffffffffffffffffffffffffffff161480611979575061197885611973611c05565b611897565b5b6119b8576040517f08c379a00000000000000000000000000000000000000000000000000000000081526004016119af90613fe6565b60405180910390fd5b6119c5858585858561251c565b5050505050565b6119d4611b7d565b600073ffffffffffffffffffffffffffffffffffffffff168173ffffffffffffffffffffffffffffffffffffffff1603611a43576040517f08c379a0000000000000000000000000000000000000000000000000000000008152600401611a3a90614663565b60405180910390fd5b611a4c81611f2e565b50565b600e6020528060005260406000206000915054906101000a900460ff1681565b60007f2a55205a000000000000000000000000000000000000000000000000000000007bffffffffffffffffffffffffffffffffffffffffffffffffffffffff1916827bffffffffffffffffffffffffffffffffffffffffffffffffffffffff19161480611ae25750611ae1826127b7565b5b9050919050565b606060028054611af890613bc3565b80601f0160208091040260200160405190810160405280929190818152602001828054611b2490613bc3565b8015611b715780601f10611b4657610100808354040283529160200191611b71565b820191906000526020600020905b815481529060010190602001808311611b5457829003601f168201915b50505050509050919050565b611b85611c05565b73ffffffffffffffffffffffffffffffffffffffff16611ba3611512565b73ffffffffffffffffffffffffffffffffffffffff1614611bf9576040517f08c379a0000000000000000000000000000000000000000000000000000000008152600401611bf0906146cf565b60405180910390fd5b565b6000612710905090565b600033905090565b8151835114611c51576040517f08c379a0000000000000000000000000000000000000000000000000000000008152600401611c4890614761565b60405180910390fd5b600073ffffffffffffffffffffffffffffffffffffffff168473ffffffffffffffffffffffffffffffffffffffff1603611cc0576040517f08c379a0000000000000000000000000000000000000000000000000000000008152600401611cb7906147f3565b60405180910390fd5b6000611cca611c05565b9050611cda818787878787612899565b60005b8451811015611e8b576000858281518110611cfb57611cfa61433f565b5b602002602001015190506000858381518110611d1a57611d1961433f565b5b60200260200101519050600080600084815260200190815260200160002060008b73ffffffffffffffffffffffffffffffffffffffff1673ffffffffffffffffffffffffffffffffffffffff16815260200190815260200160002054905081811015611dbb576040517f08c379a0000000000000000000000000000000000000000000000000000000008152600401611db290614885565b60405180910390fd5b81810360008085815260200190815260200160002060008c73ffffffffffffffffffffffffffffffffffffffff1673ffffffffffffffffffffffffffffffffffffffff168152602001908152602001600020819055508160008085815260200190815260200160002060008b73ffffffffffffffffffffffffffffffffffffffff1673ffffffffffffffffffffffffffffffffffffffff1681526020019081526020016000206000828254611e7091906148a5565b9250508190555050505080611e8490614265565b9050611cdd565b508473ffffffffffffffffffffffffffffffffffffffff168673ffffffffffffffffffffffffffffffffffffffff168273ffffffffffffffffffffffffffffffffffffffff167f4a39dc06d4c0dbc64b70af90fd698a233a518aa5d07e595d983b8c0526c8f7fb8787604051611f029291906148d9565b60405180910390a4611f188187878787876128a1565b611f268187878787876128a9565b505050505050565b6000600760009054906101000a900473ffffffffffffffffffffffffffffffffffffffff16905081600760006101000a81548173ffffffffffffffffffffffffffffffffffffffff021916908373ffffffffffffffffffffffffffffffffffffffff1602179055508173ffffffffffffffffffffffffffffffffffffffff168173ffffffffffffffffffffffffffffffffffffffff167f8be0079c531659141344cd1fd0a4f28419497f9722a3daafe3b4186f6b6457e060405160405180910390a35050565b600073ffffffffffffffffffffffffffffffffffffffff168473ffffffffffffffffffffffffffffffffffffffff1603612063576040517f08c379a000000000000000000000000000000000000000000000000000000000815260040161205a90614982565b60405180910390fd5b600061206d611c05565b9050600061207a85612a80565b9050600061208785612a80565b905061209883600089858589612899565b8460008088815260200190815260200160002060008973ffffffffffffffffffffffffffffffffffffffff1673ffffffffffffffffffffffffffffffffffffffff16815260200190815260200160002060008282546120f791906148a5565b925050819055508673ffffffffffffffffffffffffffffffffffffffff16600073ffffffffffffffffffffffffffffffffffffffff168473ffffffffffffffffffffffffffffffffffffffff167fc3d58168c5ae7397731d063d5bbf3d657854427343f4c083240f7aacaa2d0f6289896040516121759291906149a2565b60405180910390a461218c836000898585896128a1565b61219b83600089898989612afa565b50505050505050565b806004600084815260200190815260200160002090816121c49190614193565b50817f6bb7ff708619ba0610cba295a58592e0451dee2622938c8755667688daf3529b6121f0846106d0565b6040516121fd9190612fe8565b60405180910390a25050565b612211611bfb565b6bffffffffffffffffffffffff16816bffffffffffffffffffffffff16111561226f576040517f08c379a000000000000000000000000000000000000000000000000000000000815260040161226690614a3d565b60405180910390fd5b600073ffffffffffffffffffffffffffffffffffffffff168273ffffffffffffffffffffffffffffffffffffffff16036122de576040517f08c379a00000000000000000000000000000000000000000000000000000000081526004016122d590614aa9565b60405180910390fd5b60405180604001604052808373ffffffffffffffffffffffffffffffffffffffff168152602001826bffffffffffffffffffffffff168152506006600085815260200190815260200160002060008201518160000160006101000a81548173ffffffffffffffffffffffffffffffffffffffff021916908373ffffffffffffffffffffffffffffffffffffffff16021790555060208201518160000160146101000a8154816bffffffffffffffffffffffff02191690836bffffffffffffffffffffffff160217905550905050505050565b8173ffffffffffffffffffffffffffffffffffffffff168373ffffffffffffffffffffffffffffffffffffffff160361241e576040517f08c379a000000000000000000000000000000000000000000000000000000000815260040161241590614b3b565b60405180910390fd5b80600160008573ffffffffffffffffffffffffffffffffffffffff1673ffffffffffffffffffffffffffffffffffffffff16815260200190815260200160002060008473ffffffffffffffffffffffffffffffffffffffff1673ffffffffffffffffffffffffffffffffffffffff16815260200190815260200160002060006101000a81548160ff0219169083151502179055508173ffffffffffffffffffffffffffffffffffffffff168373ffffffffffffffffffffffffffffffffffffffff167f17307eab39ab6107e8899845ad3d59bd9653f200f220920489ca2b5937696c318360405161250f9190612f10565b60405180910390a3505050565b600073ffffffffffffffffffffffffffffffffffffffff168473ffffffffffffffffffffffffffffffffffffffff160361258b576040517f08c379a0000000000000000000000000000000000000000000000000000000008152600401612582906147f3565b60405180910390fd5b6000612595611c05565b905060006125a285612a80565b905060006125af85612a80565b90506125bf838989858589612899565b600080600088815260200190815260200160002060008a73ffffffffffffffffffffffffffffffffffffffff1673ffffffffffffffffffffffffffffffffffffffff16815260200190815260200160002054905085811015612656576040517f08c379a000000000000000000000000000000000000000000000000000000000815260040161264d90614885565b60405180910390fd5b85810360008089815260200190815260200160002060008b73ffffffffffffffffffffffffffffffffffffffff1673ffffffffffffffffffffffffffffffffffffffff168152602001908152602001600020819055508560008089815260200190815260200160002060008a73ffffffffffffffffffffffffffffffffffffffff1673ffffffffffffffffffffffffffffffffffffffff168152602001908152602001600020600082825461270b91906148a5565b925050819055508773ffffffffffffffffffffffffffffffffffffffff168973ffffffffffffffffffffffffffffffffffffffff168573ffffffffffffffffffffffffffffffffffffffff167fc3d58168c5ae7397731d063d5bbf3d657854427343f4c083240f7aacaa2d0f628a8a6040516127889291906149a2565b60405180910390a461279e848a8a86868a6128a1565b6127ac848a8a8a8a8a612afa565b505050505050505050565b60007fd9b67a26000000000000000000000000000000000000000000000000000000007bffffffffffffffffffffffffffffffffffffffffffffffffffffffff1916827bffffffffffffffffffffffffffffffffffffffffffffffffffffffff1916148061288257507f0e89341c000000000000000000000000000000000000000000000000000000007bffffffffffffffffffffffffffffffffffffffffffffffffffffffff1916827bffffffffffffffffffffffffffffffffffffffffffffffffffffffff1916145b80612892575061289182612cd1565b5b9050919050565b505050505050565b505050505050565b6128c88473ffffffffffffffffffffffffffffffffffffffff16612d3b565b15612a78578373ffffffffffffffffffffffffffffffffffffffff1663bc197c8187878686866040518663ffffffff1660e01b815260040161290e959493929190614bb0565b6020604051808303816000875af192505050801561294a57506040513d601f19601f820116820180604052508101906129479190614c2d565b60015b6129ef57612956614c67565b806308c379a0036129b2575061296a614c89565b8061297557506129b4565b806040517f08c379a00000000000000000000000000000000000000000000000000000000081526004016129a99190612fe8565b60405180910390fd5b505b6040517f08c379a00000000000000000000000000000000000000000000000000000000081526004016129e690614d8b565b60405180910390fd5b63bc197c8160e01b7bffffffffffffffffffffffffffffffffffffffffffffffffffffffff1916817bffffffffffffffffffffffffffffffffffffffffffffffffffffffff191614612a76576040517f08c379a0000000000000000000000000000000000000000000000000000000008152600401612a6d90614e1d565b60405180910390fd5b505b505050505050565b60606000600167ffffffffffffffff811115612a9f57612a9e6130f3565b5b604051908082528060200260200182016040528015612acd5781602001602082028036833780820191505090505b5090508281600081518110612ae557612ae461433f565b5b60200260200101818152505080915050919050565b612b198473ffffffffffffffffffffffffffffffffffffffff16612d3b565b15612cc9578373ffffffffffffffffffffffffffffffffffffffff1663f23a6e6187878686866040518663ffffffff1660e01b8152600401612b5f959493929190614e3d565b6020604051808303816000875af1925050508015612b9b57506040513d601f19601f82011682018060405250810190612b989190614c2d565b60015b612c4057612ba7614c67565b806308c379a003612c035750612bbb614c89565b80612bc65750612c05565b806040517f08c379a0000000000000000000000000000000000000000000000000000000008152600401612bfa9190612fe8565b60405180910390fd5b505b6040517f08c379a0000000000000000000000000000000000000000000000000000000008152600401612c3790614d8b565b60405180910390fd5b63f23a6e6160e01b7bffffffffffffffffffffffffffffffffffffffffffffffffffffffff1916817bffffffffffffffffffffffffffffffffffffffffffffffffffffffff191614612cc7576040517f08c379a0000000000000000000000000000000000000000000000000000000008152600401612cbe90614e1d565b60405180910390fd5b505b505050505050565b60007f01ffc9a7000000000000000000000000000000000000000000000000000000007bffffffffffffffffffffffffffffffffffffffffffffffffffffffff1916827bffffffffffffffffffffffffffffffffffffffffffffffffffffffff1916149050919050565b6000808273ffffffffffffffffffffffffffffffffffffffff163b119050919050565b6000604051905090565b600080fd5b600080fd5b600073ffffffffffffffffffffffffffffffffffffffff82169050919050565b6000612d9d82612d72565b9050919050565b612dad81612d92565b8114612db857600080fd5b50565b600081359050612dca81612da4565b92915050565b6000819050919050565b612de381612dd0565b8114612dee57600080fd5b50565b600081359050612e0081612dda565b92915050565b60008060408385031215612e1d57612e1c612d68565b5b6000612e2b85828601612dbb565b9250506020612e3c85828601612df1565b9150509250929050565b612e4f81612dd0565b82525050565b6000602082019050612e6a6000830184612e46565b92915050565b60007fffffffff0000000000000000000000000000000000000000000000000000000082169050919050565b612ea581612e70565b8114612eb057600080fd5b50565b600081359050612ec281612e9c565b92915050565b600060208284031215612ede57612edd612d68565b5b6000612eec84828501612eb3565b91505092915050565b60008115159050919050565b612f0a81612ef5565b82525050565b6000602082019050612f256000830184612f01565b92915050565b600060208284031215612f4157612f40612d68565b5b6000612f4f84828501612df1565b91505092915050565b600081519050919050565b600082825260208201905092915050565b60005b83811015612f92578082015181840152602081019050612f77565b60008484015250505050565b6000601f19601f8301169050919050565b6000612fba82612f58565b612fc48185612f63565b9350612fd4818560208601612f74565b612fdd81612f9e565b840191505092915050565b600060208201905081810360008301526130028184612faf565b905092915050565b61301381612ef5565b811461301e57600080fd5b50565b6000813590506130308161300a565b92915050565b6000806040838503121561304d5761304c612d68565b5b600061305b85828601613021565b925050602061306c85828601612df1565b9150509250929050565b6000806040838503121561308d5761308c612d68565b5b600061309b85828601612df1565b92505060206130ac85828601612df1565b9150509250929050565b6130bf81612d92565b82525050565b60006040820190506130da60008301856130b6565b6130e76020830184612e46565b9392505050565b600080fd5b7f4e487b7100000000000000000000000000000000000000000000000000000000600052604160045260246000fd5b61312b82612f9e565b810181811067ffffffffffffffff8211171561314a576131496130f3565b5b80604052505050565b600061315d612d5e565b90506131698282613122565b919050565b600067ffffffffffffffff821115613189576131886130f3565b5b602082029050602081019050919050565b600080fd5b60006131b26131ad8461316e565b613153565b905080838252602082019050602084028301858111156131d5576131d461319a565b5b835b818110156131fe57806131ea8882612df1565b8452602084019350506020810190506131d7565b5050509392505050565b600082601f83011261321d5761321c6130ee565b5b813561322d84826020860161319f565b91505092915050565b600080fd5b600067ffffffffffffffff821115613256576132556130f3565b5b61325f82612f9e565b9050602081019050919050565b82818337600083830152505050565b600061328e6132898461323b565b613153565b9050828152602081018484840111156132aa576132a9613236565b5b6132b584828561326c565b509392505050565b600082601f8301126132d2576132d16130ee565b5b81356132e284826020860161327b565b91505092915050565b600080600080600060a0868803121561330757613306612d68565b5b600061331588828901612dbb565b955050602061332688828901612dbb565b945050604086013567ffffffffffffffff81111561334757613346612d6d565b5b61335388828901613208565b935050606086013567ffffffffffffffff81111561337457613373612d6d565b5b61338088828901613208565b925050608086013567ffffffffffffffff8111156133a1576133a0612d6d565b5b6133ad888289016132bd565b9150509295509295909350565b600080fd5b60008083601f8401126133d5576133d46130ee565b5b8235905067ffffffffffffffff8111156133f2576133f16133ba565b5b60208301915083600182028301111561340e5761340d61319a565b5b9250929050565b6000806000806000806080878903121561343257613431612d68565b5b600087013567ffffffffffffffff8111156134505761344f612d6d565b5b61345c89828a016133bf565b9650965050602061346f89828a01612df1565b945050604087013567ffffffffffffffff8111156134905761348f612d6d565b5b61349c89828a016133bf565b935093505060606134af89828a01612df1565b9150509295509295509295565b600067ffffffffffffffff8211156134d7576134d66130f3565b5b602082029050602081019050919050565b60006134fb6134f6846134bc565b613153565b9050808382526020820190506020840283018581111561351e5761351d61319a565b5b835b8181101561354757806135338882612dbb565b845260208401935050602081019050613520565b5050509392505050565b600082601f830112613566576135656130ee565b5b81356135768482602086016134e8565b91505092915050565b6000806040838503121561359657613595612d68565b5b600083013567ffffffffffffffff8111156135b4576135b3612d6d565b5b6135c085828601613551565b925050602083013567ffffffffffffffff8111156135e1576135e0612d6d565b5b6135ed85828601613208565b9150509250929050565b600081519050919050565b600082825260208201905092915050565b6000819050602082019050919050565b61362c81612dd0565b82525050565b600061363e8383613623565b60208301905092915050565b6000602082019050919050565b6000613662826135f7565b61366c8185613602565b935061367783613613565b8060005b838110156136a857815161368f8882613632565b975061369a8361364a565b92505060018101905061367b565b5085935050505092915050565b600060208201905081810360008301526136cf8184613657565b905092915050565b60006bffffffffffffffffffffffff82169050919050565b6136f8816136d7565b82525050565b600060208201905061371360008301846136ef565b92915050565b7f4e487b7100000000000000000000000000000000000000000000000000000000600052602160045260246000fd5b6005811061375957613758613719565b5b50565b600081905061376a82613748565b919050565b600061377a8261375c565b9050919050565b61378a8161376f565b82525050565b600060e0820190506137a5600083018a612e46565b6137b260208301896130b6565b81810360408301526137c48188612faf565b90506137d36060830187612e46565b6137e06080830186613781565b81810360a08301526137f28185612faf565b905061380160c0830184612e46565b98975050505050505050565b60008060006040848603121561382657613825612d68565b5b600061383486828701612df1565b935050602084013567ffffffffffffffff81111561385557613854612d6d565b5b613861868287016133bf565b92509250509250925092565b600060408201905061388260008301856130b6565b81810360208301526138948184612faf565b90509392505050565b60006020820190506138b260008301846130b6565b92915050565b600080602083850312156138cf576138ce612d68565b5b600083013567ffffffffffffffff8111156138ed576138ec612d6d565b5b6138f9858286016133bf565b92509250509250929050565b6000806040838503121561391c5761391b612d68565b5b600061392a85828601612dbb565b925050602061393b85828601613021565b9150509250929050565b61394e816136d7565b811461395957600080fd5b50565b60008135905061396b81613945565b92915050565b60006020828403121561398757613986612d68565b5b60006139958482850161395c565b91505092915050565b6000806000604084860312156139b7576139b6612d68565b5b60006139c586828701612dbb565b935050602084013567ffffffffffffffff8111156139e6576139e5612d6d565b5b6139f2868287016133bf565b92509250509250925092565b60008060408385031215613a1557613a14612d68565b5b6000613a2385828601612dbb565b9250506020613a3485828601612dbb565b9150509250929050565b600080600080600060a08688031215613a5a57613a59612d68565b5b6000613a6888828901612dbb565b9550506020613a7988828901612dbb565b9450506040613a8a88828901612df1565b9350506060613a9b88828901612df1565b925050608086013567ffffffffffffffff811115613abc57613abb612d6d565b5b613ac8888289016132bd565b9150509295509295909350565b600060208284031215613aeb57613aea612d68565b5b6000613af984828501612dbb565b91505092915050565b7f455243313135353a2061646472657373207a65726f206973206e6f742061207660008201527f616c6964206f776e657200000000000000000000000000000000000000000000602082015250565b6000613b5e602a83612f63565b9150613b6982613b02565b604082019050919050565b60006020820190508181036000830152613b8d81613b51565b9050919050565b7f4e487b7100000000000000000000000000000000000000000000000000000000600052602260045260246000fd5b60006002820490506001821680613bdb57607f821691505b602082108103613bee57613bed613b94565b5b50919050565b600081905092915050565b60008190508160005260206000209050919050565b60008154613c2181613bc3565b613c2b8186613bf4565b94506001821660008114613c465760018114613c5b57613c8e565b60ff1983168652811515820286019350613c8e565b613c6485613bff565b60005b83811015613c8657815481890152600182019150602081019050613c67565b838801955050505b50505092915050565b6000613ca282612f58565b613cac8185613bf4565b9350613cbc818560208601612f74565b80840191505092915050565b6000613cd48285613c14565b9150613ce08284613c97565b91508190509392505050565b7f6e667420646f65736e2774206578697374000000000000000000000000000000600082015250565b6000613d22601183612f63565b9150613d2d82613cec565b602082019050919050565b60006020820190508181036000830152613d5181613d15565b9050919050565b7f4e465420737461747573206973206e6f742070726f706f736564000000000000600082015250565b6000613d8e601a83612f63565b9150613d9982613d58565b602082019050919050565b60006020820190508181036000830152613dbd81613d81565b9050919050565b6000819050919050565b600060ff82169050919050565b6000819050919050565b6000613e00613dfb613df684613dc4565b613ddb565b613dce565b9050919050565b613e1081613de5565b82525050565b6000604082019050613e2b6000830185612e46565b613e386020830184613e07565b9392505050565b6000819050919050565b6000613e64613e5f613e5a84613e3f565b613ddb565b613dce565b9050919050565b613e7481613e49565b82525050565b6000604082019050613e8f6000830185612e46565b613e9c6020830184613e6b565b9392505050565b7f4e487b7100000000000000000000000000000000000000000000000000000000600052601160045260246000fd5b6000613edd82612dd0565b9150613ee883612dd0565b9250828202613ef681612dd0565b91508282048414831517613f0d57613f0c613ea3565b5b5092915050565b7f4e487b7100000000000000000000000000000000000000000000000000000000600052601260045260246000fd5b6000613f4e82612dd0565b9150613f5983612dd0565b925082613f6957613f68613f14565b5b828204905092915050565b7f455243313135353a2063616c6c6572206973206e6f7420746f6b656e206f776e60008201527f6572206f7220617070726f766564000000000000000000000000000000000000602082015250565b6000613fd0602e83612f63565b9150613fdb82613f74565b604082019050919050565b60006020820190508181036000830152613fff81613fc3565b9050919050565b60006020601f8301049050919050565b600082821b905092915050565b6000600883026140537fffffffffffffffffffffffffffffffffffffffffffffffffffffffffffffffff82614016565b61405d8683614016565b95508019841693508086168417925050509392505050565b600061409061408b61408684612dd0565b613ddb565b612dd0565b9050919050565b6000819050919050565b6140aa83614075565b6140be6140b682614097565b848454614023565b825550505050565b600090565b6140d36140c6565b6140de8184846140a1565b505050565b5b81811015614102576140f76000826140cb565b6001810190506140e4565b5050565b601f8211156141475761411881613bff565b61412184614006565b81016020851015614130578190505b61414461413c85614006565b8301826140e3565b50505b505050565b600082821c905092915050565b600061416a6000198460080261414c565b1980831691505092915050565b60006141838383614159565b9150826002028217905092915050565b61419c82612f58565b67ffffffffffffffff8111156141b5576141b46130f3565b5b6141bf8254613bc3565b6141ca828285614106565b600060209050601f8311600181146141fd57600084156141eb578287015190505b6141f58582614177565b86555061425d565b601f19841661420b86613bff565b60005b828110156142335784890151825560018201915060208501945060208101905061420e565b86831015614250578489015161424c601f891682614159565b8355505b6001600288020188555050505b505050505050565b600061427082612dd0565b91507fffffffffffffffffffffffffffffffffffffffffffffffffffffffffffffffff82036142a2576142a1613ea3565b5b600182019050919050565b7f455243313135353a206163636f756e747320616e6420696473206c656e67746860008201527f206d69736d617463680000000000000000000000000000000000000000000000602082015250565b6000614309602983612f63565b9150614314826142ad565b604082019050919050565b60006020820190508181036000830152614338816142fc565b9050919050565b7f4e487b7100000000000000000000000000000000000000000000000000000000600052603260045260246000fd5b7f6e6674207374617475732069736e277420616363657074656400000000000000600082015250565b60006143a4601983612f63565b91506143af8261436e565b602082019050919050565b600060208201905081810360008301526143d381614397565b9050919050565b7f6e6f7420746865206e66742070726f706f736572000000000000000000000000600082015250565b6000614410601483612f63565b915061441b826143da565b602082019050919050565b6000602082019050818103600083015261443f81614403565b9050919050565b6000819050919050565b600061446b61446661446184614446565b613ddb565b613dce565b9050919050565b61447b81614450565b82525050565b60006040820190506144966000830185612e46565b6144a36020830184614472565b9392505050565b600082905092915050565b6144bf83836144aa565b67ffffffffffffffff8111156144d8576144d76130f3565b5b6144e28254613bc3565b6144ed828285614106565b6000601f83116001811461451c576000841561450a578287013590505b6145148582614177565b86555061457c565b601f19841661452a86613bff565b60005b828110156145525784890135825560018201915060208501945060208101905061452d565b8683101561456f578489013561456b601f891682614159565b8355505b6001600288020188555050505b50505050505050565b7f66656520746f6f20686967680000000000000000000000000000000000000000600082015250565b60006145bb600c83612f63565b91506145c682614585565b602082019050919050565b600060208201905081810360008301526145ea816145ae565b9050919050565b7f4f776e61626c653a206e6577206f776e657220697320746865207a65726f206160008201527f6464726573730000000000000000000000000000000000000000000000000000602082015250565b600061464d602683612f63565b9150614658826145f1565b604082019050919050565b6000602082019050818103600083015261467c81614640565b9050919050565b7f4f776e61626c653a2063616c6c6572206973206e6f7420746865206f776e6572600082015250565b60006146b9602083612f63565b91506146c482614683565b602082019050919050565b600060208201905081810360008301526146e8816146ac565b9050919050565b7f455243313135353a2069647320616e6420616d6f756e7473206c656e6774682060008201527f6d69736d61746368000000000000000000000000000000000000000000000000602082015250565b600061474b602883612f63565b9150614756826146ef565b604082019050919050565b6000602082019050818103600083015261477a8161473e565b9050919050565b7f455243313135353a207472616e7366657220746f20746865207a65726f20616460008201527f6472657373000000000000000000000000000000000000000000000000000000602082015250565b60006147dd602583612f63565b91506147e882614781565b604082019050919050565b6000602082019050818103600083015261480c816147d0565b9050919050565b7f455243313135353a20696e73756666696369656e742062616c616e636520666f60008201527f72207472616e7366657200000000000000000000000000000000000000000000602082015250565b600061486f602a83612f63565b915061487a82614813565b604082019050919050565b6000602082019050818103600083015261489e81614862565b9050919050565b60006148b082612dd0565b91506148bb83612dd0565b92508282019050808211156148d3576148d2613ea3565b5b92915050565b600060408201905081810360008301526148f38185613657565b905081810360208301526149078184613657565b90509392505050565b7f455243313135353a206d696e7420746f20746865207a65726f2061646472657360008201527f7300000000000000000000000000000000000000000000000000000000000000602082015250565b600061496c602183612f63565b915061497782614910565b604082019050919050565b6000602082019050818103600083015261499b8161495f565b9050919050565b60006040820190506149b76000830185612e46565b6149c46020830184612e46565b9392505050565b7f455243323938313a20726f79616c7479206665652077696c6c2065786365656460008201527f2073616c65507269636500000000000000000000000000000000000000000000602082015250565b6000614a27602a83612f63565b9150614a32826149cb565b604082019050919050565b60006020820190508181036000830152614a5681614a1a565b9050919050565b7f455243323938313a20496e76616c696420706172616d65746572730000000000600082015250565b6000614a93601b83612f63565b9150614a9e82614a5d565b602082019050919050565b60006020820190508181036000830152614ac281614a86565b9050919050565b7f455243313135353a2073657474696e6720617070726f76616c2073746174757360008201527f20666f722073656c660000000000000000000000000000000000000000000000602082015250565b6000614b25602983612f63565b9150614b3082614ac9565b604082019050919050565b60006020820190508181036000830152614b5481614b18565b9050919050565b600081519050919050565b600082825260208201905092915050565b6000614b8282614b5b565b614b8c8185614b66565b9350614b9c818560208601612f74565b614ba581612f9e565b840191505092915050565b600060a082019050614bc560008301886130b6565b614bd260208301876130b6565b8181036040830152614be48186613657565b90508181036060830152614bf88185613657565b90508181036080830152614c0c8184614b77565b90509695505050505050565b600081519050614c2781612e9c565b92915050565b600060208284031215614c4357614c42612d68565b5b6000614c5184828501614c18565b91505092915050565b60008160e01c9050919050565b600060033d1115614c865760046000803e614c83600051614c5a565b90505b90565b600060443d10614d1657614c9b612d5e565b60043d036004823e80513d602482011167ffffffffffffffff82111715614cc3575050614d16565b808201805167ffffffffffffffff811115614ce15750505050614d16565b80602083010160043d038501811115614cfe575050505050614d16565b614d0d82602001850186613122565b82955050505050505b90565b7f455243313135353a207472616e7366657220746f206e6f6e2d4552433131353560008201527f526563656976657220696d706c656d656e746572000000000000000000000000602082015250565b6000614d75603483612f63565b9150614d8082614d19565b604082019050919050565b60006020820190508181036000830152614da481614d68565b9050919050565b7f455243313135353a204552433131353552656365697665722072656a6563746560008201527f6420746f6b656e73000000000000000000000000000000000000000000000000602082015250565b6000614e07602883612f63565b9150614e1282614dab565b604082019050919050565b60006020820190508181036000830152614e3681614dfa565b9050919050565b600060a082019050614e5260008301886130b6565b614e5f60208301876130b6565b614e6c6040830186612e46565b614e796060830185612e46565b8181036080830152614e8b8184614b77565b9050969550505050505056fea2646970667358221220036d35dd03593bab7ed525ba3633c70ef056e0f9262bbbc0068c3e3489f1c7b464736f6c63430008110033",
  "linkReferences": {},
  "deployedLinkReferences": {}
}